:020000040800F2
:1000000000000220A16000085D5F0008655F000835
:100010006D5F0008755F00087D5F0008000000004C
:1000200000000000000000000000000011F00008C7
:10003000855F00080000000061F20008935F00087F
:10004000F1600008F1600008F1600008F16000084C
:10005000F1600008F1600008F1600008F16000083C
:10006000F1600008F1600008F1600008F16000082C
:10007000AD5F0008F1600008F1600008F160000861
:10008000F1600008F1600008F1600008F16000080C
:10009000F1600008F1600008F1600008F1600008FC
:1000A000F1600008F1600008F1600008F1600008EC
:1000B000C15F0008F1600008F1600008F16000080D
:1000C000F1600008F1600008F1600008F1600008CC
:1000D000F1600008F1600008F1600008D55F0008D9
:1000E000F1600008F1600008F1600008F1600008AC
:1000F000F1600008F1600008E95F0008F1600008A5
:10010000F1600008F1600008F1600008F16000088B
:10011000F1600008F1600008F1600008F16000087B
:10012000FD5F0008F1600008F1600008F160000860
:10013000F1600008F1600008F1600008F16000085B
:10014000F1600008F1600008F1600008F16000084B
:10015000F1600008F1600008F1600008F16000083B
:10016000F1600008F1600008F1600008F16000082B
:10017000F1600008F1600008F16000080000000074
:08018000F1600008F1600008C5
:1001900010B5054C237833B9044B13B10448AFF3C1
:1001A00000800123237010BD5801002000000000D2
:1001B000203A010808B5034B1BB103490348AFF3CC
:1001C000008008BD000000005C010020203A01080A
:1001D000034613F8012B002AFBD1181A0138704787
:1001E00001F0FF01102A2BDB10F0070F08D010F8E8
:1001F000013B013A8B422DD010F0070F42B3F6D1EC
:10020000F0B441EA012141EA014122F007047FF004
:1002100000070023F0E80256083C85EA010586EA5B
:10022000010685FA47F5A3FA87F586FA47F6A5FA97
:1002300087F68EB9EED1F0BC01F0FF0102F00702A3
:1002400032B110F8013B013A83EA010313B1F8D14E
:100250000020704701387047002D06BF354603382F
:10026000073815F0010F07D1013015F4807F02BF68
:10027000013015F4C03F0130F0BC0138704700BFB9
:1002800081F0004102E000BF83F0004330B54FEA47
:1002900041044FEA430594EA050F08BF90EA020FB4
:1002A0001FBF54EA000C55EA020C7FEA645C7FEA47
:1002B000655C00F0E2804FEA5454D4EB5555B8BF6A
:1002C0006D420CDD2C4480EA020281EA030382EADB
:1002D000000083EA010180EA020281EA0303362D6D
:1002E00088BF30BD11F0004F4FEA01314FF4801C40
:1002F0004CEA113102D0404261EB410113F0004F52
:100300004FEA03334CEA133302D0524263EB430308
:1003100094EA050F00F0A780A4F10104D5F1200EA6
:100320000DDB02FA0EFC22FA05F2801841F1000101
:1003300003FA0EF2801843FA05F359410EE0A5F1D5
:1003400020050EF1200E012A03FA0EFC28BF4CF006
:10035000020C43FA05F3C01851EBE37101F00045BC
:1003600007D54FF0000EDCF1000C7EEB00006EEBC9
:100370000101B1F5801F1BD3B1F5001F0CD3490853
:100380005FEA30004FEA3C0C04F101044FEA4452AA
:1003900012F5800F80F09A80BCF1004F08BF5FEA31
:1003A000500C50F1000041EB045141EA050130BD11
:1003B0005FEA4C0C404141EB0101013C28BFB1F523
:1003C000801FE9D291F0000F04BF01460020B1FA6E
:1003D00081F308BF2033A3F10B03B3F120020CDA41
:1003E0000C3208DD02F1140CC2F10C0201FA0CF01F
:1003F00021FA02F10CE002F11402D8BFC2F1200C84
:1004000001FA02F120FA0CFCDCBF41EA0C01904039
:10041000E41AA2BF01EB0451294330BD6FEA040482
:100420001F3C1CDA0C340EDC04F11404C4F120026D
:1004300020FA04F001FA02F340EA030021FA04F37F
:1004400045EA030130BDC4F10C04C4F1200220FAD6
:1004500002F001FA04F340EA0300294630BD21FA14
:1004600004F0294630BD94F0000F83F4801306BFDA
:1004700081F480110134013D4EE77FEA645C18BFCE
:100480007FEA655C29D094EA050F08BF90EA020F65
:1004900005D054EA000C04BF1946104630BD91EA5D
:1004A000030F1EBF0021002030BD5FEA545C05D160
:1004B0004000494128BF41F0004130BD14F580049F
:1004C0003CBF01F5801130BD01F0004545F0FE4113
:1004D00041F470014FF0000030BD7FEA645C1ABF48
:1004E000194610467FEA655C1CBF0B46024650EA7F
:1004F000013406BF52EA033591EA030F41F40021AB
:1005000030BD00BF90F0000F04BF0021704730B530
:100510004FF4806404F132044FF000054FF0000105
:1005200050E700BF90F0000F04BF0021704730B5C6
:100530004FF4806404F1320410F0004548BF40429B
:100540004FF000013EE700BF42004FEAE2014FEAF0
:1005500031014FEA02701FBF12F07F4393F07F4FCB
:1005600081F06051704732F07F4208BF704793F0CE
:100570007F4F04BF41F40021704730B54FF46074E1
:1005800001F0004521F000411CE700BF50EA0102E4
:1005900008BF704730B54FF000050AE050EA01028D
:1005A00008BF704730B511F0004502D5404261EBFD
:1005B00041014FF4806404F132045FEA915C3FF43E
:1005C000D8AE4FF003025FEADC0C18BF03325FEADB
:1005D000DC0C18BF033202EBDC02C2F1200300FA8C
:1005E00003FC20FA02F001FA03FE40EA0E0021FAB1
:1005F00002F11444BDE600BF70B54FF0FF0C4CF49F
:10060000E06C1CEA11541DBF1CEA135594EA0C0F50
:1006100095EA0C0F00F0DEF82C4481EA030621EA8B
:100620004C5123EA4C5350EA013518BF52EA0335C6
:1006300041F4801143F4801338D0A0FB02CE4FF078
:100640000005E1FB02E506F00042E0FB03E54FF0A8
:100650000006E1FB03569CF0000F18BF4EF0010EA0
:10066000A4F1FF04B6F5007F64F5407404D25FEA9C
:100670004E0E6D4146EB060642EAC62141EA55514F
:100680004FEAC52040EA5E504FEACE2EB4F1FD0C91
:1006900088BFBCF5E06F1ED8BEF1004F08BF5FEA0F
:1006A000500E50F1000041EB045170BD06F00046C1
:1006B00046EA010140EA020081EA0301B4EB5C046E
:1006C000C2BFD4EB0C0541EA045170BD41F4801166
:1006D0004FF0000E013C00F3AB8014F1360FDEBF8B
:1006E000002001F0004170BDC4F10004203C35DA67
:1006F0000C341BDC04F11404C4F1200500FA05F3EA
:1007000020FA04F001FA05F240EA020001F000428A
:1007100021F0004110EBD37021FA04F642EB060100
:100720005EEA430E08BF20EAD37070BDC4F10C042A
:10073000C4F1200500FA04F320FA05F001FA04F2EE
:1007400040EA020001F0004110EBD37041F10001DA
:100750005EEA430E08BF20EAD37070BDC4F12005E5
:1007600000FA05F24EEA020E20FA04F301FA05F24D
:1007700043EA020321FA04F001F0004121FA04F2F5
:1007800020EA020000EBD3705EEA430E08BF20EAC5
:10079000D37070BD94F0000F0FD101F000464000FF
:1007A00041EB010111F4801F08BF013CF7D041EA81
:1007B000060195F0000F18BF704703F00046520085
:1007C00043EB030313F4801F08BF013DF7D043EA56
:1007D0000603704794EA0C0F0CEA135518BF95EA0C
:1007E0000C0F0CD050EA410618BF52EA4306D1D193
:1007F00081EA030101F000414FF0000070BD50EAB2
:10080000410606BF1046194652EA430619D094EA3B
:100810000C0F02D150EA013613D195EA0C0F05D125
:1008200052EA03361CBF104619460AD181EA030179
:1008300001F0004141F0FE4141F470014FF0000031
:1008400070BD41F0FE4141F4780170BD70B54FF0CC
:10085000FF0C4CF4E06C1CEA11541DBF1CEA13554C
:1008600094EA0C0F95EA0C0F00F0A7F8A4EB05042E
:1008700081EA030E52EA03354FEA013100F0888025
:100880004FEA03334FF0805545EA131343EA1263EE
:100890004FEA022245EA111545EA10654FEA0026A3
:1008A0000EF000419D4208BF964244F1FD0404F55C
:1008B000407402D25B084FEA3202B61A65EB0305B8
:1008C0005B084FEA32024FF480104FF4002CB6EB75
:1008D000020E75EB030E22BFB61A754640EA0C00F5
:1008E0005B084FEA3202B6EB020E75EB030E22BF35
:1008F000B61A754640EA5C005B084FEA3202B6EB76
:10090000020E75EB030E22BFB61A754640EA9C0034
:100910005B084FEA3202B6EB020E75EB030E22BF04
:10092000B61A754640EADC0055EA060E18D04FEAC2
:10093000051545EA16754FEA06164FEAC30343EA62
:1009400052734FEAC2025FEA1C1CC0D111F4801F2F
:100950000BD141EA00014FF000004FF0004CB6E728
:1009600011F4801F04BF01430020B4F1FD0C88BFC7
:10097000BCF5E06F3FF6AFAEB5EB030C04BFB6EBD2
:10098000020C5FEA500C50F1000041EB045170BDC5
:100990000EF0004E4EEA113114EB5C04C2BFD4EBF2
:1009A0000C0541EA045170BD41F480114FF0000E76
:1009B000013C90E645EA060E8DE60CEA135594EAF2
:1009C0000C0F08BF95EA0C0F3FF43BAF94EA0C0FF5
:1009D0000AD150EA01347FF434AF95EA0C0F7FF46A
:1009E00025AF104619462CE795EA0C0F06D152EABE
:1009F00003353FF4FDAE1046194622E750EA4106A2
:100A000018BF52EA43067FF4C5AE50EA41047FF4B2
:100A10000DAF52EA43057FF4EBAE12E74FF0FF3C17
:100A200006E000BF4FF0010C02E000BF4FF0010CE8
:100A30004DF804CD4FEA410C7FEA6C5C4FEA430C61
:100A400018BF7FEA6C5C1BD001B050EA410C0CBFB0
:100A500052EA430C91EA030F02BF90EA020F002012
:100A6000704710F1000F91EA030F58BF994208BF79
:100A700090422CBFD8176FEAE37040F00100704736
:100A80004FEA410C7FEA6C5C02D150EA013C07D18D
:100A90004FEA430C7FEA6C5CD6D152EA033CD3D0D8
:100AA0005DF8040B704700BF8446104662468C46D2
:100AB0001946634600E000BF01B5FFF7B7FF002805
:100AC00048BF10F1000F01BD4DF808EDFFF7F4FF2E
:100AD0000CBF012000205DF808FB00BF4DF808EDB9
:100AE000FFF7EAFF34BF012000205DF808FB00BFDC
:100AF0004DF808EDFFF7E0FF94BF012000205DF8FE
:100B000008FB00BF4DF808EDFFF7CEFF94BF0120B2
:100B100000205DF808FB00BF4DF808EDFFF7C4FFAB
:100B200034BF012000205DF808FB00BF4FEA410CF4
:100B30007FEA6C5C02D150EA013C0AD14FEA430CD7
:100B40007FEA6C5C02D152EA033C02D14FF0000014
:100B500070474FF0010070474FEA410212F5001252
:100B600015D211D56FF47873B3EB625212D94FEAF4
:100B7000C12343F0004343EA505311F0004F23FADE
:100B800002F018BF404270474FF00000704750EA33
:100B9000013005D111F0004008BF6FF000407047F0
:100BA0004FF00000704700BF4A0011D212F500124A
:100BB00011D20DD56FF47873B3EB62520ED44FEAB5
:100BC000C12343F0004343EA505323FA02F0704735
:100BD0004FF00000704750EA013002D14FF0FF3073
:100BE00070474FF00000704753B94AB9002908BF59
:100BF00000281CBF4FF0FF314FF0FF3000F088B9E4
:100C0000ADF1080C6DE904CE00F006F8DDF804E063
:100C1000DDE9022304B070472DE9F047089D0F4637
:100C200004468C46002B48D18A42164661D9B2FA56
:100C300082F34BB1C3F1200201FA03FC20FA02F265
:100C40009E4042EA0C0C9C404FEA164EB7B2BCFBE9
:100C5000FEF1220C0EFB11CC42EA0C4201FB07F024
:100C6000904209D9B21801F1FF3C80F0EE80904229
:100C700040F2EB8002393244121AA4B2B2FBFEF009
:100C80000EFB102244EA024400FB07F7A74209D9F1
:100C9000341900F1FF3280F0DA80A74240F2D780A9
:100CA0003444023840EA0140E41B00211DB1DC401D
:100CB0000023C5E90043BDE8F0878B4206D90DB19A
:100CC000C5E9000100210846BDE8F087B3FA83F1C9
:100CD000002948D1BB4202D3824200F20781841A24
:100CE00067EB030201209446002DE4D0C5E9004CD7
:100CF000E1E7002A00F09280B2FA82F3002B40F084
:100D0000A8808A1A4FEA164E1FFA86FC0121200C91
:100D1000B2FBFEF70EFB172240EA02420CFB07F083
:100D2000904207D9B21807F1FF3802D2904200F280
:100D3000E2804746121AA4B2B2FBFEF00EFB10226C
:100D400044EA02440CFB00FCA44507D9341900F125
:100D5000FF3202D2A44500F2CB801046A4EB0C0473
:100D600040EA0740A2E7C1F120068B4022FA06FCC8
:100D70004CEA030C07FA01F420FA06F3F7404FEAB5
:100D80001C49234300FA01F81FFA8CFEB7FBF9F067
:100D90001C0C09FB107744EA074400FB0EF7A7423E
:100DA00002FA01F20AD91CEB040400F1FF3A80F0C8
:100DB0009B80A74240F2988002386444E41B9FB2B3
:100DC000B4FBF9F309FB134447EA044403FB0EFEAA
:100DD000A64509D91CEB040403F1FF3780F082809B
:100DE000A6457FD9023B644443EA0040A4EB0E04CD
:100DF000A0FB02E7BC427346B94663D360D05DB145
:100E0000B8EB030264EB090404FA06F622FA01F3D4
:100E10001E43CC40C5E9006400214CE76208480845
:100E200042EAC1710B0C43EA00438AB242EA034230
:100E3000B3FBF6F1E407B4463746B6461F23B0FBD2
:100E4000F6F0D21B41EA004161E7614614E7104623
:100E500028E7C3F1200120FA01F29E4027FA01F1B0
:100E60009F403A434FEA164E1FFA86FCB1FBFEF74D
:100E70000EFB1710110C41EA004107FB0CF88845E6
:100E800004FA03F43AD9711807F1FF3001D288450A
:100E90001FD8A1EB0801B1FBFEF808FB0CF70EFB15
:100EA000181192B242EA0142BA422FD2B21808F1A6
:100EB000FF31C6D2BA42C4D2A8F102013244C0E71F
:100EC000F0459CD2BEEB020367EB0C070138B94634
:100ED00095E7A6EB08084144B81EB1FBFEF808FBF5
:100EE0000CF7DCE73B467FE7504667E70846FBE642
:100EF0003444023832E7023F32441BE7A1EB0801D9
:100F00003846B1FBFEF808FB0CF7C8E7414698E706
:100F1000704700BF80B588B000AF786007F10C0360
:100F200000221A605A609A60DA607B68FB600123D5
:100F30003B6100237B6107F10C031946154805F05E
:100F40002FFC0346002B01D004F0D6FC114805F01D
:100F5000ABF90346002B01D004F0CEFC0A210D486A
:100F600005F0A7FA0346002B01D004F0C5FC0948A0
:100F700005F008FC0346FB83064805F067FA0346C4
:100F8000002B01D004F0B8FCFB8B18462037BD467F
:100F900080BD00BF4002002080B58EB000AF7860F9
:100FA0000023FB85012387F82D3007F108037A68B9
:100FB000154918460FF086FD07F1280207F10803CE
:100FC000124918460FF075FE786300233B630AE070
:100FD00007F128031A460D4900200FF06AFE7863D6
:100FE0003B6B01333B6397F82D303A6B9A42EFDB52
:100FF000786B0FF063FD0346FB85B7F92E3018467A
:101000003837BD4680BD00BFF03A0108F43A010808
:1010100080B58EB000AF78600023FB85032387F88E
:101020002D3007F108037A68154918460FF04AFD7C
:1010300007F1280207F10803124918460FF039FE9C
:10104000786300233B630AE007F128031A460D4941
:1010500000200FF02EFE78633B6B01333B6397F863
:101060002D303A6B9A42EFDB786B0FF027FD034689
:10107000FB85B7F92E3018463837BD4680BD00BF16
:10108000F03A0108F43A010880B58EB000AF7860FC
:10109000002387F82F30012387F82E3007F108034B
:1010A0007A68164918460FF00DFD07F1280207F17E
:1010B0000803134918460FF0FCFD786300233B63D7
:1010C0000AE007F128031A460D4900200FF0F1FD50
:1010D00078633B6B01333B6397F82E303A6B9A424F
:1010E000EFDB786B0FF0EAFC034687F82F3097F8B8
:1010F0002F3018463837BD4680BD00BFF03A010892
:10110000F43A010800000000B0B588B000AF87EDE8
:10111000060B87ED041B87ED022B87ED003BD7E91B
:101120000423D7E90601FFF7AFF802460B4643EC6C
:10113000172B9FED1B1BB0EE470AF0EE670A10F06D
:101140004FFA55EC104BD7E90023D7E90201FFF71E
:101150009BF802460B4643EC172B9FED111BB0EE9C
:10116000470AF0EE670A10F03BFA53EC102B2046CA
:101170002946FFF78BF802460B4643EC172BB0EEDF
:10118000470AF0EE670A10F0A3FAB0EE407AF0EEEC
:10119000607AB0EE470AF0EE670A2037BD46B0BD70
:1011A0000000000000000040B0B58CB002AF07F1B5
:1011B00008031E22002118460FF02AFD194BD3E91F
:1011C000002310461946FFF7C7FC0446164BD3E927
:1011D000002310461946FFF7BFFC0546134BD3E921
:1011E000002310461946FFF7B7FC0346104A126861
:1011F00007F10800019200932B4622460D490FF09B
:1012000061FC0A23BB803A1D07F10803114618460A
:101210000FF006FD034618460EF0FEFC00BF28370F
:10122000BD46B0BDF0010020F80100200002002002
:10123000C4050020F83A0108B0B58CB002AF07F140
:1012400008031E22002118460FF0E2FC184BD3E9D8
:10125000002310461946FFF77FFC0446154BD3E9DF
:10126000002310461946FFF777FC0546124BD3E9D9
:10127000002310461946FFF76FFC034607F10800EC
:1012800000932B4622460D490FF01CFC0A23BB801D
:101290003A1D07F10803114618460FF0C1FC03463A
:1012A00018460EF0B9FC00BF2837BD46B0BD00BFE0
:1012B000F801002000020020F00100201C3B010882
:1012C00080B588B000AF3B461E22002118460FF0C3
:1012D0009FFC084B1B681A463B46074918460FF00F
:1012E000F1FB3B4618460EF097FC00BF2037BD4689
:1012F00080BD00BFC40500202C3B010880B586B02E
:1013000002AF04F0F7FE00F033F900F01BFD00F02F
:10131000E3FC00F0B7FC00F009FB00F0B3FA00F0CA
:10132000D7F900F04DFC00F001FA00F081FB00F06D
:10133000D3FB00F07BF90FF0D5FA5C495C480EF066
:101340000BFC802301935B4B00934FF48073594A4D
:10135000042159480EF038FA584B594A59495A480D
:101360000EF022FF594805F02FF94FF4FA7004F0FF
:1013700033FF574A3B1D07CA83E807000FF08CF97B
:101380003B1D1A460A210A200FF07AFA0FF0FEF8E8
:101390004FF47A7004F020FF4E480EF083FC0346B1
:1013A0004D4A13604D480FF02BFB0FF075F94C4A76
:1013B0000A210A200FF064FA0FF0E8F80AF0B2FEF2
:1013C0000FF06AF9474A0A210A200FF059FA0FF084
:1013D000DDF8454A012101200AF09BFF0346434AFC
:1013E0001360434A002101200AF093FF0346414A5B
:1013F0001360414A012101200AF08BFF03463F4A56
:1014000013603F4A00213F480AF0D6FE03463E4A99
:1014100013603E4A00213E480AF0CEFE03463D4A94
:1014200013603D4A00213D480AF0C6FE03463C4A8F
:1014300013603C4A00213C480AF0BEFE03463B4A8A
:1014400013603B4A00213B480AF0B6FE03463A4A85
:1014500013603A4A00213A480AF0AEFE0346394A80
:101460001360394A002139480AF0A6FE0346384A7B
:101470001360384A002138480AF09EFE0346374A76
:101480001360374A002137480AF096FE0346364A71
:1014900013600FF001F9354A0A210A200FF0F0F924
:1014A0000FF074F80AF062FE00BFFDE7340500207B
:1014B000EC040020000802405C040020140400201A
:1014C000840300203C030020CC03002040020020C5
:1014D000583B0108E802002000000020A40400207E
:1014E000303B01083C3B0108583F0108B80500208B
:1014F000683F0108BC050020783F0108C0050020B6
:10150000143E01087D1E000894050020383E0108A5
:10151000B11F0008980500205C3E0108D14000087A
:101520009C050020803E0108F1490008A00500202C
:10153000A43E0108154A0008A4050020C83E010881
:10154000A94A0008A8050020EC3E0108314C00081B
:10155000AC050020103F0108094D0008B00500202F
:10156000343F0108E1570008B40500204C3B010856
:1015700080B594B000AF07F1200330220021184657
:101580000FF046FB07F10C0300221A605A609A60C4
:10159000DA601A610023BB60224B1B6C214A43F0C6
:1015A000805313641F4B1B6C03F08053BB60BB68FC
:1015B00000237B601C4B1B681B4A43F48043136071
:1015C000194B1B6803F480437B607B6802233B62FA
:1015D0000123FB6210233B630023BB6307F120035D
:1015E000184607F011FA0346002B01D004F084F9E5
:1015F0000F23FB6000233B6100237B610023BB6161
:101600000023FB6107F10C030021184607F074FC6E
:101610000346002B01D004F06FF900BF5037BD46E0
:1016200080BD00BF003802400070004080B584B02B
:1016300000AF3B4600221A605A609A60DA60214B84
:10164000214A1A601F4B00225A601E4B00229A60EA
:101650001C4B01221A611B4B01221A76194B0022E6
:1016600083F82020174B0022DA62164B174A9A6241
:10167000144B0022DA60134B0122DA61114B012274
:1016800083F830200F4B01225A610E4804F0C8FD48
:101690000346002B01D004F02FF90C233B600123FB
:1016A0007B600023BB603B461946064805F078F88E
:1016B0000346002B01D004F01FF900BF1037BD46D0
:1016C00080BD00BF40020020002001400100000F4B
:1016D00080B500AF124B134A1A60114B124A5A6080
:1016E0000F4B00229A600E4B0022DA600C4B4FF435
:1016F00080421A610A4B00225A61094B00229A610A
:10170000074B0022DA61064B00221A62044806F0F9
:101710002FF90346002B01D004F0EEF800BF80BD86
:10172000E802002000580040A086010080B596B075
:1017300000AF07F1480300221A605A609A60DA602D
:1017400007F1400300221A605A6007F124030022C7
:101750001A605A609A60DA601A615A619A613B1D98
:101760002022002118460FF053FA444B444A1A60D5
:10177000424B00225A60414B00229A603F4B41F697
:101780001F42DA603D4B00221A613C4B00225A6135
:101790003A4B00229A61394807F08CFD0346002B32
:1017A00001D004F0A9F84FF48053BB6407F148035B
:1017B0001946324808F0F2FB0346002B01D004F032
:1017C0009BF82E4807F0C5FD0346002B01D004F01E
:1017D00093F800233B6400237B6407F14003194620
:1017E000264809F04FF90346002B01D004F084F895
:1017F00060237B620023BB620223FB6200233B6306
:1018000000237B630023BB630023FB6307F12403F6
:1018100008221946194808F0FFFA0346002B01D0A8
:1018200004F06AF807F124030C221946134808F063
:10183000F3FA0346002B01D004F05EF800237B602E
:101840000023BB600023FB6000233B6100237B611E
:101850004FF40053BB6100233B623B1D1946074810
:1018600009F08CF90346002B01D004F045F8034839
:1018700004F068FA00BF5837BD4680BD3C03002025
:101880000000014080B58CB000AF07F10C032422AA
:10189000002118460FF0BCF93B1D00221A605A6067
:1018A000214B4FF080421A601F4B00225A601E4BA2
:1018B00000229A601C4B4FF6FF72DA601A4B00222E
:1018C0001A61194B00229A610323FB6000233B61DC
:1018D00001237B610023BB610A23FB6100233B6280
:1018E00001237B620023BB620A23FB6207F10C0326
:1018F00019460D4807F0D0FF0346002B01D003F036
:10190000FBFF00237B600023BB603B1D194606489C
:1019100009F0B8F80346002B01D003F0EDFF00BF3B
:101920003037BD4680BD00BF8403002080B58EB037
:1019300000AF07F1280300221A605A609A60DA604B
:1019400007F1200300221A605A603B1D00221A6032
:101950005A609A60DA601A615A619A61324B334A6E
:101960001A60314B00225A602F4B00229A602E4B96
:1019700041F61F42DA602C4B00221A612A4B0022EA
:101980009A61294807F096FC0346002B01D003F02A
:10199000B3FF4FF48053BB6207F128031946224876
:1019A00008F0FCFA0346002B01D003F0A5FF1E4807
:1019B00007F0CFFC0346002B01D003F09DFF00236E
:1019C0003B6200237B6207F120031946164809F0A9
:1019D00059F80346002B01D003F08EFF60237B6093
:1019E0000023BB600223FB6000237B613B1D0822B8
:1019F00019460D4808F010FA0346002B01D003F0F9
:101A00007BFF3B1D0C221946074808F005FA0346E8
:101A1000002B01D003F070FF034804F093F900BFDE
:101A20003837BD4680BD00BFCC0300200008004011
:101A300080B58CB000AF07F10C03242200211846BA
:101A40000FF0E6F83B1D00221A605A60204B214A35
:101A50001A601F4B00225A601D4B00229A601C4BDB
:101A60004FF6FF72DA601A4B00221A61184B0022FF
:101A70009A610123FB6000233B6101237B6100230A
:101A8000BB610023FB6100233B6201237B620023D7
:101A9000BB620023FB6207F10C0319460C4807F0F8
:101AA000FBFE0346002B01D003F026FF00237B60E2
:101AB0000023BB603B1D1946054808F0E3FF0346C1
:101AC000002B01D003F018FF00BF3037BD4680BDAA
:101AD00014040020000C004080B58AB000AF07F16C
:101AE000180300221A605A609A60DA6007F1100346
:101AF00000221A605A603B4600221A605A609A60BF
:101B0000DA602D4B2D4A1A602B4B0F225A602A4B5C
:101B100000229A60284B4FF6FF72DA60264B0022B3
:101B20001A61254B00225A61234B00229A612248F8
:101B300007F0C0FB0346002B01D003F0DDFE4FF49D
:101B40008053BB6107F1180319461B4808F026FAB9
:101B50000346002B01D003F0CFFE174807F01AFD13
:101B60000346002B01D003F0C7FE00233B61002396
:101B70007B6107F1100319460F4808F083FF034605
:101B8000002B01D003F0B8FE0A233B6001237B60E9
:101B90000023BB600023FB603B4604221946064835
:101BA00008F09EF80346002B01D003F0A5FE00BF0D
:101BB0002837BD4680BD00BF5C0400200004014002
:101BC00080B58CB000AF07F1200300221A605A6084
:101BD0009A60DA603B1D00221A605A609A60DA60EF
:101BE0001A615A619A61254B254A1A60234BA0223B
:101BF0005A60224B00229A60204B4FF47A72DA60CE
:101C00001E4B00221A611D4B80229A611B4807F06F
:101C100051FB0346002B01D003F06EFE4FF48053BE
:101C20003B6207F120031946144808F0B7F9034650
:101C3000002B01D003F060FE104807F08AFB03463A
:101C4000002B01D003F058FE60237B600023BB60B3
:101C50000023FB6000237B613B1D042219460748DB
:101C600008F0DAF80346002B01D003F045FE0348E4
:101C700004F068F800BF3037BD4680BDA4040020E2
:101C80000018004080B500AF114B124A1A60104B8B
:101C90004FF4E1325A600E4B00229A600C4B002246
:101CA000DA600B4B00221A61094B0C225A61084B77
:101CB00000229A61064B0022DA61054808F0C4FF51
:101CC0000346002B01D003F017FE00BF80BD00BF0C
:101CD000EC0400200048004080B582B000AF002333
:101CE0007B60174B1B6B164A43F400131363144BB2
:101CF0001B6B03F400137B607B6800233B60104B7D
:101D00001B6B0F4A43F4800313630D4B1B6B03F4EF
:101D100080033B603B68002205210C2005F039F868
:101D20000C2005F052F800220521382005F031F88A
:101D3000382005F04AF800BF0837BD4680BD00BF17
:101D40000038024080B58AB000AF07F114030022CA
:101D50001A605A609A60DA601A6100233B61434B53
:101D60001B6B424A43F004031363404B1B6B03F0AD
:101D700004033B613B690023FB603C4B1B6B3B4A0C
:101D800043F001031363394B1B6B03F00103FB604A
:101D9000FB680023BB60354B1B6B344A43F01003D8
:101DA0001363324B1B6B03F01003BB60BB68002353
:101DB0007B602E4B1B6B2D4A43F0020313632B4BAE
:101DC0001B6B03F002037B607B6800233B60274BA7
:101DD0001B6B264A43F008031363244B1B6B03F071
:101DE00008033B603B6800224FF48071204805F0F7
:101DF000A5FD00224FF4F0411E4805F09FFD002292
:101E00004FF480711C4805F099FD4FF480737B619D
:101E10000123BB610023FB6100233B6207F1140334
:101E20001946134805F0EEFB4FF4F0437B610123A4
:101E3000BB610023FB6100233B6207F114031946D9
:101E40000C4805F0DFFB4FF480737B610123BB611D
:101E50000023FB6100233B6207F114031946064887
:101E600005F0D0FB00BF2837BD4680BD00380240DA
:101E700000100240000C02400008024090B58BB0F8
:101E800000AF78600EF008FC07F108033A4A3B49BE
:101E900018460EF017FE07F108031A4600210A2023
:101EA0000EF0EEFC364BD3E9002310461946FEF740
:101EB00053FE0446334BD3E9002310461946FEF780
:101EC0004BFE034607F1080022462F490EF0FAFDAB
:101ED00007F108031A460A210A200EF0D1FC2B4B09
:101EE000D3E9002310461946FEF736FE024607F1F5
:101EF0000803274918460EF0E5FD07F108031A46C6
:101F000014210A200EF0BCFC224B1B681A4607F174
:101F10000803214918460EF0D5FD07F108031A46BB
:101F20001E210A200EF0ACFC1C4B1B681A4607F160
:101F300008031B4918460EF0C5FD07F108031A46B1
:101F400028210A200EF09CFC164B1B681A4607F14C
:101F50000803154918460EF0B5FD07F108031A46A7
:101F600032210A200EF08CFC0EF010FB64200AF0E7
:101F7000B5F900BF86E700BF08000020643B0108F8
:101F8000F801002000020020703B0108F001002051
:101F90007C3B0108C4050020883B0108D0050020D7
:101FA000983B0108D4050020A43B01080000000074
:101FB000B0B5E0B000AF07F5C073A3F5BE7318600D
:101FC0009C480EF01DFD4FF000024FF00003C7E9E2
:101FD00054234FF000024FF00003C7E952234FF0A3
:101FE00000024FF00003C7E95E234FF000024FF0FC
:101FF0000003C7E950230A2387F83F314FF000025E
:102000008D4BC7E94C234FF000028C4BC7E94A23A4
:102010000023A7F874316423C7F870310023C7F890
:1020200024310023C7F86C310023C7F82031102376
:10203000C7F81C310023C7F818314FF000024FF0E9
:102040000003C7E944234FF000024FF00003C7E943
:1020500042234FF000024FF00003C7E94023002362
:10206000C7F8FC304FF000024FF00003C7E93C23F3
:102070000EF0FAFC41F288300AF030F96423C7F818
:10208000703104226E496F480EF0D9FD0346002BD3
:1020900008D10EF0E9FC6C4A6C496D480EF012FD57
:1020A00001F0EDBF6B4B1B68642118460AF0BAF9CA
:1020B0000346002B41F0E2870422614961480EF09B
:1020C000BEFD0346002B0CD10EF0CEFC5E4A5F49EC
:1020D0005F480EF0F7FC4FF4FA700AF0FFF800F0DA
:1020E000A9BD032256495C480EF0A9FD0346002B0A
:1020F00012D10EF0B9FC544A544955480EF0E2FC96
:10210000FFF79AF864200AF0E9F8544A4F494C481E
:102110000EF0D8FC00F08EBD0522494950480EF063
:102120008EFD0346002B40F0A7804E4944480EF038
:10213000C3FD0346002B00F09F804148FEF72CFFB3
:1021400003465B421846FEF7EDF902460B46C7E927
:1021500050230023C7F82431C823C7F87031424BFD
:10216000D3E90001D7E95023FEF790F802460B4669
:1021700014461D46D7F82401FEF7D4F902460B4653
:1021800020462946FEF782F802460B46C7E954234B
:102190002D4A2E492E480EF095FC0EF049FC0A20DF
:1021A0000AF09CF8D7F87031304A314928480EF0CF
:1021B00089FC1FE04FF000022E4BD7E95401FEF7D7
:1021C00065F802460B4610461946274BD3E9002313
:1021D000FEF7A2FC0346002B09D01E23C7F870317E
:1021E000D7F87031214A224919480EF06BFC0320C0
:1021F0000AF074F81C4BD3E90023D7E95401FEF729
:102200006DFC0346002BD5D10EF02EFC0E4A0F4973
:102210000F480EF057FC114A0C4909480EF052FCC9
:10222000C8200AF05BF8FEF7BFFF64200AF056F8FA
:1022300000F000BDA40400200080414000002E40BA
:1022400008000020B03B010878000020F03A0108A7
:102250009C000020C0050020B83B0108CC000020F5
:10226000BC3B0108C43B0108F001002048000020ED
:10227000CC3B0108000024400422AE49AE480EF0D9
:10228000DEFC0346002B40F08480AC49A9480EF0E8
:1022900013FD0346002B7CD0A648FEF77DFE0346C7
:1022A0001846FEF73FF902460B46C7E95023C823FC
:1022B000C7F870314FF0FF33C7F82431A04BD3E992
:1022C0000001D7E95023FDF7E1FF02460B46144613
:1022D0001D46D7F82401FEF725F902460B46204695
:1022E0002946FDF7D3FF02460B46C7E95423954A1A
:1022F000954996480EF0E6FB0EF0A8FB0A2009F07F
:10230000EDFFD7F87031924A924990480EF0DAFB0F
:102310001FE04FF00002904BD7E95401FDF7B4FFE6
:1023200002460B4610461946854BD3E90023FEF7BB
:10233000D5FB0346002B09D01423C7F87031D7F81A
:102340007031834A834981480EF0BCFB032009F0B9
:10235000C5FF7B4BD3E90023D7E95401FEF7DCFB33
:102360000346002BD5D10EF07FFB764A764977489D
:102370000EF0A8FB794A74496E480EF0A3FBC82002
:1023800009F0ACFFFEF710FF642009F0A7FF00F092
:1023900051BC0522674972480EF051FC0346002BE0
:1023A0007DD1704963480EF087FC0346002B76D040
:1023B0006048FEF7F1FD03461846FEF7B3F8024603
:1023C0000B46C7E950230EF04FFB0023C7F824311A
:1023D0005B4BD3E90001D7E95023FDF757FF0246D5
:1023E0000B4614461D46D7F82401FEF79BF802461B
:1023F0000B4620462946FDF749FF02460B46C7E932
:102400005423504A504951480EF05CFB0EF010FB2B
:10241000D7F87031544A4F494C480EF053FB1FE037
:102420004FF00002514BD7E95401FDF72DFF024652
:102430000B4610461946424BD3E90023FEF74EFBEC
:102440000346002B09D01E23C7F87031D7F870312E
:10245000454A40493D480EF035FB032009F03EFF58
:10246000374BD3E90023D7E95401FEF755FB034668
:10247000002BD5D10EF0F8FA324A334933480EF02A
:1024800021FB364A30492B480EF01CFBC82009F0CE
:1024900025FFFEF789FE642009F020FFCAE304222D
:1024A000244925480EF0CBFB0346002B40F0A180C9
:1024B0002C4920480EF000FC0346002B00F09980C8
:1024C0001C48FEF769FD03465B421846FEF72AF8F2
:1024D00002460B46C7E950230923C7F824310EF002
:1024E000C3FA174BD3E90001D7E95023FDF7CEFE1D
:1024F00002460B4614461D46D7F82401FEF712F893
:1025000002460B4620462946FDF7C0FE02460B4612
:10251000C7E954230B4A0C490C480EF0D3FA0EF0CD
:1025200095FAD7F87031124A0A4908480EF0CAFAEB
:1025300040E000BF08000020D43B0108C43B010874
:10254000F001002078000020F03A01089C000020F3
:1025500054000020CC3B010800804140CC0000200A
:10256000BC3B0108DC3B0108900000200000244037
:10257000840000204FF00002BB4BD7E95401FDF767
:1025800085FE02460B4610461946B84BD3E9002398
:10259000FEF7C2FA0346002B09D01E23C7F870319C
:1025A000D7F87031B24AB349B3480EF08BFA032022
:1025B00009F094FEAD4BD3E90023D7E95401FEF7AF
:1025C0008DFA0346002BD5D10EF04EFAAB4AAC493A
:1025D000A9480EF077FAAB4AA949AB480EF072FA57
:1025E000C82009F07BFEFEF7DFFD642009F076FECF
:1025F00020E30622A449A5480EF021FB0346002B48
:1026000040F05281A249A0480EF056FB0346002B31
:1026100000F04A819F4A07F1B80392E8030018606E
:102620000433198007F1BE0300221A605A609A60D1
:10263000DA601A615A61984BC7F8983007F19C0329
:1026400000221A605A609A60DA601A615A611A832D
:102650000023A7F8EE304FF000024FF00003C7E967
:102660005023824BD3E90023D7E95001FDF70EFE3A
:1026700002460B46C7E954238348FEF7C9FC0346CC
:10268000A7F87431794BD3E90001D7E95023FDF75E
:10269000FDFD02460B4614461D46B7F97431184637
:1026A000FDF740FF6EA3D3E90023FDF7A5FF024627
:1026B0000B4620462946FDF7E9FD02460B46C7E9D1
:1026C0005423B7F97431322B06DDB7F87431013B6E
:1026D0009BB2A7F8743105E0B7F87431013B9BB2A7
:1026E000A7F874316D4BD3E90023C7E938236C4B4D
:1026F000D3E90023C7E93623B7F974310A2B02DC8A
:102700000EF0B2F901E00EF0AFF9D7F87031654A7A
:10271000584959480EF0D6F9544BD3E90001D7E98E
:102720005423FDF7B1FD02460B4610461946FEF74D
:1027300013FA0346A7F8EE3057E0B7F97631002BCD
:1027400001D10EF091F9494BD3E90001D7E95423A7
:10275000FDF79AFD02460B4610461946FEF7FCF9B6
:102760000346A7F87631B7F97631002B02DD0EF07B
:1027700089F908E0B7F97631002B02DA0EF090F90A
:1027800001E00EF071F9454B93ED007B444B93ED66
:10279000006B97ED363BB0EE462AF0EE662A97EDD9
:1027A000381BB0EE470AF0EE670AFEF7ADFC55ECB9
:1027B000104BB7F97431143B1846FDF7B3FE0246CF
:1027C0000B4620462946FEF7A7F90346002B09D001
:1027D0002823C7F87031D7F87031324A2549264886
:1027E0000EF070F9062009F079FD2C4B93ED007B7B
:1027F0002B4B93ED006B97ED363BB0EE462AF0EE97
:10280000662A97ED381BB0EE470AF0EE670AFEF72E
:102810007BFC55EC104BB7F974311846FDF782FE7E
:1028200002460B4620462946FEF758F90346002B80
:1028300083D1124A124910480EF044F90F4A104948
:1028400011480EF03FF90EF00FF9C82009F046FDCF
:10285000FEF7AAFC642009F041FDEBE1AFF3008034
:102860003AB4C876BE9F7A3F00002440F0010020B1
:1028700084000020CC3B01089C0000207800002050
:10288000F03A0108CC00002008000020E43B0108D9
:10289000C43B0108403C01086C656674F8010020E7
:1028A00000020020600000200622B549B5480EF065
:1028B000C6F90346002B40F00F81B349B0480EF033
:1028C000FBF90346002B00F007810EF0CDF8002342
:1028D000A7F8D6304FF000024FF00003C7E95023AD
:1028E000A748FEF795FB0346A7F87431A74BD3E939
:1028F0000001D7E95023FDF7C9FC02460B461446F8
:102900001D46B7F974311846FDF70CFE98A3D3E9BC
:102910000023FDF771FE02460B4620462946FDF7CF
:10292000B5FC02460B46C7E95423B7F97431322B84
:1029300013DDB7F974311846FDF7F4FD4FF00002CE
:10294000934BFDF7A1FC02460B4610461946FEF7D5
:1029500003F90346A7F8743112E0B7F97431184649
:10296000FDF7E0FD84A3D3E90023FDF78DFC0246CB
:102970000B4610461946FEF7EFF80346A7F87431E8
:10298000844BD3E90023C7E93823834BD3E90023E1
:10299000C7E93623B7F974310A2B02DC0EF064F86C
:1029A00001E00EF061F8D7F870317C4A7C497D482F
:1029B0000EF088F857E0754BD3E90001D7E95423AE
:1029C000FDF762FC02460B4610461946FEF7C4F8B6
:1029D0000346A7F87631B7F97631002B01D10EF016
:1029E00043F8B7F97631002B02DD0EF059F808E014
:1029F000B7F97631002B02DA0EF044F801E00EF060
:102A000033F8644B93ED007B634B93ED006B97EDD4
:102A1000363BB0EE462AF0EE662A97ED381BB0EE54
:102A2000470AF0EE670AFEF76FFB55EC104BB7F95B
:102A30007431143B1846FDF775FD02460B462046DF
:102A40002946FEF769F80346002B09D02823C7F86A
:102A50007031D7F87031514A514952480EF032F86E
:102A6000062009F03BFC4B4B93ED007B4A4B93ED6A
:102A7000006B97ED363BB0EE462AF0EE662A97EDF6
:102A8000381BB0EE470AF0EE670AFEF73DFB55EC47
:102A9000104BB7F974311846FDF744FD02460B465A
:102AA00020462946FEF71AF80346002B83D10DF085
:102AB000DBFF3D4A3D493B480EF004F83A4A3B49AA
:102AC0002F480DF0FFFF642009F008FCFEF76CFBB7
:102AD000642009F003FCADE00422294934480EF0DB
:102AE000AEF80346002B40F0A580324924480EF092
:102AF000E3F80346002B00F09D802148FEF74CFAD6
:102B000003461846FDF70EFD02460B46C7E9502363
:102B10004FF0FF33C7F824311C4BD3E90001D7E94C
:102B20005023FDF7B3FB02460B4614461D46D7F86B
:102B30002401FDF7F7FC02460B4620462946FDF727
:102B4000A5FB02460B46C7E95423174A1749154807
:102B50000DF0B8FF0DF088FF0A2009F0BFFBD7F891
:102B60007031154A0E490F480DF0ACFF46E000BF2A
:102B7000FCA9F1D24D6240BF9A9999999999D93F90
:102B800008000020E43B0108DC3B0108F0010020C4
:102B900000000440F8010020000200206C0000202A
:102BA000CC3B01089C00002078000020F03A01088E
:102BB000EC3B0108D43B0108F43B01084FF0000254
:102BC000B74BD7E95401FDF75FFB02460B461046B1
:102BD0001946B44BD3E90023FDF780FF0346002BD1
:102BE00009D01E23C7F87031D7F87031AE4AAF490B
:102BF000AF480DF067FF032009F070FBA94BD3E944
:102C00000023D7E95401FDF787FF0346002BD5D1F8
:102C1000A84AA949A6480DF055FFA84AA649A848C0
:102C20000DF050FFC82009F059FBFEF7BDFA6420F3
:102C300009F054FBA34B1A78A14B1B78D31A002B35
:102C400040F0BC8107F5C073A3F582739E4A1A60F9
:102C500000221A7107F5C073A3F584730A221A8043
:102C60009A4BD3E90023C7E94223994BD3E90023C8
:102C7000C7E940238B4BD3E90023C7E95E23002338
:102C8000C7F86C310023C7F86831C823C7F8703122
:102C90000DF0EAFEC82009F021FB8E4B00221A60DD
:102CA0008D4B00221A600EE0D7F86C218B4B1B680D
:102CB0001344C7F86C31D7F868310133C7F868316D
:102CC000642009F00BFBD7F86831042BECDDD7F852
:102CD0006C31834A82FB03125210DB17D31AC7F8F8
:102CE0006C317A4BD3E90023C7E93823784BD3E919
:102CF0000023C7E9362307F5C073A3F58A730022C2
:102D00001A605A601A81D7F86C31724A1360D7F88A
:102D10006C31232B40F3EC80D7F86C319BB2233B12
:102D20009BB2A7F874316423C7F87031D7F87031BB
:102D30006C4A5E495E480DF0C5FE2DE0032009F0A7
:102D4000CDFA55A3D3E90023D7E95E01FDF79EFA3A
:102D500002460B4610461946524BD3E90023FDF7B5
:102D6000BDFE0346002B02D00DF08CFE14E04FF0A8
:102D700000025D4BD7E95E01FDF786FA02460B467D
:102D800010461946474BD3E90023FDF7C5FE03461D
:102D9000002B01D00DF084FE4C4B93ED007B4C4B8F
:102DA00093ED006B97ED363BB0EE462AF0EE662AC7
:102DB00097ED381BB0EE470AF0EE670AFEF7A4F96C
:102DC00055EC104BB7F974311846FDF7ABFB0246D2
:102DD0000B4620462946FDF781FE0346002BADD168
:102DE000344A354932480DF06DFE324A3249344892
:102DF0000DF068FE0023C7F868310EE0D7F86C21AB
:102E0000364B1B681344C7F86C31D7F8683101336F
:102E1000C7F86831642009F061FAD7F86831042BEB
:102E2000ECDDD7F86C312E4A82FB03125210DB170F
:102E3000D31AC7F86C31D7F86C01FDF773FB234B3D
:102E4000D3E90023FDF722FA02460B461046194645
:102E5000FDF782FE0346C7F81831204B1B681E4A57
:102E600013601C4B1A681C4B1B68D31A1A4607F1D7
:102E70006C031E4918460DF025FE07F1780207F194
:102E80006C03114618460DF0CBFE034618460CF0B5
:102E9000C3FE56E0AFF300809A9999999999C93F7A
:102EA00000002440F0010020F43B0108CC3B010865
:102EB0009C00002078000020F03A0108CC0000209F
:102EC00008000020003C010841434B00F8010020AD
:102ED00000020020D8050020DC050020C4050020E9
:102EE00067666666600000200000E03F043C010861
:102EF0004FF4FA7009F0F2F94FF4FA7009F0EEF9B4
:102F0000B54AB649B6480DF0DDFDB34AB349B548F8
:102F10000DF0D8FDB44B1B68B44A136007F16C0385
:102F20001E22B34918460DF0CDFD07F1780207F1D6
:102F30006C03114618460DF073FE034618460CF05C
:102F40006BFED7F86C311E2B17DCD7F86C31192BC0
:102F500013DDD7F87031A74AA749A2480DF0B2FD9A
:102F6000C82009F0BBF99C4A9C499D480DF0AAFD78
:102F7000994A9A499B480DF0A5FDD7F86C31192B59
:102F800000F35286D7F86C31142B40F34D86D7F8F6
:102F90007031984A984993480DF094FD4FF496701B
:102FA00009F09CF98C4A8D498D480DF08BFD8A4AB9
:102FB0008A498C480DF086FD00F036BE0322884910
:102FC0008E480DF03CFE0346002B4FD10023C7F87E
:102FD00024314FF000028A4BC7E95023C823C7F8B9
:102FE0007031C82387F83F310DF030FDD7F87031CC
:102FF000844A81497B480DF065FD4FF4487009F023
:103000006DF90DF031FD642009F068F94FF4FA73A1
:10301000C7F870310DF00CFDD7F870317A4A764957
:1030200070480DF04FFD40F6B83009F057F90DF03B
:103030001BFD4FF4FA7009F051F90DF007FDD7F8B8
:103040007031704A6C4967480DF03CFD4FF4967042
:1030500009F044F9604A614962480DF033FD5E4A67
:103060005E495F480DF02EFD00F0DEBD03225C4995
:1030700066480DF0E4FD0346002B40F0E482002397
:10308000C7F824314FF00002614BC7E95023C82331
:10309000C7F87031C82387F83F310DF0C9FC96237B
:1030A000C7F87031D7F87031574A53494D480DF081
:1030B00009FD02E0032009F011F9D7E95023D7E90F
:1030C0005E01FDF7E3F802460B4610461946514BE8
:1030D000D3E90023FDF702FD0346002BEAD14B2381
:1030E000C7F870310DF0C0FCD7F870314A4A424938
:1030F0003C480DF0E7FC3223A7F87431474BD3E985
:103100000023C7E93823464BD3E90023C7E9362318
:10311000D7E95E23C7E944232DE0032009F0DEF858
:103120004FF000023F4BD7E94401FDF7AFF80246EC
:103130000B4610461946374BD3E90023FDF7CEFC6A
:103140000346002B02D00DF09DFC14E04FF000026E
:10315000344BD7E94401FDF797F802460B46104679
:1031600019462C4BD3E90023FDF7D6FC0346002B70
:1031700001D00DF095FC294B93ED007B284B93ED8E
:10318000006B97ED363BB0EE462AF0EE662A97EDDF
:10319000381BB0EE470AF0EE670AFDF7B5FF55ECB5
:1031A000104BB7F974311846FDF7BCF902460B46CF
:1031B00020462946FDF792FC0346002BADD164233F
:1031C000C7F870310DF034FCD7F87031164A0A494F
:1031D00004480DF077FC2CE078000020F03A01085C
:1031E000080000209C000020C4050020DC05002011
:1031F000043C01086C000020CC3B01080C3C010899
:10320000000034405400002048000020103C010819
:1032100000003EC0F001002060000020F801002006
:10322000000200200000E03F84000020032009F09D
:1032300055F8B74BD3E90023D7E95E01FDF76CFCE5
:103240000346002BF2D10DF00FFCD7F87031B14AD4
:10325000B149B2480DF036FC0623A7F87431B04BE3
:10326000D3E90023C7E93823AE4BD3E90023C7E9EC
:103270003623D7E95E23C7E944232DE0032009F074
:103280002DF84FF00002A84BD7E94401FCF7FEFFF0
:1032900002460B46104619469D4BD3E90023FDF725
:1032A0001DFC0346002B02D00DF0ECFB14E04FF0A8
:1032B00000029D4BD7E94401FCF7E6FF02460B46AE
:1032C00010461946924BD3E90023FDF725FC03462F
:1032D000002B01D00DF0E4FB914B93ED007B914B63
:1032E00093ED006B97ED363BB0EE462AF0EE662A82
:1032F00097ED381BB0EE470AF0EE670AFDF704FFC2
:1033000055EC104BB7F974311846FDF70BF902462E
:103310000B4620462946FDF7E1FB0346002BADD1C5
:103320006423C7F870314FF00002804BC7E9502387
:103330000DF08CFBD7E95023D7E95E01FCF7A6FF1F
:1033400002460B4614461D46D7F82401FDF7EAF85D
:1033500002460B4620462946FCF798FF02460B46DC
:10336000C7E95423D7F87031714A6B496B480DF0A7
:10337000A9FB02E0032008F0B1FF654BD3E900236D
:10338000D7E95401FDF7C8FB0346002BF2D10DF03D
:103390004FFB6423C7F87031D7F87031654A5E4936
:1033A0005E480DF08FFB02E0032008F097FF584BBA
:1033B000D3E90023D7E95E01FDF790FB0346002B1C
:1033C000F2D10DF051FB5C4A5C4954480DF07AFB98
:1033D000594A5A495A480DF075FB0023C7F8643121
:1033E0000023C7F86C310EE0D7F86C21554B1B68F1
:1033F0001344C7F86C31D7F864310133C7F864312E
:10340000642008F06BFFD7F86431042BECDDD7F8AB
:103410006C314D4A82FB03125210DB17D31AC7F8E6
:103420006C313F4BD3E90023C7E938233D4BD3E947
:103430000023C7E93623D7F86C311E2B40F3868072
:10344000D7F86C319BB21E3B9BB2A7F874310DF0DC
:103450000BFBD7F870312F4A2F4930480DF032FB63
:10346000D7E95E23C7E944232DE0032008F036FFA7
:103470004FF000022C4BD7E94401FCF707FF02464E
:103480000B4610461946224BD3E90023FDF726FBD5
:103490000346002B02D00DF0F5FA14E04FF00002C5
:1034A000214BD7E94401FCF7EFFE02460B461046DC
:1034B0001946174BD3E90023FDF72EFB0346002BDB
:1034C00001D00DF0EDFA164B93ED007B154B93ED0B
:1034D000006B97ED363BB0EE462AF0EE662A97ED8C
:1034E000381BB0EE470AF0EE670AFDF70DFE55EC0B
:1034F000104BB7F974311846FDF714F802460B4625
:1035000020462946FDF7EAFA0346002BADD185E0B7
:10351000F001002060000020CC3B01089C0000204E
:10352000F8010020000200200000E03F00004440BD
:10353000540000204800002078000020F03A0108E4
:1035400008000020C405002067666666D7F86C3165
:103550001D2B63DCD7F86C319BB2C3F11E039BB209
:10356000A7F874310DF080FAD7F87031B64AB74930
:10357000B7480DF0A7FA2DE0032008F0AFFE4FF09A
:103580000002B44BD7E94401FCF780FE02460B462B
:1035900010461946B04BD3E90023FDF79FFA0346C6
:1035A000002B02D00DF07CFA14E04FF00002A94B82
:1035B000D7E94401FCF768FE02460B46104619465F
:1035C000A54BD3E90023FDF7A7FA0346002B01D052
:1035D0000DF058FAA14B93ED007BA14B93ED006BDE
:1035E00097ED363BB0EE462AF0EE662A97ED381B93
:1035F000B0EE470AF0EE670AFDF786FD55EC104B7A
:10360000B7F974311846FCF78DFF02460B46204689
:103610002946FDF763FA0346002BADD1914A924942
:103620008B480DF04FFA8F4A8F4990480DF04AFAB7
:103630000DF01AFA74200CF007FB97F83F3118468A
:1036400008F04CFEF0E20322884989480DF0F7FAB1
:103650000346002B75D10023C7F860316423C7F8F7
:103660007031C82387F83F310023C7F86C310DF063
:10367000FBF94B23C7F870310EE0D7F86C217D4B76
:103680001B681344C7F86C31D7F860310133C7F8B1
:103690006031642008F022FED7F86031042BECDDA5
:1036A000D7F86C31744A82FB03125210DB17D31A1D
:1036B000C7F86C31694BD3E90023C7E93823684B5D
:1036C000D3E90023C7E936230A23A7F87431D7F8D2
:1036D00070315D4A5D495E480DF0F4F902E0032067
:1036E00008F0FCFD5D4B93ED007B5D4B93ED006BB3
:1036F00097ED363BB0EE462AF0EE662A97ED381B82
:10370000B0EE470AF0EE670AFDF7FEFC55EC104BF1
:10371000B7F974311846FCF705FF02460B46204600
:103720002946FDF7DBF90346002BD8D14D4A4E4917
:1037300047480DF0C7F94B4A4B494C480DF0C2F9C8
:1037400072E24E4B1A78494B1B78D31A002B4ED19C
:1037500007F5C073A3F58E73494A1A6000221A71E7
:1037600007F5C073A3F590730A221A8007F5C0739A
:10377000A3F5967300221A605A601A810DF074F94D
:103780004FF47A7008F0AAFD032008F0A7FD0CE0C2
:10379000C823C7F87031D7F870313A4A2B492C4802
:1037A0000DF090F9032008F099FD374B1B68B3F535
:1037B000E16FEDD82B4A2C4925480DF083F9294AB1
:1037C00029492A480DF07EF907F154032F4918467C
:1037D0000DF078F907F1600207F15403114618461D
:1037E0000DF01EFA034618460CF016FA1CE2284BA0
:1037F0001A781E4B1B78D31A002B40F0A58007F5D2
:10380000C073A3F59A731E4A1A6000221A7107F555
:10381000C073A3F59C730A221A8007F5C073A3F541
:10382000A27300221A605A601A810B4BD3E900235D
:10383000C7E95E230DF018F94FF47A7008F04EFDD9
:10384000032008F04BFD5DE06C000020CC3B01083C
:103850009C0000200000E03FF0010020F801002063
:103860000002002078000020F03A01080800002043
:10387000143C0108C405002067666666183C010810
:1038800041434B0060000020D00500201C3C010893
:10389000203C01086423C7F87031D7F87031984A8A
:1038A000984999480DF00EF9032008F017FD92A3EE
:1038B000D3E90023D7E95E01FCF7E8FC02460B469A
:1038C00010461946914BD3E90023FDF707F903464B
:1038D000002B02D00DF0D6F814E04FF000028C4B14
:1038E000D7E95E01FCF7D0FC02460B4610461946AC
:1038F000864BD3E90023FDF70FF90346002B01D0D7
:103900000DF0CEF8834B1B68B3F5E16FC2D8824A45
:1039100082497D480DF0D6F87F4A804980480DF0F5
:10392000D1F807F13C037F4918460DF0CBF807F1B9
:10393000480207F13C03114618460DF071F90346A1
:1039400018460CF069F96FE1774B1A78744B1B78C5
:10395000D31A002B40F0688107F5C073A3F5A67356
:10396000724A1A6000221A7107F5C073A3F5A87392
:103970000A221A8007F5C073A3F5AE7300221A60FD
:103980005A601A816A4BD3E90023C7E94223694B85
:10399000D3E90023C7E940235C4BD3E90023C7E9FF
:1039A0005E230023C7F86C310023C7F85C31C823BD
:1039B000C7F870310DF058F8C82008F08FFC0EE001
:1039C000D7F86C215C4B1B681344C7F86C31D7F8EF
:1039D0005C310133C7F85C31642008F07FFCD7F814
:1039E0005C31042BECDDD7F86C31544A82FB0312B6
:1039F0005210DB17D31AC7F86C314D4BD3E90023B3
:103A0000C7E938234B4BD3E90023C7E93623D7F85E
:103A10006C310F2B40F3E480D7F86C319BB20F3B35
:103A20009BB2A7F87431D7F87031354A354936481A
:103A30000DF048F82DE0032008F050FC2EA3D3E948
:103A40000023D7E95E01FCF721FC02460B46104635
:103A500019462E4BD3E90023FDF740F80346002B0F
:103A600002D00DF00FF814E04FF00002284BD7E918
:103A70005E01FCF709FC02460B4610461946234B33
:103A8000D3E90023FDF748F80346002B01D00DF0E1
:103A900007F8274B93ED007B264B93ED006B97EDDA
:103AA000363BB0EE462AF0EE662A97ED381BB0EEB4
:103AB000470AF0EE670AFDF727FB55EC104BB7F904
:103AC00074311846FCF72EFD02460B462046294667
:103AD000FDF704F80346002BADD10F4A0F490A4801
:103AE0000CF0F0FF0C4A0D490D480CF0EBFF0023E1
:103AF000C7F85C3133E000BF9A9999999999C93F09
:103B000060000020CC3B01089C000020F001002058
:103B10000000E03FD405002078000020F03A0108C2
:103B2000080000201C3C0108243C010841434B00D4
:103B3000F801002000020020C405002067666666C8
:103B4000D7F86C21AA4B1B681344C7F86C31D7F81F
:103B50005C310133C7F85C31642008F0BFFBD7F853
:103B60005C31042BECDDD7F86C31A24A82FB0312E6
:103B70005210DB17D31AC7F86C31D7F86C01FCF779
:103B8000D1FC9D4BD3E90023FCF780FB02460B469A
:103B900010461946FCF7E0FF0346C7F8183107F155
:103BA0002403964918460CF08DFF07F1300207F107
:103BB0002403114618460DF033F8034618460CF05E
:103BC0002BF84FF4FA7008F089FB8D4A8D498E4826
:103BD0000CF078FF8A4A8B498C480CF073FF23E085
:103BE0004FF4FA7008F07AFB07F124038349184672
:103BF0000CF068FF07F1300207F124031146184664
:103C00000DF00EF8034618460CF006F84FF4FA7063
:103C100008F064FB7A4A7B497B480CF053FF784AF2
:103C200078497A480CF04EFF794B1A78764B1B781E
:103C3000D31A002B40F06E8107F5C073A3F5B27361
:103C4000744A1A6000221A7107F5C073A3F5B473A1
:103C50000A221A80684BD3E90023C7E942236E4B3E
:103C6000D3E90023C7E940236C4BD3E90023C7E91C
:103C70005E230023C7F86C310023C7F85831C823EE
:103C8000C7F870310CF0F0FEC82008F027FB644B39
:103C900000221A60634B00221A600EE0D7F86C21F4
:103CA000534B1B681344C7F86C31D7F858310133B4
:103CB000C7F85831642008F011FBD7F85831042BAD
:103CC000ECDDD7F86C314B4A82FB03125210DB1744
:103CD000D31AC7F86C31484BD3E90023C7E938231E
:103CE0004D4BD3E90023C7E9362307F5C073A3F58D
:103CF000BA7300221A605A601A81D7F86C31412BCE
:103D000040F3DE80D7F86C319BB2413B9BB2A7F801
:103D100074316423C7F87031D7F87031424A43498F
:103D20003A480CF0CFFE2DE0032008F0D7FA2EA37E
:103D3000D3E90023D7E95E01FCF7A8FA02460B4657
:103D400010461946354BD3E90023FCF7C7FE03465E
:103D5000002B02D00CF096FE14E04FF00002344B22
:103D6000D7E95E01FCF790FA02460B461046194669
:103D70002A4BD3E90023FCF7CFFE0346002B01D0EA
:103D80000CF08EFE1C4B93ED007B234B93ED006BF0
:103D900097ED363BB0EE462AF0EE662A97ED381BDB
:103DA000B0EE470AF0EE670AFDF7AEF955EC104B9E
:103DB000B7F974311846FCF7B5FB02460B462046AE
:103DC0002946FCF78BFE0346002BADD10C4A0D496A
:103DD0000E480CF077FE0A4A0A490B480CF072FEB6
:103DE0000023C7F8583134E09A9999999999C93FB5
:103DF000C405002067666666F80100201C3C0108C7
:103E000078000020F03A0108080000209C00002003
:103E1000283C010841434B0000020020F001002033
:103E2000D8050020DC05002060000020CC3B010804
:103E30000000E03FD7F86C21924B1B681344C7F891
:103E40006C31D7F858310133C7F85831642008F085
:103E500045FAD7F85831042BECDDD7F86C318A4A93
:103E600082FB03125210DB17D31AC7F86C31D7F854
:103E70006C01FCF757FB854BD3E90023FCF706FAEE
:103E800002460B4610461946FCF766FE0346C7F885
:103E900018317C4B1B687E4A136007F10C037D4987
:103EA00018460CF00FFE07F1180207F10C0311463B
:103EB00018460CF0B5FE034618460BF0ADFED0E0F8
:103EC0004FF4FA7008F00AFA4FF4FA7008F006FAA4
:103ED000714A724972480CF0F5FD6F4A6F4971489A
:103EE0000CF0F0FD674B1B68694A136007F10C0387
:103EF0001E226D4918460CF0E5FD07F1180207F186
:103F00000C03114618460CF08BFE034618460BF0C6
:103F100083FEA6E00322624964480CF090FE03464B
:103F2000002B40F086800023C7F824314FF00002B8
:103F30005F4BC7E95023C823C7F870310CF094FDDC
:103F40004FF47A7008F0CAF9032008F0C7F90CE0C2
:103F5000C823C7F87031D7F87031564A56495148CE
:103F60000CF0B0FD032008F0B9F9D7F82031B3F513
:103F7000E16FEDDC484A49494A480CF0A3FD464A46
:103F8000464947480CF09EFD4FF47A7008F0A6F9B8
:103F9000C823C7F870310CF059FDD7F87031474A83
:103FA000454940480CF08EFD40F2145008F096F957
:103FB000394A3A493B480CF085FD374A3749384879
:103FC0000CF080FD0CF050FD4FF47A7008F086F98B
:103FD000D7F870313A4A384932480CF073FD4FF443
:103FE000C87008F07BF92C4A2C492E480CF06AFD69
:103FF000294A2A492A480CF065FD4FF47A7008F0E6
:104000006DF90CF023FDD7F870312C4A2A49254868
:104010000CF058FD4FF4966008F060F91E4A1F49F5
:1040200020480CF04FFD1C4A1C491D480CF04AFD6D
:1040300017E00D221A4923480CF001FE0346002B1D
:104040000CD1FDF73DF9144A144916480CF03AFD1D
:10405000114A124912480CF035FD02E0642008F0C4
:104060003DF9194B1B68184608F02EFA174B012230
:104070001A60642008F032F9FEF700B800BFFDF7BF
:10408000FDBF00BFC405002067666666F80100201A
:10409000DC0500201C3C010878000020F03A0108F3
:1040A000080000209C000020043C01082C3C010872
:1040B0000000344060000020CC3B01085400002088
:1040C0006C000020303C0108C005002008020020E0
:1040D0002DE9F0439DB000AF78600A23FB644FF0F8
:1040E0000002AD4BC7E91A234FF00002AA4BC7E903
:1040F00018234FF00002A94BC7E91023D7E910237A
:10410000C7E90E23A0A3D3E90023D7E91001FCF7E8
:1041100073FA02460B46C7E90C234FF00002A04B8E
:10412000D7E91001FCF768FA02460B46C7E90A23F3
:104130004FF000029B4BC7E908234FF000024FF0FD
:104140000003C7E906234FF000024FF00003C7E960
:1041500016234FF000024FF00003C7E904234FF08D
:1041600000024FF00003C7E914236423FB7309F036
:1041700073FE0346BB608C4BD3E90023144623F047
:10418000004522462B46D7E91A01FCF77DF8024686
:104190000B46C7E90623D7E90623D7E90E01FCF74A
:1041A0002BFA02460B468149C1E90023D7E90C23CB
:1041B000D7E90601FCF720FA02460B4610461946DD
:1041C000D7E90823FCF718FA02460B4610461946B1
:1041D000774BD3E90023FCF759F802460B467449A4
:1041E000C1E90023D7E91623D7E90601FCF74CF80B
:1041F00002460B4610461946D7E90A23FCF7FCF99C
:1042000002460B4610461946D7E90823FCF71EFB69
:1042100002460B466749C1E90023D7E90623C7E9EF
:104220001623624BD3E90001614BD3E90023FCF76D
:104230002DF802460B46104619465E4BD3E9002383
:10424000FCF724F802460B46104619465A4BD3E9B0
:104250000023FCF71BF802460B465749C1E900232F
:10426000554BD3E900014AA3D3E90023FCF754FCE2
:104270000346002B05D0504945A3D3E90023C1E9EB
:1042800000234D4BD3E900014FF000024FF0000333
:10429000FCF724FC0346002B06D047494FF00002F0
:1042A0004FF00003C1E900233F4BD3E902239046BE
:1042B00023F0004942464B46D7E91801FBF7E4FFDB
:1042C00002460B46C7E90423D7E90423D7E90E01C8
:1042D000FCF792F902460B463849C1E90023D7E9B9
:1042E0000C23D7E90401FCF787F902460B46104678
:1042F0001946D7E90823FCF77FF902460B4610461A
:1043000019462F4BD3E90023FBF7C0FF02460B46AB
:104310002B49C1E90023D7E91423D7E90401FBF7AE
:10432000B3FF02460B4610461946D7E90A23FCF7AD
:1043300063F902460B4610461946D7E90823FCF7F5
:1043400085FA02460B461F49C1E90023D7E9042339
:10435000C7E91423194BD3E90001194BD3E9002312
:10436000FBF794FF02460B4610461946154BD3E95E
:104370000023FBF78BFF02460B4610461946124BF3
:1043800024E000BFAFF30080FCA9F1D24D62503FA2
:10439000000000000070A7400000F03F000049400E
:1043A0000000044000002440B801002088010020E3
:1043B000900100209801002078010020A001002039
:1043C000A8010020B001002080010020D3E90023D3
:1043D000FBF75CFF02460B46A149C1E90023A04B55
:1043E000D3E900019AA3D3E90023FCF795FB034628
:1043F000002B05D09A4996A3D3E90023C1E90023F5
:10440000974BD3E900014FF000024FF00003FCF797
:1044100065FB0346002B06D091494FF000024FF098
:104420000003C1E9002307228E498F480CF007FCE6
:104430000346002B53D18C48FCF726FE0346FB7342
:10444000FB7B1846FCF76EF84FF03332874BFCF7D6
:10445000D3F802460B46104619464FF00002844B33
:10446000FCF7F4F902460B46C7E91A234FF00002A5
:104470004FF00003C7E918237E4BD3E90023104611
:104480001946FCF769FB03461846FCF74BF84FF05A
:104490000002794BFCF7B0F802460B46104619466D
:1044A000FCF75AFB06466E4BD3E90023104619462B
:1044B000FCF752FB03461846FCF734F866A3D3E931
:1044C0000023FCF799F802460B4610461946FCF704
:1044D00043FB0346194630460BF00CFF78E20622F8
:1044E000664961480CF0ABFB0346002B53D15E4894
:1044F000FCF7CAFD0346FB734FF000024FF00003C8
:10450000C7E91A23FB7B1846FCF70CF84FF033324F
:10451000564BFCF771F802460B46104619464FF011
:104520000002534BFCF792F902460B46C7E91823E9
:10453000504BD3E9002310461946FCF70DFB034608
:104540001846FBF7EFFF44A3D3E90023FCF754F828
:1045500002460B4610461946FCF7FEFA0646404B4B
:10456000D3E9002310461946FCF7F6FA034618462D
:10457000FBF7D8FF4FF000023F4BFCF73DF8024637
:104580000B4610461946FCF7E7FA03461946304633
:104590000BF0B0FE1CE20422394933480CF04FFB0B
:1045A0000346002B6ED13048FCF76EFD0346FB73CB
:1045B0004FF000024FF00003C7E91A23FB7B1846B7
:1045C000FBF7B0FF4FF03332284BFCF715F80246EB
:1045D0000B46104619464FF00002254BFCF736F902
:1045E00002460B46C7E91823224BD3E900231046A5
:1045F0001946FCF7B1FA03461846FBF793FF16A3DA
:10460000D3E90023FBF7F8FF02460B461046194694
:10461000FCF7A2FA0646124BD3E9002310461946CE
:10462000FCF79AFA03461846FBF77CFF4FF00002AE
:10463000114BFBF7E1FF02460B4610461946FCF70B
:104640008BFA0346194630460BF012FEC0E100BF5C
:10465000000000000070A7409A9999999999A93F84
:1046600080010020603C01089C0000203333F33FB0
:1046700000005940780100200000E03F683C01083C
:10468000D43B01080522B249B2480CF0D8FA0346DF
:10469000002B53D1AF48FCF7F7FC0346FB73FB7BC1
:1046A0001846FBF73FFF4FF03332AB4BFBF7A4FF4D
:1046B00002460B46104619464FF00002A74BFCF786
:1046C000C5F802460B46C7E91A234FF000024FF027
:1046D0000003C7E91823A24BD3E90023104619466B
:1046E000FCF73AFA03461846FBF71CFF4FF00002AE
:1046F0009C4BFBF781FF02460B4610461946FCF720
:104700002BFA0646984BD3E9002310461946FCF7CE
:1047100023FA03461846FBF705FF87A3D3E90023D6
:10472000FBF76AFF02460B4610461946FCF714FADF
:104730000346194630460BF09BFD49E107228B49A1
:1047400084480CF07CFA0346002B4AD18148FCF7E0
:104750009BFC0346FB73FA7B13465B001344844ABD
:1047600082FB03125211DB17D31A1846FBF7DAFE4D
:1047700002460B46C7E91A23FA7B13465B00134433
:104780007B4A82FB03125211DB17D31A1846FBF740
:10479000C9FE02460B46C7E91823714BD3E9002333
:1047A00010461946FCF7D8F906466F4BD3E90023AB
:1047B00010461946FCF7D0F903461846FBF7B2FE3F
:1047C0005FA3D3E90023FBF717FF02460B46104611
:1047D0001946FCF7C1F90346194630460BF08AFD2D
:1047E000F6E0072263495B480CF029FA0346002BE8
:1047F00052D15848FCF748FC0346FB73FB7B184634
:10480000FBF790FE02460B46FBF740FD02460B46C7
:10481000104619464FF00002504BFCF717F80246BD
:104820000B46C7E91A23FB7B1846FBF77BFE0246C3
:104830000B46FBF72BFD02460B46104619464FF080
:104840000002464BFCF702F802460B46C7E9182364
:10485000434BD3E9002310461946FCF77DF9034684
:104860001846FBF75FFE38A3D3E90023FBF7C4FE2D
:1048700002460B4610461946FCF76EF906463A4BBF
:10488000D3E9002310461946FCF766F9034619469A
:1048900030460BF0EDFC9BE0092237492D480CF027
:1048A000CEF90346002B69D12A48FCF7EDFB0346FD
:1048B000FB73FB7B1846FBF735FE02460B46FBF706
:1048C000E5FC02460B46104619464FF00002234B0A
:1048D000FBF7BCFF02460B46C7E91A23FB7B1846D1
:1048E000FBF720FE02460B46FBF7D0FC02460B46C8
:1048F000104619464FF00002184BFBF7A7FF02467F
:104900000B46C7E91823164BD3E900231046194676
:10491000FCF722F90346002118460BF0EBFC124B82
:10492000D3E9002310461946FCF716F90346194649
:1049300000200BF09DFC4BE09A9999999999A93F19
:10494000C3F5285C8FC2ED3F9EEFA7C64B37ED3F06
:10495000BC3B01089C0000203333F33F000059406A
:10496000780100200000E03F80010020DC3B0108CE
:104970001F85EB51C43B0108F43B01080422184990
:1049800018480CF05CF90346002B21D116494FF072
:1049900000024FF00003C1E9002314494FF0000268
:1049A0004FF00003C1E900230F4BD3E90023104669
:1049B0001946FCF7D1F806460C4BD3E90023104604
:1049C0001946FCF7C9F80346194630460BF050FC6F
:1049D00007F10803F96C184609F074F8FFF7C7BB34
:1049E000B03B01089C0000207801002080010020DD
:1049F00080B582B000AF78600BF07AF80BF0A0F8C9
:104A00000346034A1360C82007F068FC00BFF3E7C1
:104A1000C405002080B582B000AF7860194B1B68D8
:104A20000133184A1360184B1B686421184607F0BD
:104A3000F9FC0346002B20D1144B1B680133134AA9
:104A4000136013480BF014F9124B00221A60104B3C
:104A50001B78002B09D0104B1B6801330E4A1360E2
:104A60000B4A0E490E480CF02DF8074B1B681846F0
:104A700007F02AFD074B01221A60642007F02EFC84
:104A8000CCE700BF0C020020C0050020100200206F
:104A9000280000200802002014020020F03A01083B
:104AA0000800002000000000B0B584B000AF7860BE
:104AB0004FF07E53FB60584B1B686421184607F08B
:104AC000B1FC0346002B40F09C8054480BF054FC92
:104AD000514B1B68184607F0F7FC504BD3E90845CB
:104AE0004F4BD3E9000148A3D3E90023FBF784FD32
:104AF00002460B46104619464FF00002494BFBF7A1
:104B0000A5FE02460B4643EC172BB0EE470AF0EE2B
:104B1000670A0CF011FE53EC102B20462946FBF7D8
:104B20006BFD02460B461046194639A3D3E9002314
:104B3000FBF762FD02460B4614461D46F868FBF77C
:104B400003FD02460B4620462946FBF755FD02466B
:104B50000B4610461946344BD3E90023FBF796FB6E
:104B600002460B463049C1E900232C4BD3E90845E6
:104B70002B4BD3E9000124A3D3E90023FBF73CFD31
:104B800002460B46104619464FF00002254BFBF734
:104B90005DFE02460B4643EC172BB0EE470AF0EEE3
:104BA000670A0CF019FE53EC102B20462946FBF740
:104BB00023FD02460B461046194615A3D3E90023F0
:104BC000FBF71AFD02460B4614461D46F868FBF734
:104BD000BBFC02460B4620462946FBF70DFD02466C
:104BE0000B4610461946114BD3E90023FBF74EFB49
:104BF00002460B460D49C1E90023052007F06EFB74
:104C000059E700BF57E700BF182D4454FB21094066
:104C100014AE47E17A14F63FB8050020B801002031
:104C2000F001002000806640F80100200002002012
:104C3000B0B588B000AF78600523FB6129480BF060
:104C400031F8294BD3E900014FF00002274BFBF765
:104C50001DFB02460B462449C1E9002309F0FCF87C
:104C60000346FB6022480BF0F1F90346214A13602A
:104C70001F4BB3F90C301846FBF754FC1E4BD3E91D
:104C80000023FBF701FB02460B46C7E904233C69FE
:104C90007B6923F000454FF00002184B204629465F
:104CA000FBF73AFF0346002B14D04FF00002144BE1
:104CB000D7E90401FBF7CAFD02460B461046194628
:104CC000094BD3E90023FBF7E1FA02460B460649FC
:104CD000C1E9002307F10C03F969184608F0F2FE58
:104CE000BCE700BFE8020020F001002000003140D6
:104CF000E001002004000020E0000020000020402F
:104D000000408F4000000000B0B5AEB000AF78604A
:104D100000BF0522A849A9480BF091FF0346002BCC
:104D2000F7D14FF4FA6007F0D9FAA54A07F1440326
:104D30001268114619800233120C1A70A14A07F149
:104D400040031268114619800233120C1A709E4BF0
:104D50001B686421184607F065FB0346002B12D13F
:104D60009A494FF000024FF00003C1E9042397492C
:104D70004FF000024FF00003C1E90623924B1B687D
:104D8000184607F0A1FB642007F0A8FA07F12C03EE
:104D900000221A605A609A60DA601A610A233B8521
:104DA0008B4BD3E90023C7E926238A4BD3E90023A1
:104DB000C7E92423884BD3E90023C7E92223002332
:104DC000C7F8B4300023C7F8B0306423C7F8AC305C
:104DD0000023C7F884300023C7F880300023FB6726
:104DE0000BF042FEC82007F079FA0023C7F8B43070
:104DF0000023C7F8B0300EE0D7F8B420774B1B681B
:104E00001344C7F8B430D7F8B0300133C7F8B03026
:104E1000642007F063FAD7F8B030042BECDDD7F844
:104E2000B4306F4A82FB03125210DB17D31AC7F853
:104E3000B430674BD3E90023C7E91C23654BD3E9A2
:104E40000023C7E91A23D7F8B430C7F88430D7F85D
:104E5000B430232B40F3D480D7F8B430233BFB6726
:104E60006423C7F8AC30D7F8AC305E4A5E495F487F
:104E70000BF028FE2DE0032007F030FA4CA3D3E915
:104E80000023D7E92201FBF701FA02460B46104640
:104E90001946514BD3E90023FBF720FE0346002BB4
:104EA00002D00BF0EFFD14E04FF00002504BD7E9B9
:104EB0002201FBF7E9F902460B4610461946464B1C
:104EC000D3E90023FBF728FE0346002B01D00BF0AB
:104ED000E7FD3F4B93ED007B3E4B93ED006B97ED71
:104EE0001A3BB0EE462AF0EE662A97ED1C1BB0EE98
:104EF000470AF0EE670AFCF707F955EC104BF86F1C
:104F0000FBF710FB02460B4620462946FBF7E6FD61
:104F10000346002BAFD1374A374934480BF0D2FD56
:104F2000344A354925480BF0CDFDC82007F0D6F9A5
:104F30000023C7F8B4300023C7F8B0300EE0D7F82C
:104F4000B420264B1B681344C7F8B430D7F8B030F0
:104F50000133C7F8B030642007F0C0F9D7F8B0309B
:104F6000042BECDDD7F8B4301D4A82FB031252103B
:104F7000DB17D31AC7F8B430184B1B68C7F880305A
:104F8000D7F88420D7F88030D21A07F12C031B49B8
:104F900018460BF097FD07F1280207F12C03114684
:104FA00018460BF03DFE034618460AF035FE4CE06D
:104FB0009A9999999999C93F703C01080800002075
:104FC000F03D0108F43D0108B8050020B8010020BB
:104FD000F801002000020020F0010020C40500209C
:104FE0006766666660000020CC3B01089C000020DC
:104FF0000000E03F78000020F03A0108043C01087E
:105000004FF47A7007F06AF98F4A904990480BF094
:1050100059FD8D4A8D498F480BF054FD8E4B1B680E
:10502000C7F8803007F12C031E228C4918460BF07C
:1050300049FD07F1280207F12C03114618460BF031
:10504000EFFD034618460AF0E7FDD7F8B4301E2BF3
:1050500017DCD7F8B430192B13DDD7F8AC30804A01
:1050600080497C480BF02EFDC82007F037F9764ABE
:10507000764977480BF026FD734A744975480BF062
:1050800021FDD7F8B430192B18DCD7F8B430142B25
:1050900014DDD7F8AC30724A72496E480BF012FD3D
:1050A0004FF4967007F01AF9674A684968480BF0A0
:1050B00009FD654A654967480BF004FD6A4B93EDAD
:1050C000007B6A4B93ED006B97ED243BB0EE462AD4
:1050D000F0EE662A97ED261BB0EE470AF0EE670A5F
:1050E000FCF712F853EC102B10461946FBF734FD71
:1050F00003465F4A13605E4B1B685E4A136007F10C
:105100000803D7F8B4205C4918460BF0DBFC07F124
:1051100008031A460A210A200BF0B2FB0BF036FAFC
:105120004FF4FA7007F0DAF8544B4C221A706420EE
:1051300007F0D4F8524BD3E90023C7E918234F4BAB
:105140001B78522B20D14F4941480BF0BBFC4FF448
:10515000FA6007F0C3F84C493D480BF0B3FC40F649
:10516000C41007F0BBF8474939480BF0ABFC4FF4CB
:10517000FA6007F0B3F8454935480BF0A3FC4FF44B
:10518000FA7007F0ABF82BE03C4B1B784C2B27D187
:105190003F492F480BF096FC4FF4FA6007F09EF859
:1051A0003C492B480BF08EFC4FF4FA6007F096F860
:1051B000394927480BF086FC40F6C41007F08EF8FA
:1051C000364923480BF07EFC4FF4FA6007F086F86E
:1051D0002E491F480BF076FC4FF4FA7007F07EF86A
:1051E00007F1440318460AF017FD4FF4FA7007F070
:1051F00075F82B4B1B686421184607F013F903461A
:10520000002B12D127494FF000024FF00003C1E9F3
:10521000042324494FF000024FF00003C1E90623A4
:105220001F4B1B68184607F04FF91F4B01221A60ED
:105230001E4B01221A601E4B1C221A60154904489D
:105240000BF040FC39E000BF78000020F03A010884
:10525000080000209C000020C4050020043C010838
:105260006C000020CC3B0108F80100200002002067
:105270002002002024020020783C0108C400002005
:10528000F0010020843C0108983C0108B03B010873
:10529000AC3C0108C03C0108D83C0108EC3C0108CA
:1052A000B8050020B8010020380200203C02002090
:1052B000C8000020322007F011F8AB4B1B68023306
:1052C0001A46AA4B1B689A42F4D3A949A9480BF085
:1052D000F9FB4FF4FA7007F001F8A74B00221A60AF
:1052E000A64B00221A60A64B1B686421184607F0E3
:1052F00099F80346002B3ED1A24B1B681846FBF7DA
:1053000011F9A14BD3E90423FAF7C0FF02460B467B
:1053100010461946FBF720FC03469A4A13609B4B44
:105320001B681846FBF7FEF8974BD3E90623FAF7FC
:10533000ADFF02460B4610461946FBF70DFC03462F
:10534000924A1360904BD3E9042310461946FBF7A9
:1053500003FC03468E4A13608B4BD3E906231046A9
:105360001946FBF7F9FB03468A4A1360844B1B6816
:10537000184607F0A9F8884B52221A70642006F0EC
:10538000ADFF864BD3E90023C7E91823824B1B7876
:10539000522B54D1824977480BF094FB40F6B83039
:1053A00006F09CFF724973480BF08CFB4FF4FA70C7
:1053B00006F094FF7B496F480BF084FB4FF4FA60D2
:1053C00006F08CFF6A496B480BF07CFB4FF4FA70D7
:1053D00006F084FF744967480BF074FB642006F004
:1053E0007DFF724963480BF06DFB41F2883006F097
:1053F00075FF5F495F480BF065FB4FF4FA7006F0EC
:105400006DFF6B4B00221A606A4B00221A606A49DA
:1054100058480BF057FB642006F060FF6749554879
:105420000BF050FB40F6B83006F058FF5049514899
:105430000BF048FB4FF4FA7006F050FF57E0564B64
:105440001B784C2B53D15E494A480BF03BFB40F68E
:10545000B83006F043FF464946480BF033FB4FF4A3
:10546000FA7006F03BFF4F4942480BF02BFB4FF41C
:10547000FA6006F033FF3E493E480BF023FB4FF441
:10548000FA7006F02BFF4C493A480BF01BFB6420E6
:1054900006F024FF4B4937480BF014FB41F28830EB
:1054A00006F01CFF324933480BF00CFB4FF4FA7046
:1054B00006F014FF3E4B00221A603E4B00221A6099
:1054C00039492C480BF0FEFA642006F007FF3E49EC
:1054D00028480BF0F7FA40F6B83006F0FFFE2449F2
:1054E00024480BF0EFFA4FF4FA7006F0F7FE294B60
:1054F0001A68274B1B681344DA0F13445B1003F53B
:1055000059531333FB65F86DFBF70CF814A3D3E97B
:105510000023FBF79BF902460B46104619464FF055
:1055200000022A4BFAF7B0FE02460B461046194617
:10553000FBF712FB0346BB65104B01221A60BA6DE4
:1055400023490C480BF0BEFA224BD3E90023C7E9EC
:105550001423214BD3E90023C7E9122341E000BF04
:105560006666666666E65240C8000020C4050020F4
:10557000B03B010808000020380200203C02002057
:10558000B805002018020020B80100201C020020ED
:10559000280200202C020020C4000020F00100207E
:1055A000003D0108143D0108183C0108283D010890
:1055B0003002002034020020203C01083C3D01085C
:1055C000503D0108643D01087C3D01080040554004
:1055D000903D0108F801002000020020322006F072
:1055E0007DFE704B93ED007B6F4B93ED006B97ED61
:1055F000123BB0EE462AF0EE662A97ED141BB0EE91
:10560000470AF0EE670AFBF77FFD55EC104BB86DCB
:10561000FAF788FF02460B4620462946FBF75EFA5A
:105620000346002BDAD1614961480BF04BFA4FF485
:10563000FA7006F053FE5F4B00221A605E4B1B7837
:10564000522B40D15D495A480BF03CFA40F6C41049
:1056500006F044FE554956480BF034FA4FF4FA7000
:1056600006F03CFE564B1A681346DB009B1AC7F83F
:10567000A830D7F8A830372B02DD3723C7F8A83079
:10568000D7F8A8204F494A480BF01CFA40F6B8302A
:1056900006F024FE454946480BF014FA4FF4FA7020
:1056A00006F01CFE484942480BF00CFA40F6C410C4
:1056B00006F014FE3D493E480BF004FA4FF4FA7030
:1056C00006F00CFE43E03C4B1B784C2B3FD13E498F
:1056D00037480BF0F7F940F6C41006F0FFFD3349E8
:1056E00033480BF0EFF94FF4FA7006F0F7FD344B46
:1056F0001A681346DB009B1AC7F8A430D7F8A43009
:10570000372B02DD3723C7F8A430D7F8A4202D4962
:1057100027480BF0D7F940F6B83006F0DFFD2349F3
:1057200023480BF0CFF94FF4FA7006F0D7FD234968
:105730001F480BF0C7F940F6C41006F0CFFD1B4917
:105740001B480BF0BFF94FF4FA7006F0C7FD1F4B72
:1057500001221A60174B01221A601D4B16221A6093
:105760001C4913480BF0AEF902E0322006F0B6FDFA
:10577000174B1B6802331A46174B1B689A42F4D327
:105780000A490B480BF09EF9104B00221A60094B96
:1057900000221A6011480AF03FFA42F2107006F037
:1057A0009DFDFAE7F801002000020020B03B01084F
:1057B000080000203C020020C4000020A43D010895
:1057C00030020020903D0108B83D01083802002059
:1057D000C8000020CC3D0108C4050020E03D0108C0
:1057E00080B586B000AF78604FF000037B614FF06A
:1057F00000033B610B20FBF78DFB03461A46354B3C
:105800001A600C20FBF786FB03461A46324B1A60DF
:10581000304B1B6807EE903AF8EE677A9FED2F7ACF
:1058200027EE877ADFED2E6AC7EE267AC7ED037A78
:10583000294B1B6807EE903AF8EE677A9FED277ABE
:1058400027EE877ADFED266AC7EE267AC7ED027A61
:10585000D7ED037A9FED237A37EEC77ADFED226A20
:10586000C6EE877AC7ED057AD7ED027A9FED1D7AED
:1058700037EEC77ADFED1C6AC6EE877AC7ED047A89
:10588000D7ED057A9FED197AF4EEC77AF1EE10FAAA
:1058900001DD174B7B61D7ED047A9FED147AF4EEAE
:1058A000C77AF1EE10FA01DD114B3B61D7ED057AB5
:1058B000FCEEE77A17EE902A0E4B1A60D7ED047AC9
:1058C000FCEEE77A17EE902A0A4B5A60642006F045
:1058D00005FD8FE7D0050020D40500203333534069
:1058E00000F07F453D0AD73E48E1DE410000A0427E
:1058F0000000A042C805002080B400AF72B600BF0F
:1059000000BFFDE780B582B000AF00237B60124B83
:105910005B6C114A43F4804353640F4B5B6C03F49C
:1059200080437B607B6800233B600B4B1B6C0A4A07
:1059300043F080531364084B1B6C03F080533B60AF
:105940003B6800220F216FF0010001F022FA00BF36
:105950000837BD4680BD00BF0038024080B58AB020
:1059600000AF786007F1140300221A605A609A6051
:10597000DA601A617B681B682F4A934257D1002373
:105980003B612E4B5B6C2D4A43F4807353642B4B6D
:105990005B6C03F480733B613B690023FB60274B26
:1059A0001B6B264A43F004031363244B1B6B03F069
:1059B0000403FB60FB6806237B610323BB610023B8
:1059C000FB6107F1140319461D4801F01BFE1D4B36
:1059D0001D4A1A601B4B00225A601A4B00229A6023
:1059E000184B0022DA60174B4FF480621A61154B96
:1059F0004FF400625A61134B4FF400529A61114BFD
:105A00004FF48072DA610F4B00221A620D4B0022B4
:105A10005A620C4801F0F4F90346002B01D0FFF75D
:105A20006BFF7B68074A9A63064A7B68936300BFF3
:105A30002837BD4680BD00BF00200140003802402D
:105A400000080240880200201064024080B58AB03D
:105A500000AF786007F1140300221A605A609A6060
:105A6000DA601A617B681B68194A93422CD10023C3
:105A70003B61184B1B6B174A43F002031363154B32
:105A80001B6B03F002033B613B694FF440637B6196
:105A90001223BB610023FB6103233B6204237B626F
:105AA00007F1140319460C4801F0ACFD0023FB601C
:105AB000084B1B6C074A43F480031364054B1B6CB3
:105AC00003F48003FB60FB6800BF2837BD4680BD40
:105AD00000580040003802400004024080B58CB0FD
