:020000040800F2
:100000000000022009500008ED4E0008F54E0008DF
:10001000FD4E0008054F00080D4F000800000000CD
:1000200000000000000000000000000031CF0008C8
:10003000154F00080000000081D10008234F000880
:1000400059500008595000085950000859500008EC
:1000500059500008595000085950000859500008DC
:1000600059500008595000085950000859500008CC
:100070003D4F0008595000085950000859500008D9
:1000800059500008595000085950000859500008AC
:10009000595000085950000859500008595000089C
:1000A000595000085950000859500008595000088C
:1000B000514F000859500008595000085950000885
:1000C000595000085950000859500008595000086C
:1000D000595000085950000859500008654F000851
:1000E000595000085950000859500008595000084C
:1000F000595000085950000859500008595000083C
:10010000595000085950000859500008595000082B
:10011000595000085950000859500008595000081B
:10012000595000085950000859500008595000080B
:1001300059500008595000085950000859500008FB
:1001400059500008595000085950000859500008EB
:1001500059500008595000085950000859500008DB
:1001600059500008595000085950000859500008CB
:10017000595000085950000859500008000000006C
:08018000595000085950000815
:1001900010B5054C237833B9044B13B10448AFF3C1
:1001A00000800123237010BD5001002000000000DA
:1001B0003813010808B5034B1BB103490348AFF3DB
:1001C000008008BD00000000540100203813010821
:1001D000034613F8012B002AFBD1181A0138704787
:1001E00001F0FF01102A2BDB10F0070F08D010F8E8
:1001F000013B013A8B422DD010F0070F42B3F6D1EC
:10020000F0B441EA012141EA014122F007047FF004
:1002100000070023F0E80256083C85EA010586EA5B
:10022000010685FA47F5A3FA87F586FA47F6A5FA97
:1002300087F68EB9EED1F0BC01F0FF0102F00702A3
:1002400032B110F8013B013A83EA010313B1F8D14E
:100250000020704701387047002D06BF354603382F
:10026000073815F0010F07D1013015F4807F02BF68
:10027000013015F4C03F0130F0BC0138704700BFB9
:1002800081F0004102E000BF83F0004330B54FEA47
:1002900041044FEA430594EA050F08BF90EA020FB4
:1002A0001FBF54EA000C55EA020C7FEA645C7FEA47
:1002B000655C00F0E2804FEA5454D4EB5555B8BF6A
:1002C0006D420CDD2C4480EA020281EA030382EADB
:1002D000000083EA010180EA020281EA0303362D6D
:1002E00088BF30BD11F0004F4FEA01314FF4801C40
:1002F0004CEA113102D0404261EB410113F0004F52
:100300004FEA03334CEA133302D0524263EB430308
:1003100094EA050F00F0A780A4F10104D5F1200EA6
:100320000DDB02FA0EFC22FA05F2801841F1000101
:1003300003FA0EF2801843FA05F359410EE0A5F1D5
:1003400020050EF1200E012A03FA0EFC28BF4CF006
:10035000020C43FA05F3C01851EBE37101F00045BC
:1003600007D54FF0000EDCF1000C7EEB00006EEBC9
:100370000101B1F5801F1BD3B1F5001F0CD3490853
:100380005FEA30004FEA3C0C04F101044FEA4452AA
:1003900012F5800F80F09A80BCF1004F08BF5FEA31
:1003A000500C50F1000041EB045141EA050130BD11
:1003B0005FEA4C0C404141EB0101013C28BFB1F523
:1003C000801FE9D291F0000F04BF01460020B1FA6E
:1003D00081F308BF2033A3F10B03B3F120020CDA41
:1003E0000C3208DD02F1140CC2F10C0201FA0CF01F
:1003F00021FA02F10CE002F11402D8BFC2F1200C84
:1004000001FA02F120FA0CFCDCBF41EA0C01904039
:10041000E41AA2BF01EB0451294330BD6FEA040482
:100420001F3C1CDA0C340EDC04F11404C4F120026D
:1004300020FA04F001FA02F340EA030021FA04F37F
:1004400045EA030130BDC4F10C04C4F1200220FAD6
:1004500002F001FA04F340EA0300294630BD21FA14
:1004600004F0294630BD94F0000F83F4801306BFDA
:1004700081F480110134013D4EE77FEA645C18BFCE
:100480007FEA655C29D094EA050F08BF90EA020F65
:1004900005D054EA000C04BF1946104630BD91EA5D
:1004A000030F1EBF0021002030BD5FEA545C05D160
:1004B0004000494128BF41F0004130BD14F580049F
:1004C0003CBF01F5801130BD01F0004545F0FE4113
:1004D00041F470014FF0000030BD7FEA645C1ABF48
:1004E000194610467FEA655C1CBF0B46024650EA7F
:1004F000013406BF52EA033591EA030F41F40021AB
:1005000030BD00BF90F0000F04BF0021704730B530
:100510004FF4806404F132044FF000054FF0000105
:1005200050E700BF90F0000F04BF0021704730B5C6
:100530004FF4806404F1320410F0004548BF40429B
:100540004FF000013EE700BF42004FEAE2014FEAF0
:1005500031014FEA02701FBF12F07F4393F07F4FCB
:1005600081F06051704732F07F4208BF704793F0CE
:100570007F4F04BF41F40021704730B54FF46074E1
:1005800001F0004521F000411CE700BF50EA0102E4
:1005900008BF704730B54FF000050AE050EA01028D
:1005A00008BF704730B511F0004502D5404261EBFD
:1005B00041014FF4806404F132045FEA915C3FF43E
:1005C000D8AE4FF003025FEADC0C18BF03325FEADB
:1005D000DC0C18BF033202EBDC02C2F1200300FA8C
:1005E00003FC20FA02F001FA03FE40EA0E0021FAB1
:1005F00002F11444BDE600BF70B54FF0FF0C4CF49F
:10060000E06C1CEA11541DBF1CEA135594EA0C0F50
:1006100095EA0C0F00F0DEF82C4481EA030621EA8B
:100620004C5123EA4C5350EA013518BF52EA0335C6
:1006300041F4801143F4801338D0A0FB02CE4FF078
:100640000005E1FB02E506F00042E0FB03E54FF0A8
:100650000006E1FB03569CF0000F18BF4EF0010EA0
:10066000A4F1FF04B6F5007F64F5407404D25FEA9C
:100670004E0E6D4146EB060642EAC62141EA55514F
:100680004FEAC52040EA5E504FEACE2EB4F1FD0C91
:1006900088BFBCF5E06F1ED8BEF1004F08BF5FEA0F
:1006A000500E50F1000041EB045170BD06F00046C1
:1006B00046EA010140EA020081EA0301B4EB5C046E
:1006C000C2BFD4EB0C0541EA045170BD41F4801166
:1006D0004FF0000E013C00F3AB8014F1360FDEBF8B
:1006E000002001F0004170BDC4F10004203C35DA67
:1006F0000C341BDC04F11404C4F1200500FA05F3EA
:1007000020FA04F001FA05F240EA020001F000428A
:1007100021F0004110EBD37021FA04F642EB060100
:100720005EEA430E08BF20EAD37070BDC4F10C042A
:10073000C4F1200500FA04F320FA05F001FA04F2EE
:1007400040EA020001F0004110EBD37041F10001DA
:100750005EEA430E08BF20EAD37070BDC4F12005E5
:1007600000FA05F24EEA020E20FA04F301FA05F24D
:1007700043EA020321FA04F001F0004121FA04F2F5
:1007800020EA020000EBD3705EEA430E08BF20EAC5
:10079000D37070BD94F0000F0FD101F000464000FF
:1007A00041EB010111F4801F08BF013CF7D041EA81
:1007B000060195F0000F18BF704703F00046520085
:1007C00043EB030313F4801F08BF013DF7D043EA56
:1007D0000603704794EA0C0F0CEA135518BF95EA0C
:1007E0000C0F0CD050EA410618BF52EA4306D1D193
:1007F00081EA030101F000414FF0000070BD50EAB2
:10080000410606BF1046194652EA430619D094EA3B
:100810000C0F02D150EA013613D195EA0C0F05D125
:1008200052EA03361CBF104619460AD181EA030179
:1008300001F0004141F0FE4141F470014FF0000031
:1008400070BD41F0FE4141F4780170BD70B54FF0CC
:10085000FF0C4CF4E06C1CEA11541DBF1CEA13554C
:1008600094EA0C0F95EA0C0F00F0A7F8A4EB05042E
:1008700081EA030E52EA03354FEA013100F0888025
:100880004FEA03334FF0805545EA131343EA1263EE
:100890004FEA022245EA111545EA10654FEA0026A3
:1008A0000EF000419D4208BF964244F1FD0404F55C
:1008B000407402D25B084FEA3202B61A65EB0305B8
:1008C0005B084FEA32024FF480104FF4002CB6EB75
:1008D000020E75EB030E22BFB61A754640EA0C00F5
:1008E0005B084FEA3202B6EB020E75EB030E22BF35
:1008F000B61A754640EA5C005B084FEA3202B6EB76
:10090000020E75EB030E22BFB61A754640EA9C0034
:100910005B084FEA3202B6EB020E75EB030E22BF04
:10092000B61A754640EADC0055EA060E18D04FEAC2
:10093000051545EA16754FEA06164FEAC30343EA62
:1009400052734FEAC2025FEA1C1CC0D111F4801F2F
:100950000BD141EA00014FF000004FF0004CB6E728
:1009600011F4801F04BF01430020B4F1FD0C88BFC7
:10097000BCF5E06F3FF6AFAEB5EB030C04BFB6EBD2
:10098000020C5FEA500C50F1000041EB045170BDC5
:100990000EF0004E4EEA113114EB5C04C2BFD4EBF2
:1009A0000C0541EA045170BD41F480114FF0000E76
:1009B000013C90E645EA060E8DE60CEA135594EAF2
:1009C0000C0F08BF95EA0C0F3FF43BAF94EA0C0FF5
:1009D0000AD150EA01347FF434AF95EA0C0F7FF46A
:1009E00025AF104619462CE795EA0C0F06D152EABE
:1009F00003353FF4FDAE1046194622E750EA4106A2
:100A000018BF52EA43067FF4C5AE50EA41047FF4B2
:100A10000DAF52EA43057FF4EBAE12E74FF0FF3C17
:100A200006E000BF4FF0010C02E000BF4FF0010CE8
:100A30004DF804CD4FEA410C7FEA6C5C4FEA430C61
:100A400018BF7FEA6C5C1BD001B050EA410C0CBFB0
:100A500052EA430C91EA030F02BF90EA020F002012
:100A6000704710F1000F91EA030F58BF994208BF79
:100A700090422CBFD8176FEAE37040F00100704736
:100A80004FEA410C7FEA6C5C02D150EA013C07D18D
:100A90004FEA430C7FEA6C5CD6D152EA033CD3D0D8
:100AA0005DF8040B704700BF8446104662468C46D2
:100AB0001946634600E000BF01B5FFF7B7FF002805
:100AC00048BF10F1000F01BD4DF808EDFFF7F4FF2E
:100AD0000CBF012000205DF808FB00BF4DF808EDB9
:100AE000FFF7EAFF34BF012000205DF808FB00BFDC
:100AF0004DF808EDFFF7E0FF94BF012000205DF8FE
:100B000008FB00BF4DF808EDFFF7CEFF94BF0120B2
:100B100000205DF808FB00BF4DF808EDFFF7C4FFAB
:100B200034BF012000205DF808FB00BF4FEA410CF4
:100B30007FEA6C5C02D150EA013C0AD14FEA430CD7
:100B40007FEA6C5C02D152EA033C02D14FF0000014
:100B500070474FF0010070474FEA410212F5001252
:100B600015D211D56FF47873B3EB625212D94FEAF4
:100B7000C12343F0004343EA505311F0004F23FADE
:100B800002F018BF404270474FF00000704750EA33
:100B9000013005D111F0004008BF6FF000407047F0
:100BA0004FF00000704700BF4A0011D212F500124A
:100BB00011D20DD56FF47873B3EB62520ED44FEAB5
:100BC000C12343F0004343EA505323FA02F0704735
:100BD0004FF00000704750EA013002D14FF0FF3073
:100BE00070474FF00000704753B94AB9002908BF59
:100BF00000281CBF4FF0FF314FF0FF3000F088B9E4
:100C0000ADF1080C6DE904CE00F006F8DDF804E063
:100C1000DDE9022304B070472DE9F047089D8E46B8
:100C200004468846002B4AD18A42174662D9B2FA56
:100C300082F64EB1C6F1200301FA06F820FA03F35A
:100C4000B74043EA0808B4404FEA174E1FFA87FC42
:100C5000B8FBFEF1230C0EFB118843EA084301FBAD
:100C60000CF29A4209D9FB1801F1FF3080F0EA80BA
:100C70009A4240F2E78002393B449A1AA3B2B2FB8F
:100C8000FEF00EFB102243EA024300FB0CFC9C45E5
:100C900009D9FB1800F1FF3280F0D6809C4540F264
:100CA000D3803B44023840EA0140A3EB0C0300210F
:100CB0001DB1F3400022C5E90032BDE8F0878B4248
:100CC00005D90DB1C5E9000100210846F5E7B3FAE1
:100CD00083F1002946D1734502D3824200F2058197
:100CE000841A6EEB030201209046002DE5D0C5E981
:100CF0000048E2E7002A00F09080B2FA82F6002E67
:100D000040F0A4808A1A030C4FEA174E80B2BCB29E
:100D10000121B2FBFEFC0EFB1C2243EA024304FB52
:100D20000CF29A4207D9FB180CF1FF3802D29A4212
:100D300000F2E080C4469B1AB3FBFEF20EFB1233B6
:100D400040EA034302FB04F49C4207D9FB1802F17A
:100D5000FF3002D29C4200F2CA8002461B1B42EACC
:100D60000C40A5E7C1F120068B4022FA06F71F438D
:100D70000EFA01F420FA06F32EFA06FE4FEA17499E
:100D8000234300FA01F81FFA87FCBEFBF9F01C0CA4
:100D900009FB10EE44EA0E4400FB0CFEA64502FAE5
:100DA00001F209D93C1900F1FF3A80F09C80A64578
:100DB00040F2998002383C44A4EB0E041FFA83FEF3
:100DC000B4FBF9F309FB13444EEA044403FB0CFCA7
:100DD000A44508D93C1903F1FF3E80F08280A44568
:100DE0007FD9023B3C4443EA0040A4EB0C04A0FB47
:100DF00002EC64457346E14662D35FD05DB1B8EB67
:100E0000030264EB090404FA06F622FA01F31E4316
:100E1000CC40C5E9006400214FE7B1FBF2FC010CB6
:100E200041EA0E4180B240EA01423B4638463C4628
:100E3000B846BE462026B1FBF7F1A2EB080241EA14
:100E40000C4166E7014618E710462CE7C6F1200280
:100E50002EFA02F3B740B14020FA02F24FEA174EE1
:100E60000A43B3FBFEF8BCB20EFB1833110C41EA87
:100E7000034108FB04F9B04089454FEA104380B2B2
:100E80003ED9791808F1FF3C01D289451FD8A1EB62
:100E90000901B1FBFEF909FB04F80EFB191192B22E
:100EA00042EA0142424529D2BA1809F1FF31C4D2BF
:100EB0004245C2D2A9F102013A44BEE7F0459DD2B3
:100EC000BEEB02036CEB070C0138E14696E7A7EB9B
:100ED00009094944A8F1020CB1FBFEF909FB04F829
:100EE000DBE773467FE7504666E70846FDE63B448E
:100EF000023A33E7ACF1020C3B441CE749469CE75D
:100F0000A1EB0901C446B1FBFEF909FB04F8C4E7F3
:100F1000704700BF80B58EB000AF78600023FB85BE
:100F2000012387F82D3007F108037A681549184620
:100F30000DF080FD07F1280207F108031249184659
:100F40000DF0EBFD786300233B630AE007F1280313
:100F50001A460D4900200DF0E0FD78633B6B01332C
:100F60003B6397F82D303A6B9A42EFDB786B0DF0CC
:100F7000D9FC0346FB85B7F92E3018463837BD46F5
:100F800080BD00BF081401080C14010880B58EB0A4
:100F900000AF78600023FB85032387F82D3007F12D
:100FA00008037A68154918460DF044FD07F1280238
:100FB00007F10803124918460DF0AFFD78630023CE
:100FC0003B630AE007F128031A460D4900200DF0A3
:100FD000A4FD78633B6B01333B6397F82D303A6B8C
:100FE0009A42EFDB786B0DF09DFC0346FB85B7F969
:100FF0002E3018463837BD4680BD00BF08140108A2
:101000000C14010880B58EB000AF7860002387F81B
:101010002F30012387F82E3007F108037A6816492C
:1010200018460DF007FD07F1280207F108031349E0
:1010300018460DF072FD786300233B630AE007F168
:1010400028031A460D4900200DF067FD78633B6BBD
:1010500001333B6397F82E303A6B9A42EFDB786BA3
:101060000DF060FC034687F82F3097F82F301846B4
:101070003837BD4680BD00BF081401080C140108B4
:10108000B0B588B000AF87ED060B87ED041B87ED88
:10109000022B87ED003BD7E90423D7E90601FFF7D0
:1010A000F3F802460B4643EC172B9FED1B1BB0EEEB
:1010B000470AF0EE670A0EF0BFF955EC104BD7E97E
:1010C0000023D7E90201FFF7DFF802460B4643ECA5
:1010D000172B9FED111BB0EE470AF0EE670A0EF0DA
:1010E000ABF953EC102B20462946FFF7CFF8024608
:1010F0000B4643EC172BB0EE470AF0EE670A0EF0F2
:101100000BFAB0EE407AF0EE607AB0EE470AF0EEFD
:10111000670A2037BD46B0BD000000000000004057
:10112000B0B58CB002AF07F108031E2200211846AB
:101130000DF0A2FC194BD3E9002310461946FFF726
:101140000BFD0446164BD3E9002310461946FFF762
:1011500003FD0546134BD3E9002310461946FFF75C
:10116000FBFC0346104A126807F108000192009345
:101170002B4622460D490DF05DFC0A23BB803A1D2B
:1011800007F10803114618460DF07EFC0346184689
:101190000CF04EFC00BF2837BD46B0BDE801002072
:1011A000F0010020F801002028050020101401089B
:1011B00080B588B000AF3B461E22002118460DF0D6
:1011C0005BFC084B1B681A463B46074918460DF066
:1011D00031FC3B4618460CF02BFC00BF2037BD46C7
:1011E00080BD00BF280500202414010880B584B00C
:1011F00000AF03F033FF00F0F5F800F0C3FC00F09F
:10120000A1FC00F075FC00F0CDFA00F023FA00F02C
:1012100075FA00F045F900F09BFB00F007FC00F0C8
:101220006DF900F041FB0DF075FA494949480CF0A1
:101230009FFB494B494A4A494A480CF0C1FE4FF4CA
:10124000FA7003F07DFF484A3B1D07CA83E8070098
:101250000DF03AF93B1D1A460A210A200DF028FA32
:101260000DF0ACF84FF47A7003F06AFF3F480CF0D1
:1012700025FC03463E4A13603E480DF0D9FA0DF0B6
:1012800023F93D4A0A210A200DF012FA0DF096F8D2
:1012900008F0D8FE0DF018F9384A0A210A200DF09E
:1012A00007FA0DF08BF8364A0121012008F0C1FF42
:1012B0000346344A1360344A0021012008F0B9FF84
:1012C0000346324A1360324A0121012008F0B1FF7F
:1012D0000346304A1360304A0021304808F0FCFED3
:1012E00003462F4A13602F4A00212F4808F0F4FECE
:1012F00003462E4A13602E4A00212E4808F0ECFEC9
:1013000003462D4A13602D4A00212D4808F0E4FEC3
:1013100003462C4A13602C4A00212C4808F0DCFEBE
:1013200003462B4A13602B4A00212B4808F0D4FEB9
:1013300003462A4A13600DF0C7F8294A0A210A20F9
:101340000DF0B6F90DF03AF808F0A0FE00BFFDE789
:10135000A40400205C04002084030020AC020020D0
:10136000640200203C0300205014010810020020F9
:10137000000000201404002028140108341401087F
:10138000301601081C050020401601082005002029
:10139000501601082405002058150108751C000886
:1013A000040500207C150108311D000808050020F7
:1013B000A0150108113E00080C050020C415010805
:1013C0003D46000810050020E8150108D146000838
:1013D000140500200C1601085948000818050020C3
:1013E0004414010880B594B000AF07F12003302207
:1013F000002118460DF040FB07F10C0300221A6093
:101400005A609A60DA601A610023BB60224B1B6C41
:10141000214A43F0805313641F4B1B6C03F080532D
:10142000BB60BB6800237B601C4B1B681B4A43F4FA
:1014300080431360194B1B6803F480437B607B6817
:1014400002233B620123FB6210233B630023BB6347
:1014500007F12003184605F0ADFD0346002B01D02F
:1014600003F05EFA0F23FB6000233B6100237B61E6
:101470000023BB610023FB6107F10C030021184628
:1014800006F010F80346002B01D003F049FA00BF24
:101490005037BD4680BD00BF00380240007000409C
:1014A00080B500AF124B134A1A60114B124A5A60B2
:1014B0000F4B00229A600E4B0022DA600C4B4FF467
:1014C00080421A610A4B00225A61094B00229A613C
:1014D000074B0022DA61064B00221A62044804F02E
:1014E0001DFD0346002B01D003F01AFA00BF80BD9A
:1014F0001002002000580040A086010080B596B080
:1015000000AF07F1480300221A605A609A60DA605F
:1015100007F1400300221A605A6007F124030022F9
:101520001A605A609A60DA601A615A619A613B1DCA
:101530002022002118460DF09FFA444B444A1A60BD
:10154000424B00225A60414B00229A603F4B41F6C9
:101550001F42DA603D4B00221A613C4B00225A6167
:101560003A4B00229A61394806F07CF90346002B79
:1015700001D003F0D5F94FF48053BB6407F1480361
:101580001946324806F0C4FD0346002B01D003F093
:10159000C7F92E4806F0B5F90346002B01D003F039
:1015A000BFF900233B6400237B6407F14003194625
:1015B000264807F0F7F90346002B01D003F0B0F9F5
:1015C00060237B620023BB620223FB6200233B6338
:1015D00000237B630023BB630023FB6307F1240329
:1015E00008221946194806F0D1FC0346002B01D009
:1015F00003F096F907F124030C221946134806F06C
:10160000C5FC0346002B01D003F08AF900237B6060
:101610000023BB600023FB6000233B6100237B6150
:101620004FF40053BB6100233B623B1D1946074842
:1016300007F034FA0346002B01D003F071F9034898
:1016400003F022FB00BF5837BD4680BD6402002076
:101650000000014080B58CB000AF07F10C032422DC
:10166000002118460DF008FA3B1D00221A605A604E
:10167000214B4FF080421A601F4B00225A601E4BD4
:1016800000229A601C4B4FF6FF72DA601A4B002260
:101690001A61194B00229A610323FB6000233B610E
:1016A00001237B610023BB610A23FB6100233B62B2
:1016B00001237B620023BB620A23FB6207F10C0358
:1016C00019460D4806F03EFA0346002B01D003F000
:1016D00027F900237B600023BB603B1D19460648A9
:1016E00007F060F90346002B01D003F019F900BFA1
:1016F0003037BD4680BD00BFAC02002080B58CB045
:1017000000AF07F10C032422002118460DF0B4F9B4
:101710003B1D00221A605A60204B214A1A601F4B61
:1017200000225A601D4B00229A601C4B4FF6FF723C
:10173000DA601A4B00221A61184B00229A610323C7
:10174000FB6000233B6101237B610023BB6100231D
:10175000FB6100233B6201237B620023BB62002309
:10176000FB6207F10C0319460C4806F0EBF903463F
:10177000002B01D003F0D4F800237B600023BB6072
:101780003B1D1946054807F00DF90346002B01D013
:1017900003F0C6F800BF3037BD4680BDF40200201C
:1017A0000004004080B58EB000AF07F1280300228E
:1017B0001A605A609A60DA6007F1200300221A600A
:1017C0005A603B1D00221A605A609A60DA601A6102
:1017D0005A619A61324B334A1A60314B00225A6087
:1017E0002F4B00229A602E4B41F61F42DA602C4BA1
:1017F00000221A612A4B00229A61294806F032F829
:101800000346002B01D003F08BF84FF48053BB62EA
:1018100007F128031946224806F07AFC0346002BFC
:1018200001D003F07DF81E4806F06BF80346002B4C
:1018300001D003F075F800233B6200237B6207F1BF
:1018400020031946164807F0ADF80346002B01D0D7
:1018500003F066F860237B600023BB600223FB601B
:1018600000237B613B1D082219460D4806F08EFBC4
:101870000346002B01D003F053F83B1D0C22194600
:10188000074806F083FB0346002B01D003F048F81D
:10189000034803F0F9F900BF3837BD4680BD00BFEB
:1018A0003C0300200008004080B58CB000AF07F179
:1018B0000C032422002118460DF0DEF83B1D002207
:1018C0001A605A60204B214A1A601F4B00225A604E
:1018D0001D4B00229A601C4B4FF6FF72DA601A4BC8
:1018E00000221A61184B00229A610123FB60002339
:1018F0003B6101237B610023BB610023FB6100236B
:101900003B6201237B620023BB620023FB6207F181
:101910000C0319460C4806F015F90346002B01D0BC
:1019200002F0FEFF00237B600023BB603B1D1946D5
:10193000054807F037F80346002B01D002F0F0FF0E
:1019400000BF3037BD4680BD84030020000C00403E
:1019500080B58CB000AF07F1200300221A605A60F6
:101960009A60DA603B1D00221A605A609A60DA6061
:101970001A615A619A612B4B2B4A1A60294B00223B
:101980005A60284B00229A60264B41F61F42DA60CB
:10199000244B00221A61234B00229A61214805F052
:1019A00061FF0346002B01D002F0BAFF4FF48053D1
:1019B0003B6207F1200319461A4806F0A9FB0346CB
:1019C000002B01D002F0ACFF164805F09AFF034649
:1019D000002B01D002F0A4FF60237B600023BB60DA
:1019E0000223FB6000237B613B1D002219460D484A
:1019F00006F0CCFA0346002B01D002F091FF3B1D0C
:101A000004221946074806F0C1FA0346002B01D00C
:101A100002F086FF034803F037F900BF3037BD46B8
:101A200080BD00BFCC0300200040014080B58CB0D9
:101A300000AF07F1200300221A605A609A60DA6052
:101A40003B1D00221A605A609A60DA601A615A617E
:101A50009A61254B254A1A60234BA0225A60224BDB
:101A600000229A60204B4FF47A72DA601E4B0022FB
:101A70001A611D4B80229A611B4805F0F3FE034654
:101A8000002B01D002F04CFF4FF480533B6207F172
:101A900020031946144806F03BFB0346002B01D0F7
:101AA00002F03EFF104805F02CFF0346002B01D04A
:101AB00002F036FF60237B600023BB600023FB60E5
:101AC00000237B613B1D04221946074806F05EFA9D
:101AD0000346002B01D002F023FF034803F0D4F8A3
:101AE00000BF3037BD4680BD140400200018004000
:101AF00080B500AF114B124A1A60104B4FF4E1321F
:101B00005A600E4B00229A600C4B0022DA600B4B9D
:101B100000221A61094B0C225A61084B00229A617B
:101B2000064B0022DA61054807F01EF80346002B39
:101B300001D002F0F5FE00BF80BD00BF5C040020B4
:101B40000048004080B582B000AF00237B600C4BA2
:101B50001B6B0B4A43F400131363094B1B6B03F419
:101B600000137B607B68002205210C2003F0E7FB5B
:101B70000C2003F000FC00BF0837BD4680BD00BF4D
:101B80000038024080B58AB000AF07F1140300228C
:101B90001A605A609A60DA601A6100233B61324B26
:101BA0001B6B314A43F0100313632F4B1B6B03F085
:101BB00010033B613B690023FB602B4B1B6B2A4AE4
:101BC00043F001031363284B1B6B03F00103FB601D
:101BD000FB680023BB60244B1B6B234A43F00203CA
:101BE0001363214B1B6B03F00203BB60BB68002334
:101BF0007B601D4B1B6B1C4A43F0080313631A4B9D
:101C00001B6B03F008037B607B6800224FF480713C
:101C1000164804F069F900224FF4F041144804F02A
:101C200063F94FF480737B610123BB610023FB6187
:101C300000233B6207F1140319460C4803F0B8FF78
:101C40004FF4F0437B610123BB610023FB61002360
:101C50003B6207F114031946054803F0A9FF00BFD2
:101C60002837BD4680BD00BF00380240001002404A
:101C7000000C024090B58BB000AF78600CF024FCF3
:101C800007F10803224A234918460CF0D3FE07F156
:101C900008031A460A210A200CF00AFD1E4BD3E95C
:101CA000002310461946FEF757FF04461B4BD3E9A5
:101CB000002310461946FEF74FFF034607F10800C0
:101CC000224617490CF0B6FE07F108031A46142104
:101CD0000A200CF0EDFC134BD3E900231046194603
:101CE000FEF73AFF024607F108030F4918460CF0C9
:101CF000A1FE07F108031A461E210A200CF0D8FCA9
:101D00000CF05CFB642008F079FA00BFB6E700BF76
:101D1000080000205C140108F0010020F8010020F8
:101D200068140108E8010020741401080000000094
:101D3000B0B5E0B000AF07F5C073A3F5BE7318608F
:101D4000B5480CF075FD4FF000024FF00003C7E9F5
:101D500054234FF000024FF00003C7E952234FF025
:101D600000024FF00003C7E95E234FF000024FF07E
:101D70000003C7E950230A2387F83F314FF00002E0
:101D8000A64BC7E94C234FF00002A54BC7E94A23F5
:101D90000023A7F874316423C7F870310023C7F813
:101DA00024310023C7F86C310023C7F820311023F9
:101DB000C7F81C310023C7F818314FF000024FF06C
:101DC0000003C7E944234FF000024FF00003C7E9C6
:101DD00042234FF000024FF00003C7E940230023E5
:101DE000C7F8FC304FF000024FF00003C7E93C2376
:101DF0000CF06EFD41F2883008F000FA6423C7F859
:101E000070310422874988480CF04DFE0346002BB0
:101E100008D10CF05DFD854A854986480CF00AFE24
:101E200001F0CDBF844B1B686421184608F08AFA84
:101E30000346002B41F0C28704227A497A480CF00D
:101E400032FE0346002B0CD10CF042FD774A784954
:101E500078480CF0EFFD4FF4FA7008F0CFF900F07D
:101E600089BD05226F4975480CF01DFE0346002B05
:101E700040F0848072496B480CF052FE0346002B00
:101E80007CD06848FFF746F803465B421846FEF7E9
:101E900049FB02460B46C7E950230023C7F824310B
:101EA000C823C7F87031674BD3E90001D7E9502345
:101EB000FEF7ECF902460B4614461D46D7F82401FE
:101EC000FEF730FB02460B4620462946FEF7DEF9B8
:101ED00002460B46C7E95423544A554955480CF06D
:101EE000A9FD0CF0BDFC0A2008F088F9D7F8703184
:101EF000554A56494F480CF09DFD1FE04FF0000237
:101F0000534BD7E95401FEF7C1F902460B46104680
:101F100019464C4BD3E90023FEF7FEFD0346002B88
:101F200009D01E23C7F87031D7F87031464A4749A7
:101F300040480CF07FFD032008F060F9414BD3E9E5
:101F40000023D7E95401FEF7C9FD0346002BD5D184
:101F50000CF0A2FC354A364936480CF06BFD3D4A80
:101F6000334930480CF066FDC82008F047F9FFF708
:101F7000D7F8642008F042F900F0FCBC042229499B
:101F800035480CF090FD0346002B40F0A9802C4909
:101F900024480CF0C5FD0346002B00F0A180214829
:101FA000FEF7B8FF03461846FEF7BCFA02460B469A
:101FB000C7E95023C823C7F870314FF0FF33C7F883
:101FC0002431204BD3E90001D7E95023FEF75EF915
:101FD00002460B4614461D46D7F82401FEF7A2FA26
:101FE00002460B4620462946FEF750F902460B46AC
:101FF000C7E954230D4A0E490E480CF01BFD0CF0A6
:102000003DFC0A2008F0FAF8D7F87031134A0F495E
:1020100008480CF00FFD43E014040020008041400C
:1020200000002E40080000208014010878000020E5
:10203000081401089C0000202405002088140108D1
:1020400090140108E80100204800002098140108BD
:1020500000002440C4000020A01401085400002007
:102060004FF00002A64BD7E95401FEF70DF90246E6
:102070000B4610461946A34BD3E90023FEF72EFD6D
:102080000346002B09D01423C7F87031D7F87031FC
:102090009D4A9E499E480CF0CDFC032008F0AEF806
:1020A000984BD3E90023D7E95401FEF735FD0346E9
:1020B000002BD5D10CF0FEFB964A974994480CF0C2
:1020C000B9FC964A944996480CF0B4FCC82008F034
:1020D00095F8FFF725F8642008F090F800F04ABC66
:1020E00005228F498F480CF0DEFC0346002B7DD182
:1020F0008D498B480CF014FD0346002B76D08848A0
:10210000FEF708FF03461846FEF70CFA02460B4698
:10211000C7E950230CF0DCFB0023C7F82431794BCE
:10212000D3E90001D7E95023FEF7B0F802460B4689
:1021300014461D46D7F82401FEF7F4F902460B4673
:1021400020462946FEF7A2F802460B46C7E954236B
:10215000704A71496E480CF06DFC0CF081FBD7F8A9
:102160007031724A69496A480CF064FC1FE04FF014
:1021700000026F4BD7E95401FEF786F802460B4682
:10218000104619465F4BD3E90023FEF7A7FC034630
:10219000002B09D01E23C7F87031D7F87031634A7D
:1021A0005A495B480CF046FC032008F027F8554BD1
:1021B000D3E90023D7E95401FEF7AEFC0346002B18
:1021C000D5D10CF069FB534A534951480CF032FC0D
:1021D000524A514952480CF02DFCC82008F00EF824
:1021E000FEF79EFF642008F009F8C3E304224C497F
:1021F00050480CF058FC0346002B40F09F804A49A1
:1022000047480CF08DFC0346002B00F097804448B3
:10221000FEF780FE03465B421846FEF783F902464E
:102220000B46C7E950230923C7F824310CF050FBB3
:10223000344BD3E90001D7E95023FEF727F80246D3
:102240000B4614461D46D7F82401FEF76BF90246EB
:102250000B4620462946FEF719F802460B46C7E909
:1022600054232C4A2C492A480CF0E4FB0CF006FBC2
:10227000D7F87031304A254925480CF0DBFB1FE0C8
:102280004FF000022A4BD7E95401FDF7FFFF024649
:102290000B46104619461B4BD3E90023FEF73CFCC6
:1022A0000346002B09D01E23C7F87031D7F87031D0
:1022B000214A164916480CF0BDFB032007F09EFF8B
:1022C000104BD3E90023D7E95401FEF707FC03467E
:1022D000002BD5D10CF0EEFA0E4A0F490C480CF049
:1022E000A9FB0E4A0C490E480CF0A4FBC82007F0CD
:1022F00085FFFEF715FF642007F080FF3AE300BF7B
:1023000000804140E801002054000020981401089A
:102310009C0000207800002008140108C400002060
:102320000800002088140108A8140108900000206B
:1023300000002440A01401088400002006229C49CB
:102340009C480CF0B0FB0346002B40F04B819A49AF
:1023500097480CF0E5FB0346002B00F04381974AB9
:1023600007F1B80392E8030018600433198007F1FD
:10237000BE0300221A605A609A60DA601A615A61DC
:102380008F4BC7F8983007F19C0300221A605A60FF
:102390009A60DA601A615A611A830023A7F8EE3056
:1023A0004FF000024FF00003C7E95023854BD3E9FB
:1023B0000023D7E95001FDF769FF02460B46C7E944
:1023C00054237B48FEF7E2FD0346A7F874317D4BAA
:1023D000D3E90001D7E95023FDF758FF02460B4629
:1023E00014461D46B7F974311846FEF79BF86EA3E4
:1023F000D3E90023FEF700F902460B4620462946A2
:10240000FDF744FF02460B46C7E95423B7F9743180
:10241000322B06DDB7F87431013B9BB2A7F874315B
:1024200005E0B7F87431013B9BB2A7F87431664BF5
:10243000D3E90023C7E93823644BD3E90023C7E974
:102440003623B7F974310A2B02DC0CF041FA01E0B3
:102450000CF03EFAD7F870315D4A5E495E480CF0E8
:10246000E9FA584BD3E90001D7E95423FDF70CFFF3
:1024700002460B4610461946FEF76EFB0346A7F8C8
:10248000EE3057E0B7F97631002B01D10CF020FA8D
:102490004C4BD3E90001D7E95423FDF7F5FE024682
:1024A0000B4610461946FEF757FB0346A7F8763150
:1024B000B7F97631002B02DD0CF018FA08E0B7F915
:1024C0007631002B02DA0CF01FFA01E00CF000FA72
:1024D0003D4B93ED007B3D4B93ED006B97ED363B11
:1024E000B0EE462AF0EE662A97ED381BB0EE470AAA
:1024F000F0EE670AFEF7C4FD55EC104BB7F97431E6
:10250000143B1846FEF70EF802460B4620462946B5
:10251000FEF702FB0346002B09D02823C7F87031D1
:10252000D7F870312A4A2B492B480CF083FA062041
:1025300007F064FE244B93ED007B244B93ED006B7E
:1025400097ED363BB0EE462AF0EE662A97ED381B43
:10255000B0EE470AF0EE670AFEF792FD55EC104B1D
:10256000B7F974311846FDF7DDFF02460B462046E9
:102570002946FEF7B3FA0346002B83D1174A1849C0
:1025800015480CF057FA154A154909480CF052FA4B
:102590000CF09EF9C82007F031FEFEF7C1FD642063
:1025A00007F02CFEE6E100BF3AB4C876BE9F7A3F42
:1025B00008000020B0140108901401080C1501084F
:1025C0006C656674E8010020F0010020F80100202D
:1025D00060000020981401089C0000207800002072
:1025E000081401080622B649B6480CF05CFA034606
:1025F000002B40F00F81B449B1480CF091FA03462A
:10260000002B00F007810CF063F90023A7F8D63007
:102610004FF000024FF00003C7E95023A848FEF72F
:10262000B5FC0346A7F87431A84BD3E90001D7E9FC
:102630005023FDF72BFE02460B4614461D46B7F904
:1026400074311846FDF76EFF99A3D3E90023FDF717
:10265000D3FF02460B4620462946FDF717FE0246E9
:102660000B46C7E95423B7F97431322B13DDB7F9A0
:1026700074311846FDF756FF4FF00002944BFDF7FA
:1026800003FE02460B4610461946FEF765FA03465E
:10269000A7F8743112E0B7F974311846FDF742FF1C
:1026A00085A3D3E90023FDF7EFFD02460B46104654
:1026B0001946FEF751FA0346A7F87431854BD3E962
:1026C0000023C7E93823844BD3E90023C7E9362325
:1026D000B7F974310A2B02DC0CF0FAF801E00CF0C7
:1026E000F7F8D7F870317D4A7D497E480CF0A2F9A1
:1026F00057E0764BD3E90001D7E95423FDF7C4FD39
:1027000002460B4610461946FEF726FA0346A7F87E
:102710007631B7F97631002B01D10CF0D9F8B7F941
:102720007631002B02DD0CF0EFF808E0B7F97631D6
:10273000002B02DA0CF0DAF801E00CF0C9F8654B76
:1027400093ED007B644B93ED006B97ED363BB0EE61
:10275000462AF0EE662A97ED381BB0EE470AF0EEF7
:10276000670AFEF78DFC55EC104BB7F97431143B3A
:102770001846FDF7D7FE02460B4620462946FEF7CF
:10278000CBF90346002B09D02823C7F87031D7F8BE
:102790007031524A524953480CF04CF9062007F068
:1027A0002DFD4C4B93ED007B4B4B93ED006B97ED68
:1027B000363BB0EE462AF0EE662A97ED381BB0EEB7
:1027C000470AF0EE670AFEF75BFC55EC104BB7F9D1
:1027D00074311846FDF7A6FE02460B4620462946F0
:1027E000FEF77CF90346002B83D10CF071F83E4ACA
:1027F0003E493C480CF01EF93B4A3C4930480CF03D
:1028000019F9642007F0FAFCFEF78AFC642007F04F
:10281000F5FCAFE004222A4935480CF044F90346A0
:10282000002B40F0A780334925480CF079F9034686
:10283000002B00F09F802248FEF76CFB03461846F1
:10284000FDF770FE02460B46C7E950234FF0FF33F9
:10285000C7F824311D4BD3E90001D7E95023FDF718
:1028600015FD02460B4614461D46D7F82401FDF718
:1028700059FE02460B4620462946FDF707FD024653
:102880000B46C7E95423184A184916480CF0D2F8E9
:102890000CF01EF80A2007F0B1FCD7F87031164A88
:1028A0000F4910480CF0C6F848E000BFAFF30080B5
:1028B000FCA9F1D24D6240BF9A9999999999D93F53
:1028C00008000020B0140108A8140108E801002045
:1028D00000000440F0010020F80100206C000020FE
:1028E000981401089C0000207800002008140108BA
:1028F000B8140108A0140108C01401084FF0000228
:10290000B74BD7E95401FDF7BFFC02460B46104612
:102910001946B44BD3E90023FEF7E0F80346002B39
:1029200009D01E23C7F87031D7F87031AE4AAF49CD
:10293000AF480CF07FF8032007F060FCA94BD3E907
:102940000023D7E95401FEF7E7F80346002BD5D161
:10295000A84AA949A6480CF06DF8A84AA649A84873
:102960000CF068F8C82007F049FCFEF7D9FB64209A
:1029700007F044FCA34B1A78A14B1B78D31A002B09
:1029800040F0BC8107F5C073A3F582739E4A1A60BC
:1029900000221A7107F5C073A3F584730A221A8006
:1029A0009A4BD3E90023C7E94223994BD3E900238B
:1029B000C7E940238B4BD3E90023C7E95E230023FB
:1029C000C7F86C310023C7F86831C823C7F87031E5
:1029D0000BF07EFFC82007F011FC8E4B00221A601E
:1029E0008D4B00221A600EE0D7F86C218B4B1B68D0
:1029F0001344C7F86C31D7F868310133C7F8683130
:102A0000642007F0FBFBD7F86831042BECDDD7F826
:102A10006C31834A82FB03125210DB17D31AC7F8BA
:102A20006C317A4BD3E90023C7E93823784BD3E9DB
:102A30000023C7E9362307F5C073A3F58A73002284
:102A40001A605A601A81D7F86C31724A1360D7F84D
:102A50006C31232B40F3EC80D7F86C319BB2233BD5
:102A60009BB2A7F874316423C7F87031D7F870317E
:102A70006C4A5E495E480BF0DDFF2DE0032007F055
:102A8000BDFB55A3D3E90023D7E95E01FDF7FEFBAB
:102A900002460B4610461946524BD3E90023FEF777
:102AA0001DF80346002B02D00BF020FF14E04FF07E
:102AB00000025D4BD7E95E01FDF7E6FB02460B46DF
:102AC00010461946474BD3E90023FEF725F8034685
:102AD000002B01D00BF018FF4C4B93ED007B4C4BBF
:102AE00093ED006B97ED363BB0EE462AF0EE662A8A
:102AF00097ED381BB0EE470AF0EE670AFEF7C0FA12
:102B000055EC104BB7F974311846FDF70BFD024632
:102B10000B4620462946FDF7E1FF0346002BADD1C9
:102B2000344A354932480BF085FF324A324934483D
:102B30000BF080FF0023C7F868310EE0D7F86C2156
:102B4000364B1B681344C7F86C31D7F86831013332
:102B5000C7F86831642007F051FBD7F86831042BBF
:102B6000ECDDD7F86C312E4A82FB03125210DB17D2
:102B7000D31AC7F86C31D7F86C01FDF7D3FC234B9F
:102B8000D3E90023FDF782FB02460B4610461946A7
:102B9000FDF7E2FF0346C7F81831204B1B681E4AB9
:102BA00013601C4B1A681C4B1B68D31A1A4607F19A
:102BB0006C031E4918460BF03DFF07F1780207F140
:102BC0006C03114618460BF05FFF034618460AF0E7
:102BD0002FFF56E0AFF300809A9999999999C93FD0
:102BE00000002440E8010020C014010898140108E6
:102BF0009C0000207800002008140108C400002078
:102C000008000020CC14010841434B00F0010020D3
:102C1000F80100202C0500203005002028050020A8
:102C200067666666600000200000E03FD01401087F
:102C30004FF4FA7007F0E2FA4FF4FA7007F0DEFA98
:102C4000B54AB649B6480BF0F5FEB34AB349B548A4
:102C50000BF0F0FEB44B1B68B44A136007F16C0331
:102C60001E22B34918460BF0E5FE07F1780207F182
:102C70006C03114618460BF007FF034618460AF08E
:102C8000D7FED7F86C311E2B17DCD7F86C31192B17
:102C900013DDD7F87031A74AA749A2480BF0CAFE46
:102CA000C82007F0ABFA9C4A9C499D480BF0C2FE35
:102CB000994A9A499B480BF0BDFED7F86C31192B05
:102CC00000F35086D7F86C31142B40F34B86D7F8BD
:102CD0007031984A984993480BF0ACFE4FF49670C7
:102CE00007F08CFA8C4A8D498D480BF0A3FE8A4A76
:102CF0008A498C480BF09EFE00F034BE03228849BE
:102D00008E480BF0D0FE0346002B4FD10023C7F8AE
:102D100024314FF000028A4BC7E95023C823C7F87B
:102D20007031C82387F83F310BF0A8FDD7F8703118
:102D3000844A81497B480BF07DFE4FF42F7007F0E9
:102D40005DFA0BF0C5FD4FF4FA7007F057FAC8238F
:102D5000C7F870310BF084FDD7F870317A4A7649A4
:102D600070480BF067FE40F2145007F047FA0BF082
:102D7000AFFD4FF4FA7007F041FA0BF07FFDD7F882
:102D80007031704A6C4967480BF054FE4FF49670EE
:102D900007F034FA604A614962480BF04BFE5E4A24
:102DA0005E495F480BF046FE00F0DCBD03225C4943
:102DB00066480BF078FE0346002B40F0E4820023C7
:102DC000C7F824314FF00002614BC7E95023C823F4
:102DD000C7F87031C82387F83F310BF041FD9623C7
:102DE000C7F87031D7F87031574A53494D480BF046
:102DF00021FE02E0032007F001FAD7E95023D7E9CA
:102E00005E01FDF743FA02460B4610461946514B48
:102E1000D3E90023FDF762FE0346002BEAD14B23E2
:102E2000C7F870310BF054FDD7F870314A4A424967
:102E30003C480BF0FFFD3223A7F87431474BD3E930
:102E40000023C7E93823464BD3E90023C7E93623DB
:102E5000D7E95E23C7E944232DE0032007F0CEF92C
:102E60004FF000023F4BD7E94401FDF70FFA02464D
:102E70000B4610461946374BD3E90023FDF72EFECB
:102E80000346002B02D00BF031FD14E04FF000029E
:102E9000344BD7E94401FDF7F7F902460B461046DB
:102EA00019462C4BD3E90023FDF736FE0346002BD1
:102EB00001D00BF029FD294B93ED007B284B93EDBE
:102EC000006B97ED363BB0EE462AF0EE662A97EDA2
:102ED000381BB0EE470AF0EE670AFEF7D1F855EC62
:102EE000104BB7F974311846FDF71CFB02460B4630
:102EF00020462946FDF7F2FD0346002BADD16423A1
:102F0000C7F870310BF0ACFCD7F87031164A0A499B
:102F100004480BF08FFD2CE0780000200814010815
:102F2000080000209C00002028050020300500201B
:102F3000D01401086C00002098140108D81401086E
:102F4000000034405400002048000020DC14010838
:102F500000003EC0E801002060000020F0010020D9
:102F6000F80100200000E03F84000020032007F06B
:102F700045F9B74BD3E90023D7E95E01FDF7CCFD56
:102F80000346002BF2D10BF0A3FCD7F87031B14A05
:102F9000B149B2480BF04EFD0623A7F87431B04B8F
:102FA000D3E90023C7E93823AE4BD3E90023C7E9AF
:102FB0003623D7E95E23C7E944232DE0032007F039
:102FC0001DF94FF00002A84BD7E94401FDF75EF967
:102FD00002460B46104619469D4BD3E90023FDF7E8
:102FE0007DFD0346002B02D00BF080FC14E04FF077
:102FF00000029D4BD7E94401FDF746F902460B4616
:1030000010461946924BD3E90023FDF785FD034690
:10301000002B01D00BF078FC914B93ED007B914B92
:1030200093ED006B97ED363BB0EE462AF0EE662A44
:1030300097ED381BB0EE470AF0EE670AFEF720F86E
:1030400055EC104BB7F974311846FDF76BFA024690
:103050000B4620462946FDF741FD0346002BADD126
:103060006423C7F870314FF00002804BC7E950234A
:103070000BF004FCD7E95023D7E95E01FDF706F910
:1030800002460B4614461D46D7F82401FDF74AFABE
:1030900002460B4620462946FDF7F8F802460B4645
:1030A000C7E95423D7F87031714A6B496B480BF06C
:1030B000C1FC02E0032007F0A1F8654BD3E900232F
:1030C000D7E95401FDF728FD0346002BF2D10BF0A0
:1030D000C7FB6423C7F87031D7F87031654A5E4981
:1030E0005E480BF0A7FC02E0032007F087F8584B7E
:1030F000D3E90023D7E95E01FDF7F0FC0346002B7E
:10310000F2D10BF0E5FB5C4A5C4954480BF092FCB1
:10311000594A5A495A480BF08DFC0023C7F86431CC
:103120000023C7F86C310EE0D7F86C21554B1B68B3
:103130001344C7F86C31D7F864310133C7F86431F0
:10314000642007F05BF8D7F86431042BECDDD7F886
:103150006C314D4A82FB03125210DB17D31AC7F8A9
:103160006C313F4BD3E90023C7E938233D4BD3E90A
:103170000023C7E93623D7F86C311E2B40F3868035
:10318000D7F86C319BB21E3B9BB2A7F874310BF0A1
:103190009FFBD7F870312F4A2F4930480BF04AFC7B
:1031A000D7E95E23C7E944232DE0032007F026F882
:1031B0004FF000022C4BD7E94401FDF767F80246B7
:1031C0000B4610461946224BD3E90023FDF786FC37
:1031D0000346002B02D00BF089FB14E04FF00002F5
:1031E000214BD7E94401FDF74FF802460B46104644
:1031F0001946174BD3E90023FDF78EFC0346002B3D
:1032000001D00BF081FB164B93ED007B154B93ED3A
:10321000006B97ED363BB0EE462AF0EE662A97ED4E
:10322000381BB0EE470AF0EE670AFDF729FF55ECB0
:10323000104BB7F974311846FDF774F902460B4686
:1032400020462946FDF74AFC0346002BADD185E018
:10325000E801002060000020981401089C00002074
:10326000F0010020F80100200000E03F0000444091
:1032700054000020480000207800002008140108B5
:10328000080000202805002067666666D7F86C31C4
:103290001D2B63DCD7F86C319BB2C3F11E039BB2CC
:1032A000A7F874310BF014FBD7F87031B64AB74960
:1032B000B7480BF0BFFB2DE0032006F09FFF4FF057
:1032C0000002B44BD7E94401FCF7E0FF02460B468D
:1032D00010461946B04BD3E90023FDF7FFFB034628
:1032E000002B02D00BF010FB14E04FF00002A94BB2
:1032F000D7E94401FCF7C8FF02460B4610461946C1
:10330000A54BD3E90023FDF707FC0346002B01D0B2
:103310000BF0ECFAA14B93ED007BA14B93ED006B0E
:1033200097ED363BB0EE462AF0EE662A97ED381B55
:10333000B0EE470AF0EE670AFDF7A2FE55EC104B1F
:10334000B7F974311846FDF7EDF802460B462046F2
:103350002946FDF7C3FB0346002BADD1914A9249A4
:103360008B480BF067FB8F4A8F4990480BF062FB4C
:103370000BF0AEFA74200AF073FB97F83F31184651
:1033800006F03CFFEEE20322884989480BF08BFBF4
:103390000346002B75D10023C7F860316423C7F8BA
:1033A0007031C82387F83F310023C7F86C310BF028
:1033B0008FFA4B23C7F870310EE0D7F86C217D4BA4
:1033C0001B681344C7F86C31D7F860310133C7F874
:1033D0006031642006F012FFD7F86031042BECDD79
:1033E000D7F86C31744A82FB03125210DB17D31AE0
:1033F000C7F86C31694BD3E90023C7E93823684B20
:10340000D3E90023C7E936230A23A7F87431D7F894
:1034100070315D4A5D495E480BF00CFB02E0032011
:1034200006F0ECFE5D4B93ED007B5D4B93ED006B86
:1034300097ED363BB0EE462AF0EE662A97ED381B44
:10344000B0EE470AF0EE670AFDF71AFE55EC104B96
:10345000B7F974311846FDF765F802460B46204669
:103460002946FDF73BFB0346002BD8D14D4A4E4978
:1034700047480BF0DFFA4B4A4B494C480BF0DAFA5D
:1034800070E24E4B1A78494B1B78D31A002B4ED161
:1034900007F5C073A3F58E73494A1A6000221A71AA
:1034A00007F5C073A3F590730A221A8007F5C0735D
:1034B000A3F5967300221A605A601A810BF008FA7D
:1034C0004FF47A7006F09AFE032006F097FE0CE0A7
:1034D000C823C7F87031D7F870313A4A2B492C48C5
:1034E0000BF0A8FA032006F089FED7F82031B3F5D7
:1034F000E16FEDDC2B4A2C4925480BF09BFA294A59
:1035000029492A480BF096FA07F154032E49184628
:103510000BF090FA07F1600207F1540311461846C8
:103520000BF0B2FA034618460AF082FA1AE2274B69
:103530001A781E4B1B78D31A002B40F0A38007F596
:10354000C073A3F59A731E4A1A6000221A7107F518
:10355000C073A3F59C730A221A8007F5C073A3F504
:10356000A27300221A605A601A810B4BD3E9002320
:10357000C7E95E230BF0ACF94FF47A7006F03EFE1B
:10358000032006F03BFE5BE06C000020981401086D
:103590009C0000200000E03FE8010020F001002036
:1035A000F80100207800002008140108080000201D
:1035B000E01401082805002067666666E414010827
:1035C00041434B0060000020E8140108EC1401089E
:1035D0006423C7F87031D7F87031994A99499A48ED
:1035E0000BF028FA032006F009FE93A3D3E9002389
:1035F000D7E95E01FCF74AFE02460B461046194623
:10360000924BD3E90023FDF769FA0346002B02D061
:103610000BF06CF914E04FF000028D4BD7E95E011E
:10362000FCF732FE02460B4610461946874BD3E99B
:103630000023FDF771FA0346002B01D00BF064F96B
:10364000D7F82031B3F5E16FC2DC824A82497E4867
:103650000BF0F0F97F4A804980480BF0EBF907F155
:103660003C037F4918460BF0E5F907F1480207F1E2
:103670003C03114618460BF007FA034618460AF0B9
:10368000D7F96FE1774B1A78744B1B78D31A002B5C
:1036900040F0688107F5C073A3F5A673724A1A60FB
:1036A00000221A7107F5C073A3F5A8730A221A80C5
:1036B00007F5C073A3F5AE7300221A605A601A8131
:1036C0006A4BD3E90023C7E94223694BD3E90023BE
:1036D000C7E940235D4BD3E90023C7E95E230023FC
:1036E000C7F86C310023C7F85C31C823C7F87031C4
:1036F0000BF0EEF8C82006F081FD0EE0D7F86C2143
:103700005C4B1B681344C7F86C31D7F85C3101334C
:10371000C7F85C31642006F071FDD7F85C31042BEA
:10372000ECDDD7F86C31544A82FB03125210DB17E0
:10373000D31AC7F86C314D4BD3E90023C7E93823BE
:103740004B4BD3E90023C7E93623D7F86C310F2B55
:1037500040F3E480D7F86C319BB20F3B9BB2A7F8E3
:103760007431D7F87031364A364937480BF062F970
:103770002DE0032006F042FD2FA3D3E90023D7E973
:103780005E01FCF783FD02460B46104619462F4B9F
:10379000D3E90023FDF7A2F90346002B02D00BF07A
:1037A000A5F814E04FF00002294BD7E95E01FCF7C1
:1037B0006BFD02460B4610461946244BD3E9002305
:1037C000FDF7AAF90346002B01D00BF09DF8274B1B
:1037D00093ED007B264B93ED006B97ED363BB0EEFF
:1037E000462AF0EE662A97ED381BB0EE470AF0EE57
:1037F000670AFDF745FC55EC104BB7F974311846D4
:10380000FCF790FE02460B4620462946FDF766F976
:103810000346002BADD10F4A0F490B480BF00AF9B4
:103820000C4A0D490D480BF005F90023C7F85C312F
:1038300033E000BFAFF300809A9999999999C93FF5
:1038400060000020981401089C000020E80100207E
:103850000000E03F78000020081401080800002064
:10386000E8140108F014010841434B00F001002066
:10387000F80100202805002067666666D7F86C21ED
:10388000AB4B1B681344C7F86C31D7F85C3101337C
:10389000C7F85C31642006F0B1FCD7F85C31042B2A
:1038A000ECDDD7F86C31A34A82FB03125210DB1710
:1038B000D31AC7F86C31D7F86C01FCF733FE9E4B76
:1038C000D3E90023FCF7E2FC02460B4610461946FA
:1038D000FDF742F90346C7F8183107F12403974969
:1038E00018460BF0A7F807F1300207F12403114640
:1038F00018460BF0C9F8034618460AF099F84FF439
:10390000FA7006F07BFC8E4A8E498F480BF092F8D5
:103910008B4A8C498D480BF08DF823E04FF4FA70F8
:1039200006F06CFC07F12403844918460BF082F87A
:1039300007F1300207F12403114618460BF0A4F8F2
:10394000034618460AF074F84FF4FA7006F056FC75
:103950007B4A7C497C480BF06DF8794A79497B4871
:103960000BF068F87A4B1A78774B1B78D31A002B38
:1039700040F0708107F5C073A3F5B273754A1A6001
:1039800000221A7107F5C073A3F5B4730A221A80D6
:10399000694BD3E90023C7E942236F4BD3E90023E6
:1039A000C7E940236D4BD3E90023C7E95E23002319
:1039B000C7F86C310023C7F85831C823C7F87031F5
:1039C0000AF086FFC82006F019FC654B00221A6039
:1039D000644B00221A600EE0D7F86C21544B1B6830
:1039E0001344C7F86C31D7F858310133C7F8583150
:1039F000642006F003FCD7F85831042BECDDD7F82F
:103A00006C314C4A82FB03125210DB17D31AC7F8F1
:103A10006C31494BD3E90023C7E938234E4BD3E936
:103A20000023C7E9362307F5C073A3F5BA73002254
:103A30001A605A601A81D7F86C31412B40F3E0804C
:103A4000D7F86C319BB2413B9BB2A7F87431642329
:103A5000C7F87031D7F87031434A44493B480AF0FF
:103A6000E9FF2DE0032006F0C9FB2FA3D3E90023D3
:103A7000D7E95E01FCF70AFC02460B4610461946E0
:103A8000364BD3E90023FDF729F80346002B02D07B
:103A90000AF02CFF14E04FF00002354BD7E95E012D
:103AA000FCF7F2FB02460B46104619462B4BD3E9B6
:103AB0000023FDF731F80346002B01D00AF024FF64
:103AC0001D4B93ED007B244B93ED006B97ED363B44
:103AD000B0EE462AF0EE662A97ED381BB0EE470AA4
:103AE000F0EE670AFDF7CCFA55EC104BB7F97431DC
:103AF0001846FCF717FD02460B4620462946FCF700
:103B0000EDFF0346002BADD10D4A0E490F480AF0D8
:103B100091FF0B4A0B490C480AF08CFF0023C7F8B1
:103B2000583136E0AFF300809A9999999999C93F35
:103B30002805002067666666F0010020E814010889
:103B40007800002008140108080000209C000020D4
:103B5000F414010841434B00F8010020E801002063
:103B60002C0500203005002060000020981401087A
:103B70000000E03FD7F86C21924B1B681344C7F854
:103B80006C31D7F858310133C7F85831642006F04A
:103B900035FBD7F85831042BECDDD7F86C318A4A65
:103BA00082FB03125210DB17D31AC7F86C31D7F817
:103BB0006C01FCF7B7FC854BD3E90023FCF766FBEF
:103BC00002460B4610461946FCF7C6FF0346C7F8E7
:103BD00018317C4B1B687E4A136007F10C037D494A
:103BE00018460AF027FF07F1180207F10C031146E7
:103BF00018460AF049FF0346184609F019FFD0E0BD
:103C00004FF4FA7006F0FAFA4FF4FA7006F0F6FA8A
:103C1000714A724972480AF00DFF6F4A6F49714844
:103C20000AF008FF674B1B68694A136007F10C0331
:103C30001E226D4918460AF0FDFE07F1180207F131
:103C40000C03114618460AF01FFF0346184609F0F8
:103C5000EFFEA6E00322624964480AF024FF03460F
:103C6000002B40F086800023C7F824314FF000027B
:103C70005F4BC7E95023C823C7F870310AF028FE0C
:103C80004FF47A7006F0BAFA032006F0B7FA0CE0A7
:103C9000C823C7F87031D7F87031564A5649514891
:103CA0000AF0C8FE032006F0A9FAD7F82031B3F5D0
:103CB000E16FEDDC484A49494A480AF0BBFE464AF2
:103CC000464947480AF0B6FE4FF47A7006F096FA75
:103CD000C823C7F870310AF0D1FDD7F87031474AD0
:103CE000454940480AF0A6FE40F2145006F086FA14
:103CF000394A3A493B480AF09DFE374A3749384825
:103D00000AF098FE0AF0E4FD4FF47A7006F076FAB5
:103D1000D7F870313A4A384932480AF08BFE4FF4EE
:103D2000C87006F06BFA2C4A2C492E480AF082FE25
:103D3000294A2A492A480AF07DFE4FF47A7006F093
:103D40005DFA0AF09BFDD7F870312C4A2A492548C4
:103D50000AF070FE4FF4966006F050FA1E4A1F49B2
:103D600020480AF067FE1C4A1C491D480AF062FE02
:103D700017E00D221A4923480AF095FE0346002B4E
:103D80000CD1FDF715FA144A144916480AF052FEF0
:103D9000114A124912480AF04DFE02E0642006F072
:103DA0002DFA194B1B68184606F01EFB174B012213
:103DB0001A60642006F022FAFEF720B800BFFEF772
:103DC0001DB800BF2805002067666666F001002068
:103DD00030050020E81401087800002008140108CC
:103DE000080000209C000020D0140108F8140108ED
:103DF00000003440600000209814010854000020A6
:103E00006C000020FC1401082405002000020020A2
:103E10002DE9F0439DB000AF78600A23FB644FF0BA
:103E20000002AD4BC7E91A234FF00002AA4BC7E9C5
:103E300018234FF00002A94BC7E91023D7E910233C
:103E4000C7E90E23A0A3D3E90023D7E91001FCF7AB
:103E5000D3FB02460B46C7E90C234FF00002A04BF0
:103E6000D7E91001FCF7C8FB02460B46C7E90A2355
:103E70004FF000029B4BC7E908234FF000024FF0C0
:103E80000003C7E906234FF000024FF00003C7E923
:103E900016234FF000024FF00003C7E904234FF050
:103EA00000024FF00003C7E914236423FB7307F0FB
:103EB00063FF0346BB608C4BD3E90023144623F019
:103EC000004522462B46D7E91A01FCF7DDF90246E8
:103ED0000B46C7E90623D7E90623D7E90E01FCF70D
:103EE0008BFB02460B468149C1E90023D7E90C232D
:103EF000D7E90601FCF780FB02460B46104619463F
:103F0000D7E90823FCF778FB02460B461046194612
:103F1000774BD3E90023FCF7B9F902460B46744905
:103F2000C1E90023D7E91623D7E90601FCF7ACF96C
:103F300002460B4610461946D7E90A23FCF75CFBFC
:103F400002460B4610461946D7E90823FCF77EFCCB
:103F500002460B466749C1E90023D7E90623C7E9B2
:103F60001623624BD3E90001614BD3E90023FCF730
:103F70008DF902460B46104619465E4BD3E90023E5
:103F8000FCF784F902460B46104619465A4BD3E912
:103F90000023FCF77BF902460B465749C1E9002391
:103FA000554BD3E900014AA3D3E90023FCF7B4FD44
:103FB0000346002B05D0504945A3D3E90023C1E9AE
:103FC00000234D4BD3E900014FF000024FF00003F6
:103FD000FCF784FD0346002B06D047494FF0000252
:103FE0004FF00003C1E900233F4BD3E90223904681
:103FF00023F0004942464B46D7E91801FCF744F943
:1040000002460B46C7E90423D7E90423D7E90E018A
:10401000FCF7F2FA02460B463849C1E90023D7E91A
:104020000C23D7E90401FCF7E7FA02460B461046D9
:104030001946D7E90823FCF7DFFA02460B4610467B
:1040400019462F4BD3E90023FCF720F902460B4613
:104050002B49C1E90023D7E91423D7E90401FCF770
:1040600013F902460B4610461946D7E90A23FCF716
:10407000C3FA02460B4610461946D7E90823FCF757
:10408000E5FB02460B461F49C1E90023D7E904239B
:10409000C7E91423194BD3E90001194BD3E90023D5
:1040A000FCF7F4F802460B4610461946154BD3E9C7
:1040B0000023FCF7EBF802460B4610461946124B5C
:1040C00024E000BFAFF30080FCA9F1D24D62503F65
:1040D000000000000070A7400000F03F00004940D1
:1040E0000000044000002440B001002080010020B6
:1040F000880100209001002070010020980100201C
:10410000A0010020A801002078010020D3E90023AD
:10411000FCF7BCF802460B469749C1E90023964BD1
:10412000D3E9000190A3D3E90023FCF7F5FC034693
:10413000002B05D090498CA3D3E90023C1E90023CB
:104140008D4BD3E900014FF000024FF00003FCF764
:10415000C5FC0346002B06D087494FF000024FF004
:104160000003C1E900230722844985480AF09BFC2B
:104170000346002B35D18248FCF744FF0346FB730E
:10418000FB7B1846FCF7CEF94FF000027D4BFCF7A5
:1041900033FA02460B46104619464FF000027A4B9E
:1041A000FCF754FB02460B46C7E91A234FF0000206
:1041B0004FF00003C7E91823744BD3E900231046DE
:1041C0001946FCF7C9FC06466B4BD3E900231046A1
:1041D0001946FCF7C1FC03461946304609F09CFF1E
:1041E00008E206226A4966480AF05DFC0346002B95
:1041F0002DD16348FCF706FF0346FB734FF0000226
:104200004FF00003C7E91A23FB7B624A82FB0312CB
:104210001211DB17D31A1846FCF784F902460B4635
:10422000C7E91823594BD3E9002310461946FCF778
:1042300093FC0646504BD3E9002310461946FCF781
:104240008BFC03461946304609F066FFD2E1042292
:1042500051494B480AF027FC0346002B35D148480A
:10426000FCF7D0FE0346FB734FF000024FF0000353
:10427000C7E91A23FB7B1846FCF754F94FF00002FC
:10428000464BFCF7B9F902460B46104619464FF06B
:1042900000023D4BFCF7DAFA02460B46C7E9182349
:1042A0003A4BD3E9002310461946FCF755FC064665
:1042B000314BD3E9002310461946FCF74DFC034669
:1042C0001946304609F0E0FE94E1052234492C48B5
:1042D0000AF0E9FB0346002B64D12948FCF792FE63
:1042E0000346FB73FB7B1846FCF71CF94FF00002FA
:1042F0002A4BFCF781F902460B46104619464FF04F
:104300000002214BFCF7A2FA02460B46C7E91A232A
:104310004FF000024FF00003C7E918231B4BD3E90D
:10432000002310461946FCF717FC0646124BD3E94A
:10433000002310461946FCF70FFC03461846FCF70D
:10434000F1F80BA3D3E90023FCF756F902460B461C
:1043500010461946FCF700FC03461946304609F0A2
:1043600093FE47E1AFF30080000000000070A7401B
:104370007B14AE47E17AEC3F780100202C15010850
:104380009C0000200000F83F000059407001002010
:10439000341501081F85EB51A014010800000440EA
:1043A0008814010807229C499C480AF07CFB0346BC
:1043B000002B4AD19948FCF725FE0346FB73FA7B94
:1043C00013465B001344964A82FB03125211DB171B
:1043D000D31A1846FCF7A6F802460B46C7E91A237B
:1043E000FA7B13465B0013448D4A82FB0312521181
:1043F000DB17D31A1846FCF795F802460B46C7E9B7
:104400001823884BD3E9002310461946FCF7A4FB78
:104410000646854BD3E9002310461946FCF79CFB62
:1044200003461846FCF77EF877A3D3E90023FCF790
:10443000E3F802460B4610461946FCF78DFB03468F
:104440001946304609F068FED4E0072277497348E0
:104450000AF029FB0346002B52D17048FCF7D2FD2D
:104460000346FB73FB7B1846FCF75CF802460B46E1
:10447000FBF70CFF02460B46104619464FF00002B0
:104480006B4BFCF7E3F902460B46C7E91A23FB7BAB
:104490001846FCF747F802460B46FBF7F7FE0246C4
:1044A0000B46104619464FF00002614BFCF7CEF95F
:1044B00002460B46C7E918235A4BD3E9002310469E
:1044C0001946FCF749FB03461846FCF72BF850A3A6
:1044D000D3E90023FCF790F802460B461046194634
:1044E000FCF73AFB0646504BD3E900231046194629
:1044F000FCF732FB03461946304609F0C5FD79E06A
:1045000009224C4945480AF0CEFA0346002B47D110
:104510004248FCF777FD0346FB73FB7B1846FCF72C
:1045200001F802460B46FBF7B1FE02460B46104669
:1045300019464FF000023E4BFCF788F902460B4645
:10454000C7E91A23FB7B1846FBF7ECFF02460B4634
:10455000FBF79CFE02460B46104619464FF0000240
:10456000334BFCF773F902460B46C7E918232D4B72
:10457000D3E9002310461946FCF7EEFA0346002162
:10458000184609F0C9FD284BD3E900231046194607
:10459000FCF7E2FA03461946002009F075FD29E010
:1045A000042225491D480AF07EFA0346002B21D13A
:1045B0001C494FF000024FF00003C1E900231A49E3
:1045C0004FF000024FF00003C1E90023154BD3E97F
:1045D000002310461946FCF7BFFA0646124BD3E9F2
:1045E000002310461946FCF7B7FA03461946304631
:1045F00009F04AFD07F10803F96C184607F0F2F9D3
:1046000055E400BFAFF30080C3F5285C8FC2ED3FD7
:104610009EEFA7C64B37ED3FA81401089C00002071
:104620001F85EB51700100207801002090140108D3
:1046300000005940C01401088014010880B582B000
:1046400000AF7860194B1B680133184A1360184B90
:104650001B686421184605F075FE0346002B20D127
:10466000144B1B680133134A1360134809F00CFA0A
:10467000124B00221A60104B1B78002B09D0104BF4
:104680001B6801330E4A13600B4A0E490E480AF0AC
:10469000D1F9074B1B68184605F0A6FE074B01220F
:1046A0001A60642005F0AAFDCCE700BF04020020D8
:1046B000240500200802002028000020000200201D
:1046C0000C0200200814010808000020000000006F
:1046D000B0B584B000AF78604FF07E53FB60584BAC
:1046E0001B686421184605F02DFE0346002B40F0A0
:1046F0009C80544809F058FD514B1B68184605F042
:1047000073FE504BD3E908454F4BD3E9000148A352
:10471000D3E90023FBF770FF02460B46104619460B
:104720004FF00002494BFCF791F802460B4643EC70
:10473000172BB0EE470AF0EE670A0AF019FF53ECA8
:10474000102B20462946FBF757FF02460B46104622
:10475000194639A3D3E90023FBF74EFF02460B4667
:1047600014461D46F868FBF7EFFE02460B4620464E
:104770002946FBF741FF02460B4610461946344BCB
:10478000D3E90023FBF782FD02460B463049C1E91D
:1047900000232C4BD3E908452B4BD3E9000124A37C
:1047A000D3E90023FBF728FF02460B4610461946C3
:1047B0004FF00002254BFCF749F802460B4643EC4C
:1047C000172BB0EE470AF0EE670A0AF025FF53EC0C
:1047D000102B20462946FBF70FFF02460B461046DA
:1047E000194615A3D3E90023FBF706FF02460B4643
:1047F00014461D46F868FBF7A7FE02460B46204606
:104800002946FBF7F9FE02460B4610461946114BA6
:10481000D3E90023FBF73AFD02460B460D49C1E9F7
:104820000023052005F0EAFC59E700BF57E700BF69
:10483000182D4454FB21094014AE47E17A14F63F89
:104840001C050020B0010020E80100200080664027
:10485000F0010020F801002080B588B000AF78603A
:104860000523FB61274809F029F9274BD3E900010B
:104870004FF00002254BFBF709FD02460B4622498B
:10488000C1E9002307F078FA0346FB60204809F0ED
:10489000E9FA03461F4A13601D4BB3F90C30184662
:1048A000FBF740FE1C4BD3E90023FBF7EDFC02466F
:1048B0000B46C7E90423D7E90401FCF74DF9034689
:1048C000002BB8BF5B42022B14DD4FF00002134BEC
:1048D000D7E90401FBF7BAFF02460B46104619461A
:1048E000094BD3E90023FBF7D1FC02460B460649EE
:1048F000C1E9002307F10C03F969184607F072F8C3
:10490000C0E700BF10020020E801002000000840BE
:10491000D801002004000020D800002000408F4073
:1049200080B400AF72B600BF00BFFDE780B582B0B3
:1049300000AF00237B60124B5B6C114A43F4804351
:1049400053640F4B5B6C03F480437B607B680023F4
:104950003B600B4B1B6C0A4A43F080531364084BBB
:104960001B6C03F080533B603B6800220F216FF00B
:10497000010000F0E4FC00BF0837BD4680BD00BF69
:104980000038024080B58AB000AF786007F11403A8
:1049900000221A605A609A60DA601A617B681B68AC
:1049A000194A93422CD100233B61184B1B6B174AC9
:1049B00043F002031363154B1B6B03F002033B61CF
:1049C0003B694FF440637B611223BB610023FB61B1
:1049D00003233B6204237B6207F1140319460C484E
:1049E00001F0E6F80023FB60084B1B6C074A43F418
:1049F00080031364054B1B6C03F48003FB60FB68AE
:104A000000BF2837BD4680BD005800400038024036
:104A10000004024080B487B000AF78607B681B68F8
:104A2000294A93420ED100237B61284B5B6C274AB5
:104A300043F001035364254B5B6C03F001037B617E
:104A40007B693AE07B681B68214A93420ED10023C0
:104A50003B611E4B1B6C1D4A43F0040313641B4B4C
:104A60001B6C03F004033B613B6926E07B681B6819
:104A7000184A93420ED10023FB60144B5B6C134A1F
:104A800043F480335364114B5B6C03F48033FB605D
:104A9000FB6812E07B681B680F4A93420DD100232C
:104AA000BB600A4B1B6C094A43F040031364074B7D
:104AB0001B6C03F04003BB60BB6800BF1C37BD46E6
:104AC0005DF8047B704700BF0000014000380240E1
:104AD00000080040004001400018004080B58EB042
:104AE00000AF786007F1240300221A605A609A60D0
:104AF000DA601A617B681B68B3F1804F53D10023E1
:104B00003B625C4B1B6C5B4A43F001031364594BE3
:104B10001B6C03F001033B623B6A0023FB61554BB6
:104B20001B6B544A43F001031363524B1B6B03F09E
:104B30000103FB61FB690023BB614E4B1B6B4D4ABC
:104B400043F0020313634B4B1B6B03F00203BB6187
:104B5000BB694FF400437B620223BB620023FB620C
:104B600000233B6301237B6307F12403194642487A
:104B700001F01EF808237B620223BB620023FB6264
:104B800000233B6301237B6307F1240319463B4861
:104B900001F00EF8002205211C2000F0D0FB1C20A3
:104BA00000F0E9FB62E07B681B68354A93422CD138
:104BB00000237B612F4B1B6C2E4A43F002031364CE
:104BC0002C4B1B6C03F002037B617B6900233B6170
:104BD000284B1B6B274A43F002031363254B1B6BC7
:104BE00003F002033B613B6930237B620223BB621B
:104BF0000023FB6200233B6302237B6307F1240352
:104C000019461E4800F0D4FF30E07B681B681D4A3F
:104C100093422BD10023FB60164B1B6C154A43F0CB
:104C200008031364134B1B6C03F00803FB60FB6861
:104C30000023BB600F4B1B6B0E4A43F00103136351
:104C40000C4B1B6B03F00103BB60BB6803237B624F
:104C50000223BB620023FB6200233B6302237B63CE
:104C600007F124031946044800F0A2FF00BF3837BB
:104C7000BD4680BD003802400000024000040240F2
:104C800000040040000C004080B58CB000AF78609C
:104C900007F11C0300221A605A609A60DA601A61F8
:104CA0007B681B68494A93421FD10023BB61484B74
:104CB0001B6B474A43F010031363454B1B6B03F018
:104CC0001003BB61BB694FF4C043FB6102233B622D
:104CD00000237B620023BB620123FB6207F11C03FC
:104CE00019463C4800F064FF6CE07B681B683A4A58
:104CF00093421FD100237B61354B1B6B344A43F039
:104D000002031363324B1B6B03F002037B617B696D
:104D10004FF44073FB6102233B6200237B6200235C
:104D2000BB620223FB6207F11C0319462B4800F00B
:104D30003FFF47E07B681B68294A93421ED100234E
:104D40003B61234B1B6B224A43F010031363204B40
:104D50001B6B03F010033B613B696023FB61022383
:104D60003B6200237B620023BB620323FB6207F1EB
:104D70001C031946174800F01BFF23E07B681B68E3
:104D8000184A93421ED10023FB60114B1B6B104A43
:104D900043F0020313630E4B1B6B03F00203FB6033
:104DA000FB684FF40043FB6102233B6200237B62FC
:104DB0000023BB620923FB6207F11C031946074865
:104DC00000F0F6FE00BF3037BD4680BD0000014058
:104DD0000038024000100240000800400004024079
:104DE000004001400018004080B58AB000AF7860F4
:104DF00007F1140300221A605A609A60DA601A619F
:104E00007B681B68344A934262D100233B61334B79
:104E10001B6C324A43F480231364304B1B6C03F445
:104E200080233B613B690023FB602C4B1B6B2B4AAF
:104E300043F008031363294B1B6B03F00803FB606B
:104E4000FB684FF440737B610223BB610023FB616D
:104E500002233B6207237B6207F1140319462048B3
:104E600000F0A6FE1F4B204A1A601E4B4FF0006256
:104E70005A601C4B00229A601A4B0022DA60194BD0
:104E80004FF480621A61174B00225A61154B0022C1
:104E90009A61144B0022DA61124B00221A62114B04
:104EA00000225A620F4800F081FA0346002B01D01D
:104EB000FFF736FD7B680B4ADA630A4A7B68936327
:104EC00000220521272000F03AFA272000F053FAAB
:104ED00000BF2837BD4680BD004800400038024072
:104EE000000C0240A40400202860024080B400AFFF
:104EF00000BFFDE780B400AF00BFFDE780B400AFA6
:104F000000BFFDE780B400AF00BFFDE780B400AF95
:104F100000BFFDE780B400AF00BFBD465DF8047B75
:104F2000704780B500AF00F0EBF807F05FFA03467A
:104F3000012B01D008F058F900BF80BD80B500AF4B
:104F4000024800F0CBFB00BF80BD00BFA4040020DE
:104F500080B500AF024802F029FF00BF80BD00BF4E
:104F6000AC02002080B500AF024803F031FF00BF63
:104F700080BD00BF5C04002080B586B000AF7860C3
:104F8000144A154BD31A7B617B693B61134B1B6839
:104F9000002B02D1114B124A1A60104B1A687B6821
:104FA00013443A699A4207D209F0D0FD03460C2215
:104FB0001A604FF0FF3309E0084B1B68FB60074B9A
:104FC0001A687B681344054A1360FB681846183753
:104FD000BD4680BD00000220000400003405002012
:104FE000509E002080B400AF064BD3F88830054AAD
:104FF00043F47003C2F8883000BFBD465DF8047BFF
:10500000704700BF00ED00E0DFF834D00D480E49D6
:105010000E4A002302E0D458C4500433C4188C4212
:10502000F9D30B4A0B4C002301E013600432A24277
:10503000FBD3FFF7D7FF09F08FFDFCF7D7F87047D8
:105040000000022000000020500100204024010840
:10505000500100204C9E0020FEE7000080B500AF0C
:105060000E4B1B680D4A43F4007313600B4B1B6817
:105070000A4A43F480631360084B1B68074A43F4F1
:1050800080731360032000F04FF90F2000F008F840
:10509000FFF74CFC0023184680BD00BF003C0240D7
:1050A00080B582B000AF7860124B1A68124B1B7843
:1050B00019464FF47A73B3FBF1F3B2FBF3F31846DE
:1050C00000F067F90346002B01D001230EE07B6856
:1050D0000F2B0AD8002279684FF0FF3000F02FF92B
:1050E000064A7B681360002300E001231846083756
:1050F000BD4680BDE0000020E8000020E400002064
:1051000080B400AF064B1B781A46064B1B6813444D
:10511000044A136000BFBD465DF8047B704700BFC2
:10512000E80000203805002080B400AF034B1B6866
:105130001846BD465DF8047B704700BF3805002067
:1051400080B584B000AF7860FFF7EEFFB8607B6891
:10515000FB60FB68B3F1FF3F05D00A4B1B781A4692
:10516000FB681344FB6000BFFFF7DEFF0246BB682D
:10517000D31AFA689A42F7D800BF00BF1037BD466D
:1051800080BD00BFE800002080B485B000AF78602B
:105190007B6803F00703FB600C4BDB68BB60BA68FD
:1051A0004FF6FF031340BB60FB681A02BB68134352
:1051B00043F0BF6343F40033BB60044ABB68D36071
:1051C00000BF1437BD465DF8047B704700ED00E07A
:1051D00080B400AF044BDB681B0A03F007031846DA
:1051E000BD465DF8047B704700ED00E080B483B0FD
:1051F00000AF0346FB7197F90730002B0BDBFB79FF
:1052000003F01F02074997F907305B09012000FAF4
:1052100002F241F8232000BF0C37BD465DF8047B45
:10522000704700BF00E100E080B483B000AF0346E8
:105230003960FB7197F90730002B0ADB3B68DAB263
:105240000C4997F907301201D2B20B4483F80023BE
:105250000AE03B68DAB20849FB7903F00F03043B2C
:105260001201D2B20B441A7600BF0C37BD465DF86E
:10527000047B704700E100E000ED00E080B489B0FD
:1052800000AFF860B9607A60FB6803F00703FB6168
:10529000FB69C3F10703042B28BF0423BB61FB692F
:1052A0000433062B02D9FB69033B00E000237B613A
:1052B0004FF0FF32BB6902FA03F3DA43BB681A40CE
:1052C0007B699A404FF0FF317B6901FA03F3D943C0
:1052D0007B680B40134318462437BD465DF8047BBA
:1052E0007047000080B582B000AF78607B68013BFA
:1052F000B3F1807F01D301230FE00A4A7B68013BB1
:1053000053600F214FF0FF30FFF78EFF054B002257
:105310009A60044B07221A60002318460837BD46DE
:1053200080BD00BF10E000E080B582B000AF7860C3
:105330007868FFF729FF00BF0837BD4680BD80B5FC
:1053400086B000AF0346B9607A60FB7300237B61CF
:10535000FFF73EFF78617A68B9687869FFF78EFFDA
:10536000024697F90F3011461846FFF75DFF00BF60
:105370001837BD4680BD80B582B000AF0346FB71D3
:1053800097F907301846FFF731FF00BF0837BD46D1
:1053900080BD80B582B000AF78607868FFF7A2FF6B
:1053A000034618460837BD4680BD000080B586B06C
:1053B00000AF786000237B61FFF7B6FE38617B6841
:1053C000002B01D1012399E07B68022283F835206C
:1053D0007B68002283F834207B681B681A687B682E
:1053E0001B6822F001021A600FE0FFF79DFE0246E3
:1053F0003B69D31A052B08D97B6820225A657B6844
:10540000032283F83520032378E07B681B681B6840
:1054100003F00103002BE8D17B681B681B687B61EC
:105420007A69384B13407B617B685A687B689B685C
:105430001A437B68DB681A437B681B691A437B68E5
:105440005B691A437B689B691A437B68DB691A4373
:105450007B681B6A13437A6913437B617B685B6AD1
:10546000042B07D17B68DA6A7B681B6B13437A696C
:1054700013437B617B681B687A691A607B681B68D1
:105480005B697B617B6923F007037B617B685B6AF7
:105490007A6913437B617B685B6A042B17D17B6855
:1054A0009B6A7A6913437B617B68DB6A002B0ED0B1
:1054B000786800F001FB0346002B08D07B6840228F
:1054C0005A657B68012283F83520012316E07B684A
:1054D0001B687A695A61786800F0B8FA0346FB6085
:1054E0007B68DB6D3F229A40FB689A607B680022F4
:1054F0005A657B68012283F8352000231846183747
:10550000BD4680BD3F8010F080B586B000AFF8602A
:10551000B9607A603B600023FB75FB689B6D3B6163
:10552000FB6893F83430012B01D1022340E0FB6883
:10553000012283F83420FB6893F83530DBB2012B6D
:105540002FD1FB68022283F83520FB6800225A65C0
:105550003B687A68B968F86800F04AFAFB68DB6D66
:105560003F229A403B699A60FB681B681A68FB6897
:105570001B6842F016021A60FB681B6C002B07D0F8
:10558000FB681B681A68FB681B6842F008021A6017
:10559000FB681B681A68FB681B6842F001021A600E
:1055A00005E0FB68002283F834200223FB75FB7DB5
:1055B00018461837BD4680BD80B584B000AF78600E
:1055C0007B689B6DFB60FFF7AFFDB8607B6893F86D
:1055D0003530DBB2022B08D07B6880225A657B68AD
:1055E000002283F83420012352E07B681B681A688C
:1055F0007B681B6822F016021A607B681B685A6978
:105600007B681B6822F080025A617B681B6C002B50
:1056100003D17B689B6C002B07D07B681B681A68E2
:105620007B681B6822F008021A607B681B681A6896
:105630007B681B6822F001021A6013E0FFF774FD1B
:105640000246BB68D31A052B0CD97B6820225A6509
:105650007B68032283F835207B68002283F834209E
:10566000032315E07B681B681B6803F00103002B14
:10567000E4D17B68DB6D3F229A40FB689A607B68CF
:10568000012283F835207B68002283F83420002330
:1056900018461037BD4680BD80B483B000AF786037
:1056A0007B6893F83530DBB2022B04D07B68802214
:1056B0005A6501230CE07B68052283F835207B685E
:1056C0001B681A687B681B6822F001021A600023BD
:1056D00018460C37BD465DF8047B704780B586B030
:1056E00000AF78600023BB608E4B1B688E4AA2FB24
:1056F00003239B0A7B617B689B6D3B613B691B6855
:10570000FB607B68DB6D08229A40FB681340002B2E
:105710001AD07B681B681B6803F00403002B13D0AE
:105720007B681B681A687B681B6822F004021A6099
:105730007B68DB6D08229A403B699A607B685B6DF1
:1057400043F001027B685A657B68DB6D01229A4059
:10575000FB681340002B12D07B681B685B6903F069
:105760008003002B0BD07B68DB6D01229A403B69E4
:105770009A607B685B6D43F002027B685A657B68C8
:10578000DB6D04229A40FB681340002B12D07B682B
:105790001B681B6803F00203002B0BD07B68DB6DDA
:1057A00004229A403B699A607B685B6D43F0040277
:1057B0007B685A657B68DB6D10229A40FB6813405A
:1057C000002B43D07B681B681B6803F00803002B89
:1057D0003CD07B68DB6D10229A403B699A607B6805
:1057E0001B681B6803F48023002B18D07B681B68A0
:1057F0001B6803F40023002B08D17B681B6C002B73
:1058000024D07B681B6C786898471FE07B689B6C92
:10581000002B1BD07B689B6C7868984716E07B68F0
:105820001B681B6803F48073002B07D17B681B681F
:105830001A687B681B6822F008021A607B681B6C80
:10584000002B03D07B681B6C786898477B68DB6D06
:1058500020229A40FB681340002B00F08F807B6869
:105860001B681B6803F01003002B00F087807B6827
:10587000DB6D20229A403B699A607B6893F8353053
:10588000DBB2052B36D17B681B681A687B681B6806
:1058900022F016021A607B681B685A697B681B68D5
:1058A00022F080025A617B681B6C002B03D17B685D
:1058B0009B6C002B07D07B681B681A687B681B6891
:1058C00022F008021A607B68DB6D3F229A403B6938
:1058D0009A607B68012283F835207B68002283F878
:1058E00034207B681B6D002B7ED07B681B6D786835
:1058F000984779E07B681B681B6803F48023002BC2
:105900001DD07B681B681B6803F40023002B0DD19E
:105910007B685B6C002B31D07B685B6C7868984748
:105920002CE000BFE0000020B5814E1B7B68DB6BE4
:10593000002B23D07B68DB6B786898471EE07B6880
:105940001B681B6803F48073002B0FD17B681B68F6
:105950001A687B681B6822F010021A607B680122BB
:1059600083F835207B68002283F834207B68DB6B6A
:10597000002B03D07B68DB6B786898477B685B6D96
:10598000002B32D07B685B6D03F00103002B22D02B
:105990007B68052283F835207B681B681A687B6862
:1059A0001B6822F001021A60BB680133BB607A6990
:1059B0009A4207D37B681B681B6803F00103002B26
:1059C000F2D100E000BF7B68012283F835207B68BC
:1059D000002283F834207B68DB6C002B05D07B68C9
:1059E000DB6C7868984700E000BF1837BD4680BD83
:1059F00080B485B000AFF860B9607A603B60FB6846
:105A00001B681A68FB681B6822F480221A60FB6816
:105A10001B683A685A60FB689B68402B08D1FB689A
:105A20001B687A689A60FB681B68BA68DA6007E0EE
:105A3000FB681B68BA689A60FB681B687A68DA6062
:105A400000BF1437BD465DF8047B704780B485B055
:105A500000AF78607B681B68DBB2103B144AA2FB86
:105A600003231B09FB60134AFB6813441B781A4687
:105A70007B68DA65FB68032B09D97B681B6823F414
:105A80007F7323F003031A1D7B689A6507E07B6828
:105A90001B6823F47F7323F003037A6893657B68A4
:105AA0009B6D18461437BD465DF8047B704700BFF8
:105AB000ABAAAAAA7816010880B485B000AF7860B6
:105AC0000023FB737B689B6ABB607B689B69002B30
:105AD0001FD1BB68032B56D801A252F823F000BF98
