:020000040800F2
:1000000000000220F1500008D54F0008DD4F000825
:10001000E54F0008ED4F0008F54F00080000000014
:1000200000000000000000000000000011D00008E7
:10003000FD4F00080000000061D200080B500008CE
:100040004151000841510008415100084151000848
:100050004151000841510008415100084151000838
:100060004151000841510008415100084151000828
:100070002550000841510008415100084151000835
:100080004151000841510008415100084151000808
:1000900041510008415100084151000841510008F8
:1000A00041510008415100084151000841510008E8
:1000B00039500008415100084151000841510008E1
:1000C00041510008415100084151000841510008C8
:1000D0004151000841510008415100084D500008AD
:1000E00041510008415100084151000841510008A8
:1000F0004151000841510008415100084151000898
:100100004151000841510008415100084151000887
:100110004151000841510008415100084151000877
:100120004151000841510008415100084151000867
:100130004151000841510008415100084151000857
:100140004151000841510008415100084151000847
:100150004151000841510008415100084151000837
:100160004151000841510008415100084151000827
:1001700041510008415100084151000800000000B1
:08018000415100084151000843
:1001900010B5054C237833B9044B13B10448AFF3C1
:1001A00000800123237010BD7001002000000000BA
:1001B0001814010808B5034B1BB103490348AFF3FA
:1001C000008008BD00000000740100201814010820
:1001D000034613F8012B002AFBD1181A0138704787
:1001E00001F0FF01102A2BDB10F0070F08D010F8E8
:1001F000013B013A8B422DD010F0070F42B3F6D1EC
:10020000F0B441EA012141EA014122F007047FF004
:1002100000070023F0E80256083C85EA010586EA5B
:10022000010685FA47F5A3FA87F586FA47F6A5FA97
:1002300087F68EB9EED1F0BC01F0FF0102F00702A3
:1002400032B110F8013B013A83EA010313B1F8D14E
:100250000020704701387047002D06BF354603382F
:10026000073815F0010F07D1013015F4807F02BF68
:10027000013015F4C03F0130F0BC0138704700BFB9
:1002800081F0004102E000BF83F0004330B54FEA47
:1002900041044FEA430594EA050F08BF90EA020FB4
:1002A0001FBF54EA000C55EA020C7FEA645C7FEA47
:1002B000655C00F0E2804FEA5454D4EB5555B8BF6A
:1002C0006D420CDD2C4480EA020281EA030382EADB
:1002D000000083EA010180EA020281EA0303362D6D
:1002E00088BF30BD11F0004F4FEA01314FF4801C40
:1002F0004CEA113102D0404261EB410113F0004F52
:100300004FEA03334CEA133302D0524263EB430308
:1003100094EA050F00F0A780A4F10104D5F1200EA6
:100320000DDB02FA0EFC22FA05F2801841F1000101
:1003300003FA0EF2801843FA05F359410EE0A5F1D5
:1003400020050EF1200E012A03FA0EFC28BF4CF006
:10035000020C43FA05F3C01851EBE37101F00045BC
:1003600007D54FF0000EDCF1000C7EEB00006EEBC9
:100370000101B1F5801F1BD3B1F5001F0CD3490853
:100380005FEA30004FEA3C0C04F101044FEA4452AA
:1003900012F5800F80F09A80BCF1004F08BF5FEA31
:1003A000500C50F1000041EB045141EA050130BD11
:1003B0005FEA4C0C404141EB0101013C28BFB1F523
:1003C000801FE9D291F0000F04BF01460020B1FA6E
:1003D00081F308BF2033A3F10B03B3F120020CDA41
:1003E0000C3208DD02F1140CC2F10C0201FA0CF01F
:1003F00021FA02F10CE002F11402D8BFC2F1200C84
:1004000001FA02F120FA0CFCDCBF41EA0C01904039
:10041000E41AA2BF01EB0451294330BD6FEA040482
:100420001F3C1CDA0C340EDC04F11404C4F120026D
:1004300020FA04F001FA02F340EA030021FA04F37F
:1004400045EA030130BDC4F10C04C4F1200220FAD6
:1004500002F001FA04F340EA0300294630BD21FA14
:1004600004F0294630BD94F0000F83F4801306BFDA
:1004700081F480110134013D4EE77FEA645C18BFCE
:100480007FEA655C29D094EA050F08BF90EA020F65
:1004900005D054EA000C04BF1946104630BD91EA5D
:1004A000030F1EBF0021002030BD5FEA545C05D160
:1004B0004000494128BF41F0004130BD14F580049F
:1004C0003CBF01F5801130BD01F0004545F0FE4113
:1004D00041F470014FF0000030BD7FEA645C1ABF48
:1004E000194610467FEA655C1CBF0B46024650EA7F
:1004F000013406BF52EA033591EA030F41F40021AB
:1005000030BD00BF90F0000F04BF0021704730B530
:100510004FF4806404F132044FF000054FF0000105
:1005200050E700BF90F0000F04BF0021704730B5C6
:100530004FF4806404F1320410F0004548BF40429B
:100540004FF000013EE700BF42004FEAE2014FEAF0
:1005500031014FEA02701FBF12F07F4393F07F4FCB
:1005600081F06051704732F07F4208BF704793F0CE
:100570007F4F04BF41F40021704730B54FF46074E1
:1005800001F0004521F000411CE700BF50EA0102E4
:1005900008BF704730B54FF000050AE050EA01028D
:1005A00008BF704730B511F0004502D5404261EBFD
:1005B00041014FF4806404F132045FEA915C3FF43E
:1005C000D8AE4FF003025FEADC0C18BF03325FEADB
:1005D000DC0C18BF033202EBDC02C2F1200300FA8C
:1005E00003FC20FA02F001FA03FE40EA0E0021FAB1
:1005F00002F11444BDE600BF70B54FF0FF0C4CF49F
:10060000E06C1CEA11541DBF1CEA135594EA0C0F50
:1006100095EA0C0F00F0DEF82C4481EA030621EA8B
:100620004C5123EA4C5350EA013518BF52EA0335C6
:1006300041F4801143F4801338D0A0FB02CE4FF078
:100640000005E1FB02E506F00042E0FB03E54FF0A8
:100650000006E1FB03569CF0000F18BF4EF0010EA0
:10066000A4F1FF04B6F5007F64F5407404D25FEA9C
:100670004E0E6D4146EB060642EAC62141EA55514F
:100680004FEAC52040EA5E504FEACE2EB4F1FD0C91
:1006900088BFBCF5E06F1ED8BEF1004F08BF5FEA0F
:1006A000500E50F1000041EB045170BD06F00046C1
:1006B00046EA010140EA020081EA0301B4EB5C046E
:1006C000C2BFD4EB0C0541EA045170BD41F4801166
:1006D0004FF0000E013C00F3AB8014F1360FDEBF8B
:1006E000002001F0004170BDC4F10004203C35DA67
:1006F0000C341BDC04F11404C4F1200500FA05F3EA
:1007000020FA04F001FA05F240EA020001F000428A
:1007100021F0004110EBD37021FA04F642EB060100
:100720005EEA430E08BF20EAD37070BDC4F10C042A
:10073000C4F1200500FA04F320FA05F001FA04F2EE
:1007400040EA020001F0004110EBD37041F10001DA
:100750005EEA430E08BF20EAD37070BDC4F12005E5
:1007600000FA05F24EEA020E20FA04F301FA05F24D
:1007700043EA020321FA04F001F0004121FA04F2F5
:1007800020EA020000EBD3705EEA430E08BF20EAC5
:10079000D37070BD94F0000F0FD101F000464000FF
:1007A00041EB010111F4801F08BF013CF7D041EA81
:1007B000060195F0000F18BF704703F00046520085
:1007C00043EB030313F4801F08BF013DF7D043EA56
:1007D0000603704794EA0C0F0CEA135518BF95EA0C
:1007E0000C0F0CD050EA410618BF52EA4306D1D193
:1007F00081EA030101F000414FF0000070BD50EAB2
:10080000410606BF1046194652EA430619D094EA3B
:100810000C0F02D150EA013613D195EA0C0F05D125
:1008200052EA03361CBF104619460AD181EA030179
:1008300001F0004141F0FE4141F470014FF0000031
:1008400070BD41F0FE4141F4780170BD70B54FF0CC
:10085000FF0C4CF4E06C1CEA11541DBF1CEA13554C
:1008600094EA0C0F95EA0C0F00F0A7F8A4EB05042E
:1008700081EA030E52EA03354FEA013100F0888025
:100880004FEA03334FF0805545EA131343EA1263EE
:100890004FEA022245EA111545EA10654FEA0026A3
:1008A0000EF000419D4208BF964244F1FD0404F55C
:1008B000407402D25B084FEA3202B61A65EB0305B8
:1008C0005B084FEA32024FF480104FF4002CB6EB75
:1008D000020E75EB030E22BFB61A754640EA0C00F5
:1008E0005B084FEA3202B6EB020E75EB030E22BF35
:1008F000B61A754640EA5C005B084FEA3202B6EB76
:10090000020E75EB030E22BFB61A754640EA9C0034
:100910005B084FEA3202B6EB020E75EB030E22BF04
:10092000B61A754640EADC0055EA060E18D04FEAC2
:10093000051545EA16754FEA06164FEAC30343EA62
:1009400052734FEAC2025FEA1C1CC0D111F4801F2F
:100950000BD141EA00014FF000004FF0004CB6E728
:1009600011F4801F04BF01430020B4F1FD0C88BFC7
:10097000BCF5E06F3FF6AFAEB5EB030C04BFB6EBD2
:10098000020C5FEA500C50F1000041EB045170BDC5
:100990000EF0004E4EEA113114EB5C04C2BFD4EBF2
:1009A0000C0541EA045170BD41F480114FF0000E76
:1009B000013C90E645EA060E8DE60CEA135594EAF2
:1009C0000C0F08BF95EA0C0F3FF43BAF94EA0C0FF5
:1009D0000AD150EA01347FF434AF95EA0C0F7FF46A
:1009E00025AF104619462CE795EA0C0F06D152EABE
:1009F00003353FF4FDAE1046194622E750EA4106A2
:100A000018BF52EA43067FF4C5AE50EA41047FF4B2
:100A10000DAF52EA43057FF4EBAE12E74FF0FF3C17
:100A200006E000BF4FF0010C02E000BF4FF0010CE8
:100A30004DF804CD4FEA410C7FEA6C5C4FEA430C61
:100A400018BF7FEA6C5C1BD001B050EA410C0CBFB0
:100A500052EA430C91EA030F02BF90EA020F002012
:100A6000704710F1000F91EA030F58BF994208BF79
:100A700090422CBFD8176FEAE37040F00100704736
:100A80004FEA410C7FEA6C5C02D150EA013C07D18D
:100A90004FEA430C7FEA6C5CD6D152EA033CD3D0D8
:100AA0005DF8040B704700BF8446104662468C46D2
:100AB0001946634600E000BF01B5FFF7B7FF002805
:100AC00048BF10F1000F01BD4DF808EDFFF7F4FF2E
:100AD0000CBF012000205DF808FB00BF4DF808EDB9
:100AE000FFF7EAFF34BF012000205DF808FB00BFDC
:100AF0004DF808EDFFF7E0FF94BF012000205DF8FE
:100B000008FB00BF4DF808EDFFF7CEFF94BF0120B2
:100B100000205DF808FB00BF4DF808EDFFF7C4FFAB
:100B200034BF012000205DF808FB00BF4FEA410CF4
:100B30007FEA6C5C02D150EA013C0AD14FEA430CD7
:100B40007FEA6C5C02D152EA033C02D14FF0000014
:100B500070474FF0010070474FEA410212F5001252
:100B600015D211D56FF47873B3EB625212D94FEAF4
:100B7000C12343F0004343EA505311F0004F23FADE
:100B800002F018BF404270474FF00000704750EA33
:100B9000013005D111F0004008BF6FF000407047F0
:100BA0004FF00000704700BF4A0011D212F500124A
:100BB00011D20DD56FF47873B3EB62520ED44FEAB5
:100BC000C12343F0004343EA505323FA02F0704735
:100BD0004FF00000704750EA013002D14FF0FF3073
:100BE00070474FF00000704753B94AB9002908BF59
:100BF00000281CBF4FF0FF314FF0FF3000F088B9E4
:100C0000ADF1080C6DE904CE00F006F8DDF804E063
:100C1000DDE9022304B070472DE9F047089D8E46B8
:100C200004468846002B4AD18A42174662D9B2FA56
:100C300082F64EB1C6F1200301FA06F820FA03F35A
:100C4000B74043EA0808B4404FEA174E1FFA87FC42
:100C5000B8FBFEF1230C0EFB118843EA084301FBAD
:100C60000CF29A4209D9FB1801F1FF3080F0EA80BA
:100C70009A4240F2E78002393B449A1AA3B2B2FB8F
:100C8000FEF00EFB102243EA024300FB0CFC9C45E5
:100C900009D9FB1800F1FF3280F0D6809C4540F264
:100CA000D3803B44023840EA0140A3EB0C0300210F
:100CB0001DB1F3400022C5E90032BDE8F0878B4248
:100CC00005D90DB1C5E9000100210846F5E7B3FAE1
:100CD00083F1002946D1734502D3824200F2058197
:100CE000841A6EEB030201209046002DE5D0C5E981
:100CF0000048E2E7002A00F09080B2FA82F6002E67
:100D000040F0A4808A1A030C4FEA174E80B2BCB29E
:100D10000121B2FBFEFC0EFB1C2243EA024304FB52
:100D20000CF29A4207D9FB180CF1FF3802D29A4212
:100D300000F2E080C4469B1AB3FBFEF20EFB1233B6
:100D400040EA034302FB04F49C4207D9FB1802F17A
:100D5000FF3002D29C4200F2CA8002461B1B42EACC
:100D60000C40A5E7C1F120068B4022FA06F71F438D
:100D70000EFA01F420FA06F32EFA06FE4FEA17499E
:100D8000234300FA01F81FFA87FCBEFBF9F01C0CA4
:100D900009FB10EE44EA0E4400FB0CFEA64502FAE5
:100DA00001F209D93C1900F1FF3A80F09C80A64578
:100DB00040F2998002383C44A4EB0E041FFA83FEF3
:100DC000B4FBF9F309FB13444EEA044403FB0CFCA7
:100DD000A44508D93C1903F1FF3E80F08280A44568
:100DE0007FD9023B3C4443EA0040A4EB0C04A0FB47
:100DF00002EC64457346E14662D35FD05DB1B8EB67
:100E0000030264EB090404FA06F622FA01F31E4316
:100E1000CC40C5E9006400214FE7B1FBF2FC010CB6
:100E200041EA0E4180B240EA01423B4638463C4628
:100E3000B846BE462026B1FBF7F1A2EB080241EA14
:100E40000C4166E7014618E710462CE7C6F1200280
:100E50002EFA02F3B740B14020FA02F24FEA174EE1
:100E60000A43B3FBFEF8BCB20EFB1833110C41EA87
:100E7000034108FB04F9B04089454FEA104380B2B2
:100E80003ED9791808F1FF3C01D289451FD8A1EB62
:100E90000901B1FBFEF909FB04F80EFB191192B22E
:100EA00042EA0142424529D2BA1809F1FF31C4D2BF
:100EB0004245C2D2A9F102013A44BEE7F0459DD2B3
:100EC000BEEB02036CEB070C0138E14696E7A7EB9B
:100ED00009094944A8F1020CB1FBFEF909FB04F829
:100EE000DBE773467FE7504666E70846FDE63B448E
:100EF000023A33E7ACF1020C3B441CE749469CE75D
:100F0000A1EB0901C446B1FBFEF909FB04F8C4E7F3
:100F1000704700BF80B58EB000AF78600023FB85BE
:100F2000012387F82D3007F108037A681549184620
:100F30000DF06CFD07F1280207F10803124918466D
:100F40000DF05BFE786300233B630AE007F12803A2
:100F50001A460D4900200DF050FE78633B6B0133BB
:100F60003B6397F82D303A6B9A42EFDB786B0DF0CC
:100F700049FD0346FB85B7F92E3018463837BD4684
:100F800080BD00BFE8140108EC14010880B58EB0E4
:100F900000AF78600023FB85032387F82D3007F12D
:100FA00008037A68154918460DF030FD07F128024C
:100FB00007F10803124918460DF01FFE786300235D
:100FC0003B630AE007F128031A460D4900200DF0A3
:100FD00014FE78633B6B01333B6397F82D303A6B1B
:100FE0009A42EFDB786B0DF00DFD0346FB85B7F9F8
:100FF0002E3018463837BD4680BD00BFE8140108C2
:10100000EC14010880B58EB000AF7860002387F83B
:101010002F30012387F82E3007F108037A6816492C
:1010200018460DF0F3FC07F1280207F108031349F5
:1010300018460DF0E2FD786300233B630AE007F1F8
:1010400028031A460D4900200DF0D7FD78633B6B4D
:1010500001333B6397F82E303A6B9A42EFDB786BA3
:101060000DF0D0FC034687F82F3097F82F30184644
:101070003837BD4680BD00BFE8140108EC140108F4
:10108000B0B588B000AF87ED060B87ED041B87ED88
:10109000022B87ED003BD7E90423D7E90601FFF7D0
:1010A000F3F802460B4643EC172B9FED1B1BB0EEEB
:1010B000470AF0EE670A0EF02FFA55EC104BD7E90D
:1010C0000023D7E90201FFF7DFF802460B4643ECA5
:1010D000172B9FED111BB0EE470AF0EE670A0EF0DA
:1010E0001BFA53EC102B20462946FFF7CFF8024697
:1010F0000B4643EC172BB0EE470AF0EE670A0EF0F2
:101100007BFAB0EE407AF0EE607AB0EE470AF0EE8D
:10111000670A2037BD46B0BD000000000000004057
:10112000B0B58CB002AF07F108031E2200211846AB
:101130000DF012FD194BD3E9002310461946FFF7B5
:101140000BFD0446164BD3E9002310461946FFF762
:1011500003FD0546134BD3E9002310461946FFF75C
:10116000FBFC0346104A126807F108000192009345
:101170002B4622460D490DF049FC0A23BB803A1D3F
:1011800007F10803114618460DF0EEFC0346184619
:101190000CF0BEFC00BF2837BD46B0BD08020020E1
:1011A000100200201802002048050020F014010859
:1011B00080B588B000AF3B461E22002118460DF0D6
:1011C000CBFC084B1B681A463B46074918460DF0F6
:1011D0001DFC3B4618460CF09BFC00BF2037BD466B
:1011E00080BD00BF480500200415010880B584B00B
:1011F00000AF03F0A7FF00F0F5F800F0C3FC00F02B
:10120000A1FC00F075FC00F0CDFA00F023FA00F02C
:1012100075FA00F045F900F09BFB00F007FC00F0C8
:101220006DF900F041FB0DF0E5FA494949480CF031
:101230000FFC494B494A4A494A480CF031FF4FF4E8
:10124000FA7003F0F1FF484A3B1D07CA83E8070024
:101250000DF0AAF93B1D1A460A210A200DF098FA52
:101260000DF01CF94FF47A7003F0DEFF3F480CF0EC
:1012700095FC03463E4A13603E480DF049FB0DF0D5
:1012800093F93D4A0A210A200DF082FA0DF006F981
:1012900008F04CFF0DF088F9384A0A210A200DF0B9
:1012A00077FA0DF0FBF8364A0121012009F035F8F4
:1012B0000346344A1360344A0021012009F02DF816
:1012C0000346324A1360324A0121012009F025F811
:1012D0000346304A1360304A0021304808F070FF5E
:1012E00003462F4A13602F4A00212F4808F068FF59
:1012F00003462E4A13602E4A00212E4808F060FF54
:1013000003462D4A13602D4A00212D4808F058FF4E
:1013100003462C4A13602C4A00212C4808F050FF49
:1013200003462B4A13602B4A00212B4808F048FF44
:1013300003462A4A13600DF037F9294A0A210A2088
:101340000DF026FA0DF0AAF808F014FF00BFFDE733
:10135000C40400207C040020A4030020CC02002050
:10136000840200205C0300203015010830020020B8
:10137000000000203404002008150108141501089D
:10138000041701083C05002014170108400500203F
:1013900024170108440500202C160108751C0008BC
:1013A0002405002050160108311D000828050020E2
:1013B00074160108754000082C05002098160108D5
:1013C0004947000830050020BC160108D94700082D
:1013D00034050020E01601086149000838050020A6
:1013E0002415010880B594B000AF07F12003302226
:1013F000002118460DF0B0FB07F10C0300221A6023
:101400005A609A60DA601A610023BB60224B1B6C41
:10141000214A43F0805313641F4B1B6C03F080532D
:10142000BB60BB6800237B601C4B1B681B4A43F4FA
:1014300080431360194B1B6803F480437B607B6817
:1014400002233B620123FB6210233B630023BB6347
:1014500007F12003184605F021FE0346002B01D0BA
:1014600003F0D2FA0F23FB6000233B6100237B6172
:101470000023BB610023FB6107F10C030021184628
:1014800006F084F80346002B01D003F0BDFA00BF3C
:101490005037BD4680BD00BF00380240007000409C
:1014A00080B500AF124B134A1A60114B124A5A60B2
:1014B0000F4B00229A600E4B0022DA600C4B4FF467
:1014C00080421A610A4B00225A61094B00229A613C
:1014D000074B0022DA61064B00221A62044804F02E
:1014E00091FD0346002B01D003F08EFA00BF80BDB2
:1014F0003002002000580040A086010080B596B060
:1015000000AF07F1480300221A605A609A60DA605F
:1015100007F1400300221A605A6007F124030022F9
:101520001A605A609A60DA601A615A619A613B1DCA
:101530002022002118460DF00FFB444B444A1A604C
:10154000424B00225A60414B00229A603F4B41F6C9
:101550001F42DA603D4B00221A613C4B00225A6167
:101560003A4B00229A61394806F0F0F90346002B05
:1015700001D003F049FA4FF48053BB6407F14803EC
:101580001946324806F038FE0346002B01D003F01E
:101590003BFA2E4806F029FA0346002B01D003F04F
:1015A00033FA00233B6400237B6407F140031946B0
:1015B000264807F06BFA0346002B01D003F024FA0B
:1015C00060237B620023BB620223FB6200233B6338
:1015D00000237B630023BB630023FB6307F1240329
:1015E00008221946194806F045FD0346002B01D094
:1015F00003F00AFA07F124030C221946134806F0F7
:1016000039FD0346002B01D003F0FEF900237B6077
:101610000023BB600023FB6000233B6100237B6150
:101620004FF40053BB6100233B623B1D1946074842
:1016300007F0A8FA0346002B01D003F0E5F90348B0
:1016400003F096FB00BF5837BD4680BD84020020E2
:101650000000014080B58CB000AF07F10C032422DC
:10166000002118460DF078FA3B1D00221A605A60DE
:10167000214B4FF080421A601F4B00225A601E4BD4
:1016800000229A601C4B4FF6FF72DA601A4B002260
:101690001A61194B00229A610323FB6000233B610E
:1016A00001237B610023BB610A23FB6100233B62B2
:1016B00001237B620023BB620A23FB6207F10C0358
:1016C00019460D4806F0B2FA0346002B01D003F08C
:1016D0009BF900237B600023BB603B1D1946064835
:1016E00007F0D4F90346002B01D003F08DF900BFB9
:1016F0003037BD4680BD00BFCC02002080B58CB025
:1017000000AF07F10C032422002118460DF024FA43
:101710003B1D00221A605A60204B214A1A601F4B61
:1017200000225A601D4B00229A601C4B4FF6FF723C
:10173000DA601A4B00221A61184B00229A610323C7
:10174000FB6000233B6101237B610023BB6100231D
:10175000FB6100233B6201237B620023BB62002309
:10176000FB6207F10C0319460C4806F05FFA0346CA
:10177000002B01D003F048F900237B600023BB60FD
:101780003B1D1946054807F081F90346002B01D09F
:1017900003F03AF900BF3037BD4680BD1403002086
:1017A0000004004080B58EB000AF07F1280300228E
:1017B0001A605A609A60DA6007F1200300221A600A
:1017C0005A603B1D00221A605A609A60DA601A6102
:1017D0005A619A61324B334A1A60314B00225A6087
:1017E0002F4B00229A602E4B41F61F42DA602C4BA1
:1017F00000221A612A4B00229A61294806F0A6F8B5
:101800000346002B01D003F0FFF84FF48053BB6276
:1018100007F128031946224806F0EEFC0346002B88
:1018200001D003F0F1F81E4806F0DFF80346002B64
:1018300001D003F0E9F800233B6200237B6207F14B
:1018400020031946164807F021F90346002B01D062
:1018500003F0DAF860237B600023BB600223FB60A7
:1018600000237B613B1D082219460D4806F002FC4F
:101870000346002B01D003F0C7F83B1D0C2219468C
:10188000074806F0F7FB0346002B01D003F0BCF835
:10189000034803F06DFA00BF3837BD4680BD00BF76
:1018A0005C0300200008004080B58CB000AF07F159
:1018B0000C032422002118460DF04EF93B1D002296
:1018C0001A605A60204B214A1A601F4B00225A604E
:1018D0001D4B00229A601C4B4FF6FF72DA601A4BC8
:1018E00000221A61184B00229A610123FB60002339
:1018F0003B6101237B610023BB610023FB6100236B
:101900003B6201237B620023BB620023FB6207F181
:101910000C0319460C4806F089F90346002B01D048
:1019200003F072F800237B600023BB603B1D194667
:10193000054807F0ABF80346002B01D003F064F82C
:1019400000BF3037BD4680BDA4030020000C00401E
:1019500080B58CB000AF07F1200300221A605A60F6
:101960009A60DA603B1D00221A605A609A60DA6061
:101970001A615A619A612B4B2B4A1A60294B00223B
:101980005A60284B00229A60264B41F61F42DA60CB
:10199000244B00221A61234B00229A61214805F052
:1019A000D5FF0346002B01D003F02EF84FF48053EF
:1019B0003B6207F1200319461A4806F01DFC034656
:1019C000002B01D003F020F8164806F00EF803466D
:1019D000002B01D003F018F860237B600023BB606C
:1019E0000223FB6000237B613B1D002219460D484A
:1019F00006F040FB0346002B01D003F005F83B1D29
:101A000004221946074806F035FB0346002B01D097
:101A100002F0FAFF034803F0ABF900BF3037BD46D0
:101A200080BD00BFEC0300200040014080B58CB0B9
:101A300000AF07F1200300221A605A609A60DA6052
:101A40003B1D00221A605A609A60DA601A615A617E
:101A50009A61254B254A1A60234BA0225A60224BDB
:101A600000229A60204B4FF47A72DA601E4B0022FB
:101A70001A611D4B80229A611B4805F067FF0346DF
:101A8000002B01D002F0C0FF4FF480533B6207F1FE
:101A900020031946144806F0AFFB0346002B01D083
:101AA00002F0B2FF104805F0A0FF0346002B01D062
:101AB00002F0AAFF60237B600023BB600023FB6071
:101AC00000237B613B1D04221946074806F0D2FA29
:101AD0000346002B01D002F097FF034803F048F9BA
:101AE00000BF3037BD4680BD3404002000180040E0
:101AF00080B500AF114B124A1A60104B4FF4E1321F
:101B00005A600E4B00229A600C4B0022DA600B4B9D
:101B100000221A61094B0C225A61084B00229A617B
:101B2000064B0022DA61054807F092F80346002BC5
:101B300001D002F069FF00BF80BD00BF7C0400201F
:101B40000048004080B582B000AF00237B600C4BA2
:101B50001B6B0B4A43F400131363094B1B6B03F419
:101B600000137B607B68002205210C2003F05BFCE6
:101B70000C2003F074FC00BF0837BD4680BD00BFD9
:101B80000038024080B58AB000AF07F1140300228C
:101B90001A605A609A60DA601A6100233B61324B26
:101BA0001B6B314A43F0100313632F4B1B6B03F085
:101BB00010033B613B690023FB602B4B1B6B2A4AE4
:101BC00043F001031363284B1B6B03F00103FB601D
:101BD000FB680023BB60244B1B6B234A43F00203CA
:101BE0001363214B1B6B03F00203BB60BB68002334
:101BF0007B601D4B1B6B1C4A43F0080313631A4B9D
:101C00001B6B03F008037B607B6800224FF480713C
:101C1000164804F0DDF900224FF4F041144804F0B6
:101C2000D7F94FF480737B610123BB610023FB6113
:101C300000233B6207F1140319460C4804F02CF80A
:101C40004FF4F0437B610123BB610023FB61002360
:101C50003B6207F114031946054804F01DF800BF64
:101C60002837BD4680BD00BF00380240001002404A
:101C7000000C024090B58BB000AF78600CF094FC83
:101C800007F10803224A234918460CF0BFFE07F16A
:101C900008031A460A210A200CF07AFD1E4BD3E9EC
:101CA000002310461946FEF757FF04461B4BD3E9A5
:101CB000002310461946FEF74FFF034607F10800C0
:101CC000224617490CF0A2FE07F108031A46142118
:101CD0000A200CF05DFD134BD3E900231046194692
:101CE000FEF73AFF024607F108030F4918460CF0C9
:101CF0008DFE07F108031A461E210A200CF048FD4C
:101D00000CF0CCFB642008F0EDFA00BFB6E700BF92
:101D1000080000203C1501081002002018020020D5
:101D200048150108080200205415010800000000B1
:101D3000B0B5DEB000AF07F5BC73A3F5BA73186099
:101D40009C480CF0E5FD4FF000024FF00003C7E99E
:101D500050234FF000024FF00003C7E94E234FF02D
:101D600000024FF00003C7E95C234FF000024FF080
:101D70000003C7E94C230A2387F86F314FF00002B4
:101D80008D4BC7E94A234FF000028C4BC7E948232B
:101D90000023A7F86A316423C7F864310023C7F829
:101DA0001C310023C7F860310023C7F81831102315
:101DB000C7F814310023C7F810314FF000024FF07C
:101DC0000003C7E942234FF000024FF00003C7E9C8
:101DD00040234FF000024FF00003C7E93E230023E9
:101DE000C7F8F4304FF000024FF00003C7E93A2380
:101DF0000CF0DEFD41F2883008F074FA6423C7F875
:101E0000643104226E496F480CF0BDFE0346002B7E
:101E100008D10CF0CDFD6C4A6C496D480CF0F6FD14
:101E200002F00FB96B4B1B686421184608F0FEFAEC
:101E30000346002B42F004810422614961480CF002
:101E4000A2FE0346002B0CD10CF0B2FD5E4A5F49A6
:101E50005F480CF0DBFD4FF4FA7008F043FA00F035
:101E6000BABE042256495C480CF08DFE0346002B96
:101E700040F0C280594952480CF0C2FE0346002B84
:101E800000F0BA804E48FFF745F803461846FEF7C3
:101E900049FB02460B46C7E94C23514BD3E90023CB
:101EA000D7E94C01FEF7F2F902460B46C7E9502389
:101EB0004FF000024FF08043D7E94C01FEF7C6FC1B
:101EC00002460B4610461946454BD3E90023FEF760
:101ED000DDF902460B46C7E94E234623C7F86431B5
:101EE000394A3A493A480CF091FD642008F0FAF971
:101EF0000CF026FDC82008F0F5F9D7F86431394A0E
:101F0000394933480CF082FD04E097F86F311846E8
:101F100008F0E8F9324BD3E90023D7E94E01FEF788
:101F2000FBFD0346002BF0D1274A284928480CF036
:101F30006DFD642008F0D6F90CF010FDC82008F003
:101F4000D1F9D7F86431294A274921480CF05EFDC0
:101F500004E097F86F31184608F0C4F9204BD3E934
:101F60000023D7E95001FEF7D7FD0346002BF0D13F
:101F7000154A164916480CF049FDC82008F0B2F978
:101F80000CF016FDC82008F0ADF90F4A0F491048B3
:101F90000CF03CFD164A0D4909480CF037FD154878
:101FA0000BF0B6FDFFF7BCF8C82008F09BF900F075
:101FB00012BE00BF340400200080414000002E40CB
:101FC000080000206015010898000020E8140108AE
:101FD000BC000020440500206815010870150108A8
:101FE00008020020A40000207815010874000020D9
:101FF000E40000204800002004229B499B480CF08C
:10200000C2FD0346002B40F0A080994996480CF091
:10201000F7FD0346002B00F098809348FEF77AFF07
:1020200003465B421846FEF77DFA02460B46C7E9B7
:102030004C23904BD3E90023D7E94C01FEF726F956
:1020400002460B46C7E950234FF000024FF0804391
:10205000D7E94C01FEF7FAFB02460B46104619463B
:10206000844BD3E90023FEF711F902460B46C7E97A
:102070004E234623C7F864317F4A804980480CF0DC
:10208000C5FC642008F02EF90CF068FCC82008F0AC
:1020900029F9D7F864317B4A7B4979480CF0B6FCC2
:1020A00004E097F86F31184608F01CF9714BD3E93A
:1020B0000023D7E94E01FEF711FD0346002BF0D1B6
:1020C0006D4A6E496E480CF0A1FC642008F00AF9D4
:1020D0000CF036FCC82008F005F9D7F864316B4ADB
:1020E000694967480CF092FC04E097F86F31184694
:1020F00008F0F8F85F4BD3E90023D7E95001FEF769
:10210000EDFC0346002BF0D15B4A5C495C480CF0C7
:102110007DFCC82008F0E6F80CF04AFCC82008F066
:10212000E1F8554A554956480CF070FC584A534955
:102130004D480CF06BFC57480BF0EAFCFEF7F0FF43
:10214000C82008F0CFF800F046BD052246494848AF
:102150000CF019FD0346002B40F0A2804E49424886
:102160000CF04EFD0346002B00F09A803E48FEF72F
:10217000D1FE03465B421846FEF7D4F902460B46F1
:10218000C7E94C236FF00103C7F81C31C823C7F817
:102190006431384BD3E90001D7E94C23FEF776F8D8
:1021A00002460B4614461D46D7F81C01FEF7BAF945
:1021B00002460B4620462946FEF768F802460B46C3
:1021C000C7E950232C4A2D492D480CF01FFC0CF078
:1021D000B7FB0A2008F086F8D7F864312B4A2A4961
:1021E00027480CF013FC1FE04FF000022B4BD7E9FF
:1021F0005001FEF74BF802460B46104619461D4BA0
:10220000D3E90023FEF788FC0346002B09D01423F2
:10221000C7F86431D7F864311C4A1B4918480CF0E0
:10222000F5FB032008F05EF8124BD3E90023D7E951
:102230005001FEF753FC0346002BD5D10CF09CFB5C
:102240000D4A0E490E480CF0E1FB114A0B490648B5
:102250000CF0DCFBC82008F045F8FEF761FF6420B5
:1022600008F040F800F0B7BC08000020681501082D
:10227000801501080802002098000020E8140108D9
:10228000BC000020B0000020781501086800002084
:10229000E4000020480000208815010800003440B8
:1022A0000422AE49AE480CF06EFC0346002B40F011
:1022B0008380AC49A9480CF0A3FC0346002B7BD0DB
:1022C000A648FEF727FE03461846FEF72BF90246FE
:1022D0000B46C7E94C23C823C7F864310023C7F86D
:1022E0001C31A14BD3E90001D7E94C23FDF7CEFF08
:1022F00002460B4614461D46D7F81C01FEF712F99C
:1023000002460B4620462946FDF7C0FF02460B4613
:10231000C7E95023954A964996480CF077FB0CF094
:102320001DFB0A2007F0DEFFD7F86431924A93497B
:1023300090480CF06BFB1FE04FF00002904BD7E988
:102340005001FDF7A3FF02460B4610461946864B87
:10235000D3E90023FEF7C2FB0346002B09D0142368
:10236000C7F86431D7F86431834A844981480CF056
:102370004DFB032007F0B6FF7B4BD3E90023D7E9E1
:102380005001FEF7C9FB0346002BD5D10CF002FB30
:10239000764A774977480CF039FB7A4A74496F4896
:1023A0000CF034FBC82007F09DFFFEF7B9FE642057
:1023B00007F098FF00F00FBC0522684972480CF046
:1023C000E2FB0346002B7DD1704964480CF018FCF9
:1023D0000346002B76D06148FEF79CFD0346184665
:1023E000FEF7A0F802460B46C7E94C230CF0E0FAD2
:1023F0000023C7F81C315C4BD3E90001D7E94C231B
:10240000FDF744FF02460B4614461D46D7F81C0153
:10241000FEF788F802460B4620462946FDF736FFB0
:1024200002460B46C7E95023504A514951480CF027
:10243000EDFA0CF085FAD7F86431554A4F494D480A
:102440000CF0E4FA1FE04FF00002524BD7E95001C4
:10245000FDF71CFF02460B4610461946424BD3E9D6
:102460000023FEF73BFB0346002B09D01423C7F8DB
:102470006431D7F86431464A40493E480CF0C6FA08
:10248000032007F02FFF384BD3E90023D7E9500191
:10249000FEF742FB0346002BD5D10CF06DFA334A10
:1024A000334934480CF0B2FA364A31492B480CF023
:1024B000ADFAC82007F016FFFEF732FE642007F0E1
:1024C00011FF88E30422254925480CF05CFB0346F4
:1024D000002B40F0A2802D4920480CF091FB0346D0
:1024E000002B00F09A801D48FEF714FD03465B4266
:1024F0001846FEF717F802460B46C7E94C236FF063
:102500000203C7F81C310CF053FA174BD3E9000152
:10251000D7E94C23FDF7BAFE02460B4614461D468A
:10252000D7F81C01FDF7FEFF02460B462046294660
:10253000FDF7ACFE02460B46C7E950230B4A0C4997
:102540000C480CF063FA0CF009FAD7F86431124A1F
:102550000A4908480CF05AFA40E000BF0800002081
:102560007015010888150108080200209800002055
:10257000E8140108BC000020740000207815010850
:1025800000804140E40000208015010890150108FA
:10259000B000002000004440A40000204FF00002E2
:1025A000734BD7E95001FDF771FE02460B4610460A
:1025B0001946704BD3E90023FEF7AEFA0346002B11
:1025C00009D01423C7F86431D7F864316A4A6B49DB
:1025D0006B480CF01BFA032007F084FE654BD3E92F
:1025E0000023D7E95001FEF779FA0346002BD5D135
:1025F0000CF0D0F9634A644961480CF007FA634A69
:10260000614963480CF002FAC82007F06BFEFEF740
:1026100087FD642007F066FEDDE206225C495D4826
:102620000CF0B1FA0346002B40F068815A49584833
:102630000CF0E6FA0346002B00F06081574A07F1E0
:10264000B80392E8030018600433198007F1BE0351
:1026500000221A605A609A60DA601A615A61504B1F
:10266000C7F8983007F19C0300221A605A609A60FC
:10267000DA601A615A611A830023A7F85E314FF0BD
:1026800000024FF00003C7E94C233A4BD3E9002383
:10269000D7E94C01FDF7FAFD02460B46C7E9502386
:1026A0003B48FEF773FC0346A7F86A31314BD3E988
:1026B0000001D7E94C23FDF7E9FD02460B4614461D
:1026C0001D46B7F96A311846FDF72CFF26A3D3E95A
:1026D0000023FDF791FF02460B4620462946FDF7F1
:1026E000D5FD02460B46C7E95023B7F96A31322BB4
:1026F00006DDB7F86A31013B9BB2A7F86A3105E005
:10270000B7F86A31013B9BB2A7F86A31254BD3E990
:102710000023C7E93823244BD3E90023C7E9362334
:10272000B7F96A310A2B02DC0CF042F901E00CF037
:102730003FF9D7F864311D4A104911480CF066F989
:102740000C4BD3E90001D7E95023FDF79DFD02466C
:102750000B4610461946FEF7FFF90346A7F85E310F
:1027600092E000BFAFF300803AB4C876BE9F7A3FD4
:102770000000344008020020A40000207815010861
:10278000BC00002098000020E8140108E4000020AC
:10279000080000209815010888150108E0150108B7
:1027A0006C65667410020020180200208000002072
:1027B000B7F96C31002B01D10CF0FAF8A04BD3E93A
:1027C0000001D7E95023FDF75FFD02460B46104696
:1027D0001946FEF7C1F90346A7F86C31B7F96C2129
:1027E000B7F95E319A420BDDB7F95E319BB2013326
:1027F0009BB2A7F85E310CF0E9F80023A7F86C3122
:10280000B7F96C21B7F95E319A420BDAB7F95E314C
:102810009BB2013B9BB2A7F85E310CF0E5F80023B8
:10282000A7F86C31874B93ED007B874B93ED006BE2
:1028300097ED363BB0EE462AF0EE662A97ED381B50
:10284000B0EE470AF0EE670AFEF71AFC55EC104BA3
:10285000B7F96A31143B1846FDF764FE02460B4691
:1028600020462946FEF758F90346002B09D02823B5
:10287000C7F86431D7F86431744A754975480CF06B
:10288000C5F8062007F02EFD6E4B93ED007B6E4BD6
:1028900093ED006B97ED363BB0EE462AF0EE662ADC
:1028A00097ED381BB0EE470AF0EE670AFEF7E8FB3B
:1028B00055EC104BB7F96A311846FDF733FE024666
:1028C0000B4620462946FEF709F90346002B7FF404
:1028D0006FAF614A61495F480CF098F85E4A5F4902
:1028E0005F480CF093F80CF063F8C82007F0FAFC8E
:1028F000FEF716FC642007F0F5FC6CE1062258494F
:1029000058480CF040F90346002B40F064815649CA
:1029100053480CF075F90346002B00F05C810CF075
:1029200047F80023A7F85C314FF000024FF0000396
:10293000C7E94C234A48FEF729FB0346A7F86A314A
:102940003F4BD3E90001D7E94C23FDF79FFC02463A
:102950000B4614461D46B7F96A311846FDF7E2FDED
:1029600033A3D3E90023FDF747FE02460B4620467A
:102970002946FDF78BFC02460B46C7E95023B7F901
:102980006A31322B13DDB7F96A311846FDF7CAFDFB
:102990004FF00002354BFDF777FC02460B46104620
:1029A0001946FEF7D9F80346A7F86A3112E0B7F9DD
:1029B0006A311846FDF7B6FD1FA3D3E90023FDF7E2
:1029C00063FC02460B4610461946FEF7C5F803465F
:1029D000A7F86A311B4BD3E90023C7E938231A4B08
:1029E000D3E90023C7E93623B7F96A310A2B02DCA1
:1029F0000BF0DEFF01E00BF0DBFFD7F864311C4A7F
:102A0000134914480CF002F80D4BD3E90001D7E943
:102A10005023FDF739FC02460B4610461946FEF7D7
:102A20009BF80346A7F85C319CE000BFAFF3008041
:102A3000FCA9F1D24D6240BF9A9999999999D93FD1
:102A40000802002010020020180200208000002050
:102A500078150108BC00002098000020E814010847
:102A60000800002098150108901501080000044096
:102A70008C000020A84BD3E90001D7E95023FDF7D3
:102A800003FC02460B4610461946FEF765F803465E
:102A9000A7F86C31B7F96C31002B01D10BF088FF2E
:102AA0009D4BD3E90001D7E95023FDF7EDFB02462A
:102AB0000B4610461946FEF74FF80346A7F86C314F
:102AC000B7F96C31002B0BDDB7F95C319BB20133E8
:102AD0009BB2A7F85C310BF079FF0023A7F86C31AB
:102AE000B7F96C31002B0BDAB7F95C319BB2013BC3
:102AF0009BB2A7F85C310BF077FF0023A7F86C318D
:102B0000864B93ED007B864B93ED006B97ED363B48
:102B1000B0EE462AF0EE662A97ED381BB0EE470A73
:102B2000F0EE670AFEF7ACFA55EC104BB7F96A31D4
:102B3000143B1846FDF7F6FC02460B462046294694
:102B4000FDF7EAFF0346002B09D02823C7F86431BC
:102B5000D7F86431734A744974480BF057FF062064
:102B600007F0C0FB6D4B93ED007B6D4B93ED006B5D
:102B700097ED363BB0EE462AF0EE662A97ED381B0D
:102B8000B0EE470AF0EE670AFEF77AFA55EC104B02
:102B9000B7F96A311846FDF7C5FC02460B462046D8
:102BA0002946FDF79BFF0346002B7FF463AF0BF034
:102BB000FFFE5F4A5F495D480BF028FF5C4A5D49B4
:102BC0005D480BF023FF642007F08CFBFEF7A8FAAA
:102BD000642007F087FB594B1A78574B1B78D31AA0
:102BE000002B40F0B281564BFB67002387F8803002
:102BF00007F5BC73A3F580730A221A80474BD3E90B
:102C00000023C7E94023464BD3E90023C7E93E230D
:102C1000414BD3E90023C7E95C230023C7F86031A7
:102C20000023C7F85831C823C7F864310BF0C0FE41
:102C3000C82007F057FB434B00221A60424B00228A
:102C40001A600EE0D7F86021404B1B681344C7F8A8
:102C50006031D7F858310133C7F85831642007F094
:102C600041FBD7F85831042BECDDD7F86031384AF6
:102C700082FB03125210DB17D31AC7F86031274BBF
:102C8000D3E90023C7E93823254BD3E90023C7E95B
:102C9000362307F5BC73A3F5867300221A605A60C9
:102CA0001A81D7F86031274A1360D7F86031232B97
:102CB00040F3E580D7F860319BB2233B9BB2A7F885
:102CC0006A316423C7F86431D7F86431214A164960
:102CD00016480BF09BFE54E0032007F003FB0CA307
:102CE000D3E90023D7E95C01FDF7D0FA02460B4691
:102CF00010461946084BD3E90023FDF7EFFE0346C3
:102D0000002B29D00BF062FE3BE000BFAFF3008048
:102D10009A9999999999C93F0802002010020020B8
:102D2000180200208C00002078150108BC0000204B
:102D300098000020E814010808000020A0150108F0
:102D400041434B004C050020500500204805002061
:102D500067666666800000204FF00002B94BD7E935
:102D60005C01FDF791FA02460B4610461946B64B38
:102D7000D3E90023FDF7D0FE0346002B01D00BF072
:102D800033FEB24B93ED007BB14B93ED006B97EDAF
:102D9000363BB0EE462AF0EE662A97ED381BB0EED1
:102DA000470AF0EE670AFEF76BF955EC104BB7F9DE
:102DB0006A311846FDF7B6FB02460B462046294607
:102DC000FDF78CFE0346002B86D1A24AA249A348F8
:102DD0000BF01CFE9F4AA049A1480BF017FE0023F0
:102DE000C7F858310EE0D7F860219E4B1B6813449A
:102DF000C7F86031D7F858310133C7F8583164202B
:102E000007F070FAD7F85831042BECDDD7F86031B1
:102E1000954A82FB03125210DB17D31AC7F86031B0
:102E2000D7F86001FDF77EFB884BD3E90023FDF75F
:102E30002DFA02460B4610461946FDF78DFE034655
:102E4000C7F81031874B1B68884A1360884B1A6893
:102E5000864B1B68D31A1A4607F16C03854918463E
:102E60000BF0D4FD07F1780207F16C031146184608
:102E70000BF07AFE034618460AF04AFE28E04FF4AB
:102E8000FA7007F02FFA4FF4FA7007F02BFA714A34
:102E9000714973480BF0BAFD6E4A6F496F480BF0E9
:102EA000B5FD704B1B68714A136007F16C031E225D
:102EB000704918460BF0AAFD07F1780207F16C0380
:102EC000114618460BF050FE034618460AF020FE45
:102ED000D7F860311E2B17DCD7F86031192B13DDC2
:102EE000D7F86431644A65495C480BF08FFDC8200F
:102EF00007F0F8F9574A584959480BF087FD554AE9
:102F0000554956480BF082FDD7F86031192B00F374
:102F10004486D7F86031142B40F33F86D7F86431EC
:102F2000554A56494D480BF071FD4FF4967007F025
:102F3000D9F9484A48494A480BF068FD454A46498C
:102F400046480BF063FD00F028BE032244494C487C
:102F50000BF019FE0346002B4FD10023C7F81C319C
:102F60004FF00002474BC7E94C23C823C7F8643130
:102F7000C82387F86F310BF0F1FCD7F86431424A6F
:102F80003E4936480BF042FD4FF42F7007F0AAF986
:102F90000BF00EFD4FF4FA7007F0A4F9C823C7F840
:102FA00064310BF0CDFCD7F86431384A33492B48F3
:102FB0000BF02CFD40F2145007F094F90BF0F8FCE4
:102FC0004FF4FA7007F08EF90BF0C8FCD7F86431B3
:102FD0002D4A2A4921480BF019FD4FF4967007F04D
:102FE00081F91C4A1C491D480BF010FD194A1A4969
:102FF0001B480BF00BFD00F0D0BD032218492448FC
:103000000BF0C1FD0346002B40F0E2820023C7F81D
:103010001C314FF000021F4BC7E94C23C823C7F8EF
:103020006431C82387F86F310BF08AFC9623C7F808
:103030006431D7F86431154A104908480BF0E6FCB2
:103040002DE000BF0000E03F080200201002002039
:103050001802002098000020E8140108BC0000209D
:1030600008000020480500206766666650050020BD
:103070004C050020A41501088C00002078150108DB
:10308000AC150108000034407400002068000020E6
:10309000B015010800003EC0032007F023F9D7E96E
:1030A0004C23D7E95C01FDF7F1F802460B461046C8
:1030B0001946B14BD3E90023FDF710FD0346002B61
:1030C000EAD14B23C7F864310BF072FCD7F86431B6
:1030D000AA4AAB49AB480BF099FC3223A7F86A31F6
:1030E000A94BD3E90023C7E93823A84BD3E9002330
:1030F000C7E93623D7E95C23C7E942232DE0032043
:1031000007F0F0F84FF00002A14BD7E94201FDF7BC
:10311000BDF802460B4610461946974BD3E90023EB
:10312000FDF7DCFC0346002B02D00BF04FFC14E053
:103130004FF00002964BD7E94201FDF7A5F8024691
:103140000B46104619468C4BD3E90023FDF7E4FCEF
:103150000346002B01D00BF047FC8B4B93ED007B1B
:103160008A4B93ED006B97ED363BB0EE462AF0EEBE
:10317000662A97ED381BB0EE470AF0EE670AFDF7B6
:103180007FFF55EC104BB7F96A311846FDF7CAF9C5
:1031900002460B4620462946FDF7A0FC0346002BBD
:1031A000ADD16423C7F864310BF0CAFBD7F86431A2
:1031B000784A734973480BF029FC02E0032007F0BA
:1031C00091F86D4BD3E90023D7E95C01FDF7A4FC2E
:1031D0000346002BF2D10BF0EBFBD7F86431674AC2
:1031E000674968480BF012FC0623A7F86A31664B62
:1031F000D3E90023C7E93823644BD3E90023C7E9A7
:103200003623D7E95C23C7E942232DE0032007F0EA
:1032100069F84FF000025E4BD7E94201FDF736F83E
:1032200002460B4610461946534BD3E90023FDF7DF
:1032300055FC0346002B02D00BF0C8FB14E04FF006
:103240000002534BD7E94201FDF71EF802460B4638
:1032500010461946484BD3E90023FDF75DFC0346B1
:10326000002B01D00BF0C0FB474B93ED007B474B8D
:1032700093ED006B97ED363BB0EE462AF0EE662AF2
:1032800097ED381BB0EE470AF0EE670AFDF7F8FE3F
:1032900055EC104BB7F96A311846FDF743F9024671
:1032A0000B4620462946FDF719FC0346002BADD1FD
:1032B0006423C7F864314FF00002374BC7E94C2351
:1032C0000BF04CFBD7E94C23D7E95C01FCF7DEFFA0
:1032D00002460B4614461D46D7F81C01FDF722F99D
:1032E00002460B4620462946FCF7D0FF02460B4615
:1032F000C7E95023D7F86431284A214921480BF007
:1033000085FB02E0032006F0EDFF1B4BD3E9002311
:10331000D7E95001FDF700FC0346002BF2D10BF07A
:103320000FFB6423C7F86431D7F864311C4A144991
:1033300014480BF06BFB02E0032006F0D3FF0E4BAA
:10334000D3E90023D7E95C01FDF7C8FB0346002B56
:10335000F2D10BF02DFB134A13490A480BF056FB30
:10336000104A114911480BF051FB0023C7F85431A2
:103370000023C7F860312AE0080200208000002006
:1033800078150108BC00002010020020180200205F
:103390000000E03FA4000020000044407400002032
:1033A0006800002098000020E814010808000020B0
:1033B000D7F86021AD4B1B681344C7F86031D7F8CC
:1033C00054310133C7F85431642006F08BFFD7F82D
:1033D0005431042BECDDD7F86031A54A82FB03128F
:1033E0005210DB17D31AC7F86031A24BD3E9002380
:1033F000C7E93823A04BD3E90023C7E93623D7F820
:1034000060311E2B67DDD7F860319BB21E3B9BB24B
:10341000A7F86A310BF0CCFAD7F86431974A98498B
:1034200098480BF0F3FAD7E95C23C7E942232DE073
:10343000032006F057FF4FF00002934BD7E94201FB
:10344000FCF724FF02460B46104619468F4BD3E982
:103450000023FDF743FB0346002B02D00BF0B6FA26
:1034600014E04FF00002884BD7E94201FCF70CFF53
:1034700002460B4610461946844BD3E90023FDF75C
:103480004BFB0346002B01D00BF0AEFA794B93EDCA
:10349000007B794B93ED006B97ED363BB0EE462AFF
:1034A000F0EE662A97ED381BB0EE470AF0EE670A99
:1034B000FDF7E6FD55EC104BB7F96A311846FDF7FC
:1034C00031F802460B4620462946FDF707FB034626
:1034D000002BADD167E0D7F860311D2B63DCD7F846
:1034E00060319BB2C3F11E039BB2A7F86A310BF0A7
:1034F0005FFAD7F86431664A614962480BF086FA90
:103500002DE0032006F0EEFE4FF000025E4BD7E9FF
:103510004201FCF7BBFE02460B46104619465B4BC8
:10352000D3E90023FDF7DAFA0346002B02D00BF0B3
:103530005BFA14E04FF00002534BD7E94201FCF76D
:10354000A3FE02460B4610461946504BD3E9002312
:10355000FDF7E2FA0346002B01D00BF037FA454B9A
:1035600093ED007B444B93ED006B97ED363BB0EE53
:10357000462AF0EE662A97ED381BB0EE470AF0EEC9
:10358000670AFDF77DFD55EC104BB7F96A31184617
:10359000FCF7C8FF02460B4620462946FDF79EFA77
:1035A0000346002BADD13B4A3B4936480BF02EFA7F
:1035B000384A394939480BF029FA0BF0F9F97420E7
:1035C0000AF0BEFA97F86F31184606F08BFEE4E277
:1035D0000322324932480BF0D6FA0346002B40F062
:1035E00093800023C7F850316423C7F86431C8239F
:1035F00087F86F310023C7F860310BF0D9F94B23FE
:10360000C7F864310EE0D7F86021184B1B681344EB
:10361000C7F86031D7F850310133C7F85031642012
:1036200006F060FED7F85031042BECDDD7F860319E
:103630000F4A82FB03125210DB17D31AC7F860310E
:103640000C4BD3E90023C7E938230B4BD3E9002304
:10365000C7E936230A23A7F86A31D7F864310C4A40
:10366000074908480BF0D2F91FE000BF48050020C9
:1036700067666666100200201802002080000020A5
:1036800078150108BC0000200000E03F080200207F
:103690008C00002098000020E81401080800002099
:1036A000B4150108032006F01DFEA54B93ED007B29
:1036B000A44B93ED006B97ED363BB0EE462AF0EE4F
:1036C000662A97ED381BB0EE470AF0EE670AFDF761
:1036D000D7FC55EC104BB7F96A311846FCF722FFBE
:1036E00002460B4620462946FDF7F8F90346002B13
:1036F000D8D1954A954996480BF088F9924A934952
:1037000094480BF083F948E2934B1A78914B1B785D
:10371000D31A002B4ED107F5BC73A3F58A738F4AD9
:103720001A6000221A7107F5BC73A3F58C730A2284
:103730001A8007F5BC73A3F5927300221A605A60D1
:103740001A810BF035F94FF47A7006F0CBFD0320A7
:1037500006F0C8FD0CE0C823C7F86431D7F864311F
:103760007F4A80497A480BF051F9032006F0BAFDF0
:10377000D7F81831B3F5E16FEDDC734A734974483B
:103780000BF044F9704A714972480BF03FF907F1A8
:103790005403754918460BF039F907F1600207F137
:1037A0005403114618460BF0DFF9034618460AF099
:1037B000AFF9F2E16D4B1A78664B1B78D31A002BE8
:1037C0007ED107F5BC73A3F59673644A1A60002294
:1037D0001A7107F5BC73A3F598730A221A8007F5CE
:1037E000BC73A3F59E7300221A605A601A81604B65
:1037F000D3E90023C7E95C230BF0DAF84FF47A70C1
:1038000006F070FD032006F06DFD37E06423C7F875
:103810006431D7F86431524A52494D480BF0F6F8FA
:10382000032006F05FFD44A3D3E90023D7E95C0140
:10383000FCF72CFD02460B46104619464C4BD3E9CB
:103840000023FDF74BF90346002B02D00BF0BEF826
:1038500014E04FF00002474BD7E95C01FCF714FD80
:1038600002460B4610461946414BD3E90023FDF7AB
:1038700053F90346002B01D00BF0B6F8D7F81831F6
:10388000B3F5E16FC2DC304A304931480BF0BEF885
:103890002D4A2E492F480BF0B9F807F13C03324965
:1038A00018460BF0B3F807F1480207F13C03114644
:1038B00018460BF059F9034618460AF029F96CE14D
:1038C0002D4B1A78234B1B78D31A002B40F06581BF
:1038D00007F5BC73A3F5A273204A1A6000221A717F
:1038E00007F5BC73A3F5A4730A221A8007F5BC730D
:1038F000A3F5AA7300221A605A601A81104BD3E90B
:103900000023C7E940230F4BD3E90023C7E93E2337
:10391000174BD3E90023C7E95C230023C7F86031C4
:103920000023C7F84C31C823C7F864310BF040F8C6
:10393000C82006F0D7FC30E09A9999999999C93F27
:10394000100200201802002098000020E81401084E
:10395000BC00002008000020B815010841434B00BE
:103960008000002078150108BC150108C015010869
:10397000080200200000E03FC4150108D7F86021CC
:10398000A54B1B681344C7F86031D7F84C3101339D
:10399000C7F84C31642006F0A5FCD7F84C31042B55
:1039A000ECDDD7F860319D4A82FB03125210DB1721
:1039B000D31AC7F860319A4BD3E90023C7E93823FB
:1039C000984BD3E90023C7E93623D7F860310F2B92
:1039D00040F3BF80D7F860319BB20F3B9BB2A7F892
:1039E0006A31D7F86431904A904991480BF00EF84B
:1039F0002DE0032006F076FC85A3D3E90023D7E968
:103A00005C01FCF743FC02460B4610461946894B05
:103A1000D3E90023FDF762F80346002B02D00AF039
:103A2000D5FF14E04FF00002834BD7E95C01FCF7AF
:103A30002BFC02460B46104619467E4BD3E9002369
:103A4000FDF76AF80346002B01D00AF0CDFF744B56
:103A500093ED007B734B93ED006B97ED363BB0EE2F
:103A6000462AF0EE662A97ED381BB0EE470AF0EED4
:103A7000670AFDF705FB55EC104BB7F96A3118469C
:103A8000FCF750FD02460B4620462946FDF726F876
:103A90000346002BADD1694A694965480AF0B6FF73
:103AA000664A674967480AF0B1FF0023C7F84C31FE
:103AB0000EE0D7F86021584B1B681344C7F86031FB
:103AC000D7F84C310133C7F84C31642006F00AFCBA
:103AD000D7F84C31042BECDDD7F860314F4A82FB2C
:103AE00003125210DB17D31AC7F86031D7F8600100
:103AF000FCF718FD4A4BD3E90023FCF7C7FB02464D
:103B00000B4610461946FDF727F80346C7F8103153
:103B100007F124034C4918460AF078FF07F13002F8
:103B200007F12403114618460BF01EF80346184609
:103B300009F0EEFF4FF4FA7006F0D4FB3F4A40491B
:103B400040480AF063FF3D4A3D4939480AF05EFFAC
:103B500023E04FF4FA7006F0C5FB07F124033A495D
:103B600018460AF053FF07F1300207F1240311460B
:103B700018460AF0F9FF0346184609F0C9FF4FF44A
:103B8000FA7006F0AFFB2D4A2D492E480AF03EFF91
:103B90002A4A2B4926480AF039FF2C4B1A78294B20
:103BA0001B78D31A002B40F06F8107F5BC73A3F587
:103BB000AE73274A1A6000221A7107F5BC73A3F589
:103BC000B0730A221A80164BD3E90023C7E94023B9
:103BD000144BD3E90023C7E93E23164BD3E9002356
:103BE000C7E95C230023C7F860310023C7F84831D8
:103BF000C823C7F864310AF0DBFEC82006F072FB68
:103C0000144B00221A60144B00221A6035E000BFEA
:103C10009A9999999999C93F4805002067666666FF
:103C200010020020180200208000002078150108F2
:103C3000BC000020080200200000E03F98000020A7
:103C4000E814010808000020BC150108C815010887
:103C500041434B004C05002050050020D7F860215F
:103C60009B4B1B681344C7F86031D7F848310133C8
:103C7000C7F84831642006F035FBD7F84831042BEB
:103C8000ECDDD7F86031934A82FB03125210DB1748
:103C9000D31AC7F86031904BD3E90023C7E9382322
:103CA0008E4BD3E90023C7E9362307F5BC73A3F590
:103CB000B67300221A605A601A81D7F86031412B1E
:103CC00040F3B880D7F860319BB2413B9BB2A7F874
:103CD0006A316423C7F86431D7F86431804A814976
:103CE00081480AF093FE2DE0032006F0FBFA76A34C
:103CF000D3E90023D7E95C01FCF7C8FA02460B467A
:103D000010461946794BD3E90023FCF7E7FE03463A
:103D1000002B02D00AF05AFE14E04FF00002744B60
:103D2000D7E95C01FCF7B0FA02460B46104619468B
:103D30006E4BD3E90023FCF7EFFE0346002B01D0C6
:103D40000AF052FE644B93ED007B644B93ED006BE5
:103D500097ED363BB0EE462AF0EE662A97ED381B1B
:103D6000B0EE470AF0EE670AFDF78AF955EC104B02
:103D7000B7F96A311846FCF7D5FB02460B462046D8
:103D80002946FCF7ABFE0346002BADD1594A5A49F0
:103D900055480AF03BFE574A574958480AF036FE44
:103DA0000023C7F848310EE0D7F86021484B1B6864
:103DB0001344C7F86031D7F848310133C7F84831A8
:103DC000642006F08FFAD7F84831042BECDDD7F8E1
:103DD0006031404A82FB03125210DB17D31AC7F836
:103DE0006031D7F86001FCF79DFB3B4BD3E9002322
:103DF000FCF74CFA02460B4610461946FCF7ACFE9F
:103E00000346C7F81031324B1B683D4A136007F177
:103E10000C033C4918460AF0F9FD07F1180207F1B6
:103E20000C03114618460AF09FFE0346184609F097
:103E30006FFEF8E04FF4FA7006F054FA4FF4FA709F
:103E400006F050FA2B4A2C492C480AF0DFFD294A8B
:103E5000294925480AF0DAFD1D4B1B68284A1360E2
:103E600007F10C031E22284918460AF0CFFD07F17E
:103E7000180207F10C03114618460AF075FE0346B6
:103E8000184609F045FECEE003221C491F480AF0FF
:103E90007AFE0346002B40F0AE800023C7F81C31A9
:103EA0004FF000021A4BC7E94C23C823C7F864310E
:103EB0000AF07EFD4FF47A7006F014FA032006F043
:103EC00011FA34E0AFF300809A9999999999C93F12
:103ED0004805002067666666100200201802002070
:103EE0008000002078150108BC0000200802002096
:103EF0000000E03F98000020E814010808000020BE
:103F000050050020BC150108A4150108CC150108B6
:103F100000003440C823C7F86431D7F864314A4AF6
:103F20004A494B480AF072FD032006F0DBF9D7F846
:103F30001831B3F5E16FEDDC464A474944480AF0D1
:103F400065FD444A444945480AF060FD4FF47A70E3
:103F500006F0C8F9C823C7F864310AF0FFFCD7F8A7
:103F600064313F4A39493A480AF050FD40F2145052
:103F700006F0B8F9374A384935480AF047FD354A5E
:103F8000354936480AF042FD0AF012FD4FF47A70C6
:103F900006F0A8F9D7F86431324A2C492C480AF0C7
:103FA00035FD4FF4C87006F09DF92A4A2A49284881
:103FB0000AF02CFD274A284928480AF027FD4FF42B
:103FC0007A7006F08FF90AF0C9FCD7F86431244AF8
:103FD0001E491F480AF01AFD4FF4966006F082F958
:103FE0001C4A1D491A480AF011FD1A4A1A491B4871
:103FF0000AF00CFD17E00D2218491B480AF0C3FD1A
:104000000346002B0CD1FDF7D3F8124A1249104891
:104010000AF0FCFC0F4A104910480AF0F7FC02E0D5
:10402000642006F05FF9114B1B68184606F050FA41
:104030000F4B01221A60642006F054F9FDF7DEBE32
:1040400000BFFDF7DBBE00BF80000020781501082F
:10405000BC00002098000020E8140108080000209F
:10406000740000208C000020D015010844050020B9
:10407000200200202DE9F0439DB000AF78600A23B4
:10408000FB644FF00002AC4BC7E91A234FF000026B
:10409000A94BC7E918234FF00002A84BC7E910232A
:1040A000D7E91023C7E90E234FF000024FF00003B9
:1040B000D7E91001FCF7A0FA02460B46C7E90C232A
:1040C0004FF000029E4BD7E91001FCF795FA02462B
:1040D0000B46C7E90A234FF000029A4BC7E90823B1
:1040E0004FF000024FF00003C7E906234FF0000233
:1040F0004FF00003C7E916234FF000024FF0000312
:10410000C7E904234FF000024FF00003C7E914236E
:104110006423FB7307F0A4FE0346BB608A4BD3E91C
:104120000023144623F0004522462B46D7E91A0106
:10413000FCF7AAF802460B46C7E90623D7E906238F
:10414000D7E90E01FCF758FA02460B467F49C1E950
:104150000023D7E90C23D7E90601FCF74DFA024604
:104160000B4610461946D7E90823FCF745FA0246E4
:104170000B4610461946764BD3E90023FCF786F828
:1041800002460B467249C1E90023D7E91623D7E955
:104190000601FCF779F802460B4610461946D7E9A6
:1041A0000A23FCF729FA02460B4610461946D7E9BE
:1041B0000823FCF74BFB02460B466649C1E9002386
:1041C000D7E90623C7E91623604BD3E90001604B0A
:1041D000D3E90023FCF75AF802460B46104619466D
:1041E0005C4BD3E90023FCF751F802460B4610461E
:1041F0001946594BD3E90023FCF748F802460B4611
:104200005549C1E90023544BD3E900014FF00002A6
:10421000524BFCF781FC0346002B05D04E494FF072
:1042200000024E4BC1E900234B4BD3E900014FF094
:1042300000024FF00003FCF751FC0346002B06D0B0
:1042400045494FF000024FF00003C1E900233E4B07
:10425000D3E90223904623F0004942464B46D7E972
:104260001801FCF711F802460B46C7E90423D7E909
:104270000423D7E90E01FCF7BFF902460B46384983
:10428000C1E90023D7E90C23D7E90401FCF7B4F90D
:1042900002460B4610461946D7E90823FCF7ACF94D
:1042A00002460B46104619462E4BD3E90023FBF776
:1042B000EDFF02460B462B49C1E90023D7E9142341
:1042C000D7E90401FBF7E0FF02460B46104619460A
:1042D000D7E90A23FCF790F902460B461046194627
:1042E000D7E90823FCF7B2FA02460B461E49C1E99A
:1042F0000023D7E90423C7E91423194BD3E90001AC
:10430000184BD3E90023FBF7C1FF02460B461046CA
:104310001946154BD3E90023FBF7B8FF02460B46BD
:1043200010461946114BD3E90023FBF7AFFF0246B5
:104330000B460E491CE000BF0000F03F0000494062
:104340000000044000002440D0010020A001002013
:10435000A8010020B0010020900100200040AF40E3
:10436000B8010020C0010020C801002098010020F1
:10437000C1E90023A74BD3E900014FF00002A64B8F
:10438000FCF7CAFB0346002B05D0A2494FF0000200
:10439000A14BC1E900239F4BD3E900014FF000027C
:1043A0004FF00003FCF79AFB0346002B06D0994917
:1043B0004FF000024FF00003C1E9002307229749A4
:1043C00097480AF0E0FB0346002B35D19448FCF7F0
:1043D00019FE0346FB73FB7B1846FCF7A3F84FF06E
:1043E0000002904BFCF708F902460B4610461946AE
:1043F0004FF000028C4BFCF729FA02460B46C7E946
:104400001A234FF000024FF00003C7E91823874B2F
:10441000D3E9002310461946FCF79EFB06467D4B68
:10442000D3E9002310461946FCF796FB03461946CC
:10443000304609F0E1FE73E106227D4978480AF032
:10444000A2FB0346002B2DD17548FCF7DBFD03468C
:10445000FB734FF000024FF00003C7E91A23FB7B08
:10446000744A82FB03121211DB17D31A1846FCF7A9
:1044700059F802460B46C7E918236C4BD3E90023D1
:1044800010461946FCF768FB0646624BD3E9002349
:1044900010461946FCF760FB03461946304609F002
:1044A000ABFE3DE1042264495D480AF06CFB034623
:1044B000002B2DD15A48FCF7A5FD0346FB734FF0A6
:1044C00000024FF00003C7E91A23FB7B594A82FB25
:1044D00003121211DB17D31A1846FCF723F8024611
:1044E0000B46C7E91823514BD3E900231046194660
:1044F000FCF732FB0646474BD3E90023104619462A
:10450000FCF72AFB03461946304609F02DFE07E169
:1045100005224A4942480AF036FB0346002B35D1B2
:104520003F48FCF76FFD0346FB73FB7B1846FBF728
:10453000F9FF4FF000023B4BFCF75EF802460B46DA
:10454000104619464FF00002374BFCF77FF9024640
:104550000B46C7E91A234FF000024FF00003C7E9EA
:104560001823324BD3E9002310461946FCF7F4FA1E
:104570000646284BD3E9002310461946FCF7ECFA0F
:1045800003461946304609F0EFFDC9E007222C49E1
:1045900023480AF0F8FA0346002B53D12048FCF7D1
:1045A00031FD0346FB73FA7B13465B001344214A3B
:1045B00082FB03125211DB17D31A1846FBF7B2FF26
:1045C00002460B46C7E91A23FA7B13465B001344E5
:1045D000184A82FB03125211DB17D31A1846FBF755
:1045E000A1FF02460B46C7E91823104BD3E900236D
:1045F00010461946FCF7B0FA0646064BD3E90023ED
:1046000010461946FCF7A8FA03461946304609F049
:10461000F3FD85E0980100200040AF40001601083E
:10462000BC0000200000F83F00005940900100202D
:10463000081601081F85EB51701501088015010847
:104640009015010807223A493A480AF09CFA0346B5
:10465000002B3BD13748FCF7D5FC0346FB73FA7BB4
:1046600013465B001344344A82FB03125211DB17DA
:10467000D31A1846FBF756FF02460B46C7E91A2322
:10468000FA7B13465B0013442B4A82FB0312521140
:10469000DB17D31A1846FBF745FF02460B46C7E95E
:1046A0001823264BD3E9002310461946FCF754FA89
:1046B0000646234BD3E9002310461946FCF74CFA73
:1046C00003461946304609F04FFD29E004221D49F2
:1046D00018480AF058FA0346002B21D117494FF029
:1046E00000024FF00003C1E9002315494FF000021A
:1046F0004FF00003C1E90023104BD3E9002310461B
:104700001946FCF729FA06460D4BD3E9002310465B
:104710001946FCF721FA03461946304609F024FDF4
:1047200007F10803F96C184607F0D0F9F2E400BF6E
:1047300088150108BC0000201F85EB519001002066
:10474000980100206015010880B582B000AF786044
:10475000194B1B680133184A1360184B1B686421FE
:10476000184605F063FE0346002B20D1144B1B684E
:104770000133134A1360134809F0F6F9124B002273
:104780001A60104B1B78002B09D0104B1B680133AB
:104790000E4A13600B4A0E490E480AF037F9074BD0
:1047A0001B68184605F094FE074B01221A6064202E
:1047B00005F098FDCCE700BF24020020440500204E
:1047C0002802002028000020200200202C020020C7
:1047D000E814010808000020B0B584B000AF78608C
:1047E0004FF07E53FB60584B1B686421184605F060
:1047F0001DFE0346002B40F09C80544809F044FD08
:10480000514B1B68184605F063FE504BD3E9084531
:104810004F4BD3E9000148A3D3E90023FBF7ECFE9B
:1048200002460B46104619464FF00002494BFCF772
:104830000DF802460B4643EC172BB0EE470AF0EE9C
:10484000670A0AF005FF53EC102B20462946FBF7B8
:10485000D3FE02460B461046194639A3D3E900237E
:10486000FBF7CAFE02460B4614461D46F868FBF7E6
:104870006BFE02460B4620462946FBF7BDFE02466C
:104880000B4610461946344BD3E90023FBF7FEFCD8
:1048900002460B463049C1E900232C4BD3E90845B9
:1048A0002B4BD3E9000124A3D3E90023FBF7A4FE9B
:1048B00002460B46104619464FF00002254BFBF707
:1048C000C5FF02460B4643EC172BB0EE470AF0EE4D
:1048D000670A0AF01DFF53EC102B20462946FBF710
:1048E0008BFE02460B461046194615A3D3E900235A
:1048F000FBF782FE02460B4614461D46F868FBF79E
:1049000023FE02460B4620462946FBF775FE02466B
:104910000B4610461946114BD3E90023FBF7B6FCB2
:1049200002460B460D49C1E90023052005F0DAFCDB
:1049300059E700BF57E700BF182D4454FB21094039
:1049400014AE47E17A14F63F3C050020D001002068
:10495000080200200080664010020020180200209B
:1049600080B588B000AF78600523FB61204809F06E
:1049700015F907F075FA0346FB601E4809F0E2FAE4
:1049800003461D4A13601B4BB3F90C301846FBF766
:10499000C9FD1A4BD3E90023FBF776FC02460B4610
:1049A000C7E90423D7E90401FCF7D6F80346002B36
:1049B000B8BF5B42022B14DD4FF00002104BD7E969
:1049C0000401FBF743FF02460B46104619460D4B08
:1049D000D3E90023FBF75AFC02460B460949C1E91B
:1049E000002307F10C03F969184607F06FF8C0E7D8
:1049F00030020020F801002004000020F800002010
:104A000000408F400802002080B400AF72B600BFA3
:104A100000BFFDE780B582B000AF00237B60124B82
:104A20005B6C114A43F4804353640F4B5B6C03F49B
:104A300080437B607B6800233B600B4B1B6C0A4A06
:104A400043F080531364084B1B6C03F080533B60AE
:104A50003B6800220F216FF0010000F0E4FC00BF72
:104A60000837BD4680BD00BF0038024080B58AB01F
:104A700000AF786007F1140300221A605A609A6050
:104A8000DA601A617B681B68194A93422CD10023B3
:104A90003B61184B1B6B174A43F002031363154B22
:104AA0001B6B03F002033B613B694FF440637B6186
:104AB0001223BB610023FB6103233B6204237B625F
:104AC00007F1140319460C4801F0E6F80023FB60D7
:104AD000084B1B6C074A43F480031364054B1B6CA3
:104AE00003F48003FB60FB6800BF2837BD4680BD30
:104AF00000580040003802400004024080B487B0F3
:104B000000AF78607B681B68294A93420ED100236E
:104B10007B61284B5B6C274A43F001035364254BB0
:104B20005B6C03F001037B617B693AE07B681B6887
:104B3000214A93420ED100233B611E4B1B6C1D4A40
:104B400043F0040313641B4B1B6C03F004033B6131
:104B50003B6926E07B681B68184A93420ED100230C
:104B6000FB60144B5B6C134A43F480335364114B6A
:104B70005B6C03F48033FB60FB6812E07B681B68AE
:104B80000F4A93420DD10023BB600A4B1B6C094AAC
:104B900043F040031364074B1B6C03F04003BB60FE
:104BA000BB6800BF1C37BD465DF8047B704700BF83
:104BB0000000014000380240000800400040014071
:104BC0000018004080B58EB000AF786007F1240374
:104BD00000221A605A609A60DA601A617B681B686A
:104BE000B3F1804F53D100233B625C4B1B6C5B4A9B
:104BF00043F001031364594B1B6C03F001033B6248
:104C00003B6A0023FB61554B1B6B544A43F0010385
:104C10001363524B1B6B03F00103FB61FB69002321
:104C2000BB614E4B1B6B4D4A43F0020313634B4B6E
:104C30001B6B03F00203BB61BB694FF400437B6253
:104C40000223BB620023FB6200233B6301237B63DF
:104C500007F124031946424801F01EF808237B623D
:104C60000223BB620023FB6200233B6301237B63BF
:104C700007F1240319463B4801F00EF800220521F4
:104C80001C2000F0D0FB1C2000F0E9FB62E07B68F8
:104C90001B68354A93422CD100237B612F4B1B6C40
:104CA0002E4A43F0020313642C4B1B6C03F00203E7
:104CB0007B617B6900233B61284B1B6B274A43F0D8
:104CC00002031363254B1B6B03F002033B613B693B
:104CD00030237B620223BB620023FB6200233B6321
:104CE00002237B6307F1240319461E4800F0D4FF1A
:104CF00030E07B681B681D4A93422BD10023FB6088
:104D0000164B1B6C154A43F008031364134B1B6CC2
:104D100003F00803FB60FB680023BB600F4B1B6BB9
:104D20000E4A43F0010313630C4B1B6B03F00103AA
:104D3000BB60BB6803237B620223BB620023FB6270
:104D400000233B6302237B6307F1240319460448D5
:104D500000F0A2FF00BF3837BD4680BD00380240DA
:104D6000000002400004024000040040000C00402B
:104D700080B58CB000AF786007F11C0300221A6088
:104D80005A609A60DA601A617B681B68494A9342EC
:104D90001FD10023BB61484B1B6B474A43F01003F4
:104DA0001363454B1B6B03F01003BB61BB694FF4EE
:104DB000C043FB6102233B6200237B620023BB6292
:104DC0000123FB6207F11C0319463C4800F064FF15
:104DD0006CE07B681B683A4A93421FD100237B61D9
:104DE000354B1B6B344A43F002031363324B1B6B8E
:104DF00003F002037B617B694FF44073FB61022384
:104E00003B6200237B620023BB620223FB6207F14B
:104E10001C0319462B4800F03FFF47E07B681B68E6
:104E2000294A93421ED100233B61234B1B6B224A2C
:104E300043F010031363204B1B6B03F010033B6123
:104E40003B696023FB6102233B6200237B620023FA
:104E5000BB620323FB6207F11C031946174800F0ED
:104E60001BFF23E07B681B68184A93421ED1002376
:104E7000FB60114B1B6B104A43F0020313630E4B94
:104E80001B6B03F00203FB60FB684FF40043FB6104
:104E900002233B6200237B620023BB620923FB6287
:104EA00007F11C031946074800F0F6FE00BF303733
:104EB000BD4680BD000001400038024000100240A5
:104EC000000800400004024000400140001800407B
:104ED00080B58AB000AF786007F1140300221A6031
:104EE0005A609A60DA601A617B681B68344A9342A0
:104EF00062D100233B61334B1B6C324A43F4802365
:104F00001364304B1B6C03F480233B613B6900232B
:104F1000FB602C4B1B6B2B4A43F008031363294B9C
:104F20001B6B03F00803FB60FB684FF440737B616D
:104F30000223BB610023FB6102233B6207237B62E8
:104F400007F114031946204800F0A6FE1F4B204A23
:104F50001A601E4B4FF000625A601C4B00229A6090
:104F60001A4B0022DA60194B4FF480621A61174B1A
:104F700000225A61154B00229A61144B0022DA611B
:104F8000124B00221A62114B00225A620F4800F0A5
:104F900081FA0346002B01D0FFF736FD7B680B4AF0
:104FA000DA630A4A7B68936300220521272000F018
:104FB0003AFA272000F053FA00BF2837BD4680BDDB
:104FC0000048004000380240000C0240C4040020A9
:104FD0002860024080B400AF00BFFDE780B400AF9E
:104FE00000BFFDE780B400AF00BFFDE780B400AFB5
:104FF00000BFFDE780B400AF00BFFDE780B400AFA5
:1050000000BFBD465DF8047B704780B500AF00F07F
:10501000EBF807F05FFA0346012B01D008F054F9D2
:1050200000BF80BD80B500AF024800F0CBFB00BFE1
:1050300080BD00BFC404002080B500AF024802F06C
:1050400029FF00BF80BD00BFCC02002080B500AFAB
:10505000024803F031FF00BF80BD00BF7C04002088
:1050600080B586B000AF7860144A154BD31A7B61C7
:105070007B693B61134B1B68002B02D1114B124A19
:105080001A60104B1A687B6813443A699A4207D237
:1050900009F0CCFD03460C221A604FF0FF3309E003
:1050A000084B1B68FB60074B1A687B681344054A72
:1050B0001360FB6818461837BD4680BD000002200B
:1050C0000004000054050020709E002080B400AF52
:1050D000064BD3F88830054A43F47003C2F8883091
:1050E00000BFBD465DF8047B704700BF00ED00E0E7
:1050F000DFF834D00D480E490E4A002302E0D458A0
:10510000C4500433C4188C42F9D30B4A0B4C00230F
:1051100001E013600432A242FBD3FFF7D7FF09F08E
:105120008BFDFCF763F870470000022000000020B0
:105130007001002018250108700100206C9E0020DD
:10514000FEE7000080B500AF0E4B1B680D4A43F42C
:10515000007313600B4B1B680A4A43F480631360AF
:10516000084B1B68074A43F480731360032000F068
:105170004FF90F2000F008F8FFF74CFC0023184609
:1051800080BD00BF003C024080B582B000AF7860B7
:10519000124B1A68124B1B7819464FF47A73B3FB03
:1051A000F1F3B2FBF3F3184600F067F90346002B66
:1051B00001D001230EE07B680F2B0AD8002279680A
:1051C0004FF0FF3000F02FF9064A7B681360002390
:1051D00000E0012318460837BD4680BD00010020CD
:1051E000080100200401002080B400AF064B1B78AA
:1051F0001A46064B1B681344044A136000BFBD46A1
:105200005DF8047B704700BF0801002058050020AE
:1052100080B400AF034B1B681846BD465DF8047BA5
:10522000704700BF5805002080B584B000AF78609B
:10523000FFF7EEFFB8607B68FB60FB68B3F1FF3FF0
:1052400005D00A4B1B781A46FB681344FB6000BF6D
:10525000FFF7DEFF0246BB68D31AFA689A42F7D816
:1052600000BF00BF1037BD4680BD00BF0801002051
:1052700080B485B000AF78607B6803F00703FB6003
:105280000C4BDB68BB60BA684FF6FF031340BB6092
:10529000FB681A02BB68134343F0BF6343F4003357
:1052A000BB60044ABB68D36000BF1437BD465DF8DD
:1052B000047B704700ED00E080B400AF044BDB6876
:1052C0001B0A03F007031846BD465DF8047B7047D0
:1052D00000ED00E080B483B000AF0346FB7197F9A6
:1052E0000730002B0BDBFB7903F01F02074997F90E
:1052F00007305B09012000FA02F241F8232000BFC9
:105300000C37BD465DF8047B704700BF00E100E04C
:1053100080B483B000AF03463960FB7197F9073062
:10532000002B0ADB3B68DAB20C4997F9073012010F
:10533000D2B20B4483F800230AE03B68DAB2084992
:10534000FB7903F00F03043B1201D2B20B441A762F
:1053500000BF0C37BD465DF8047B704700E100E0FC
:1053600000ED00E080B489B000AFF860B9607A6009
:10537000FB6803F00703FB61FB69C3F10703042B20
:1053800028BF0423BB61FB690433062B02D9FB69E8
:10539000033B00E000237B614FF0FF32BB6902FA60
:1053A00003F3DA43BB681A407B699A404FF0FF3140
:1053B0007B6901FA03F3D9437B680B40134318461A
:1053C0002437BD465DF8047B7047000080B582B08D
:1053D00000AF78607B68013BB3F1807F01D301238C
:1053E0000FE00A4A7B68013B53600F214FF0FF300A
:1053F000FFF78EFF054B00229A60044B07221A60CC
:10540000002318460837BD4680BD00BF10E000E00D
:1054100080B582B000AF78607868FFF729FF00BFE1
:105420000837BD4680BD80B586B000AF0346B96081
:105430007A60FB7300237B61FFF73EFF78617A6837
:10544000B9687869FFF78EFF024697F90F30114669
:105450001846FFF75DFF00BF1837BD4680BD80B519
:1054600082B000AF0346FB7197F907301846FFF78B
:1054700031FF00BF0837BD4680BD80B582B000AFA8
:1054800078607868FFF7A2FF034618460837BD46E4
:1054900080BD000080B586B000AF786000237B61DE
:1054A000FFF7B6FE38617B68002B01D1012399E03C
:1054B0007B68022283F835207B68002283F8342041
:1054C0007B681B681A687B681B6822F001021A60FF
:1054D0000FE0FFF79DFE02463B69D31A052B08D962
:1054E0007B6820225A657B68032283F835200323DA
:1054F00078E07B681B681B6803F00103002BE8D190
:105500007B681B681B687B617A69384B13407B6141
:105510007B685A687B689B681A437B68DB681A4320
:105520007B681B691A437B685B691A437B689B69CC
:105530001A437B68DB691A437B681B6A13437A69E9
:1055400013437B617B685B6A042B07D17B68DA6A53
:105550007B681B6B13437A6913437B617B681B6811
:105560007A691A607B681B685B697B617B6923F0E1
:1055700007037B617B685B6A7A6913437B617B68A5
:105580005B6A042B17D17B689B6A7A6913437B6142
:105590007B68DB6A002B0ED0786800F001FB0346C5
:1055A000002B08D07B6840225A657B68012283F873
:1055B0003520012316E07B681B687A695A61786898
:1055C00000F0B8FA0346FB607B68DB6D3F229A402F
:1055D000FB689A607B6800225A657B68012283F829
:1055E0003520002318461837BD4680BD3F8010F097
:1055F00080B586B000AFF860B9607A603B60002388
:10560000FB75FB689B6D3B61FB6893F83430012BA5
:1056100001D1022340E0FB68012283F83420FB68BB
:1056200093F83530DBB2012B2FD1FB68022283F8CF
:105630003520FB6800225A653B687A68B968F868CB
:1056400000F04AFAFB68DB6D3F229A403B699A60A2
:10565000FB681B681A68FB681B6842F016021A6038
:10566000FB681B6C002B07D0FB681B681A68FB6883
:105670001B6842F008021A60FB681B681A68FB6826
:105680001B6842F001021A6005E0FB68002283F803
:1056900034200223FB75FB7D18461837BD4680BDBC
:1056A00080B584B000AF78607B689B6DFB60FFF7CE
:1056B000AFFDB8607B6893F83530DBB2022B08D0C1
:1056C0007B6880225A657B68002283F8342001239E
:1056D00052E07B681B681A687B681B6822F0160220
:1056E0001A607B681B685A697B681B6822F080021D
:1056F0005A617B681B6C002B03D17B689B6C002B71
:1057000007D07B681B681A687B681B6822F0080258
:105710001A607B681B681A687B681B6822F00102AC
:105720001A6013E0FFF774FD0246BB68D31A052B1D
:105730000CD97B6820225A657B68032283F83520C8
:105740007B68002283F83420032315E07B681B6804
:105750001B6803F00103002BE4D17B68DB6D3F2263
:105760009A40FB689A607B68012283F835207B6849
:10577000002283F83420002318461037BD4680BD30
:1057800080B483B000AF78607B6893F83530DBB2CB
:10579000022B04D07B6880225A6501230CE07B68D1
:1057A000052283F835207B681B681A687B681B68B4
:1057B00022F001021A60002318460C37BD465DF83E
:1057C000047B704780B586B000AF78600023BB6073
:1057D0008E4B1B688E4AA2FB03239B0A7B617B686E
:1057E0009B6D3B613B691B68FB607B68DB6D08223E
:1057F0009A40FB681340002B1AD07B681B681B681B
:1058000003F00403002B13D07B681B681A687B68C5
:105810001B6822F004021A607B68DB6D08229A4044
:105820003B699A607B685B6D43F001027B685A6557
:105830007B68DB6D01229A40FB681340002B12D07D
:105840007B681B685B6903F08003002B0BD07B68CF
:10585000DB6D01229A403B699A607B685B6D43F087
:1058600002027B685A657B68DB6D04229A40FB6804
:105870001340002B12D07B681B681B6803F00203E7
:10588000002B0BD07B68DB6D04229A403B699A6049
:105890007B685B6D43F004027B685A657B68DB6D57
:1058A00010229A40FB681340002B43D07B681B6892
:1058B0001B6803F00803002B3CD07B68DB6D1022D3
:1058C0009A403B699A607B681B681B6803F48023DD
:1058D000002B18D07B681B681B6803F40023002B87
:1058E00008D17B681B6C002B24D07B681B6C78680C
:1058F00098471FE07B689B6C002B1BD07B689B6CE0
:105900007868984716E07B681B681B6803F480730F
:10591000002B07D17B681B681A687B681B6822F024
:1059200008021A607B681B6C002B03D07B681B6C21
:10593000786898477B68DB6D20229A40FB681340AB
:10594000002B00F08F807B681B681B6803F010033E
:10595000002B00F087807B68DB6D20229A403B693A
:105960009A607B6893F83530DBB2052B36D17B68C3
:105970001B681A687B681B6822F016021A607B6835
:105980001B685A697B681B6822F080025A617B6839
:105990001B6C002B03D17B689B6C002B07D07B68B2
:1059A0001B681A687B681B6822F008021A607B6813
:1059B000DB6D3F229A403B699A607B68012283F845
:1059C00035207B68002283F834207B681B6D002B18
:1059D0007ED07B681B6D7868984779E07B681B6890
:1059E0001B6803F48023002B1DD07B681B681B6899
:1059F00003F40023002B0DD17B685B6C002B31D0AE
:105A00007B685B6C786898472CE000BF0001002041
:105A1000B5814E1B7B68DB6B002B23D07B68DB6B77
:105A2000786898471EE07B681B681B6803F48073E6
:105A3000002B0FD17B681B681A687B681B6822F0FB
:105A400010021A607B68012283F835207B680022EF
:105A500083F834207B68DB6B002B03D07B68DB6B27
:105A6000786898477B685B6D002B32D07B685B6DF4
:105A700003F00103002B22D07B68052283F8352038
:105A80007B681B681A687B681B6822F001021A6039
:105A9000BB680133BB607A699A4207D37B681B6895
:105AA0001B6803F00103002BF2D100E000BF7B680C
:105AB000012283F835207B68002283F834207B683C
:105AC000DB6C002B05D07B68DB6C7868984700E0C6
:105AD00000BF1837BD4680BD80B485B000AFF86008
